{
  "contracts/test-helper/Molochv21.sol": {
    "Moloch": {
      "abi": [
        {
          "constant": true,
          "inputs": [
            {
              "name": "",
              "type": "uint256"
            }
          ],
          "name": "proposals",
          "outputs": [
            {
              "name": "applicant",
              "type": "address"
            },
            {
              "name": "proposer",
              "type": "address"
            },
            {
              "name": "sponsor",
              "type": "address"
            },
            {
              "name": "sharesRequested",
              "type": "uint256"
            },
            {
              "name": "lootRequested",
              "type": "uint256"
            },
            {
              "name": "tributeOffered",
              "type": "uint256"
            },
            {
              "name": "tributeToken",
              "type": "address"
            },
            {
              "name": "paymentRequested",
              "type": "uint256"
            },
            {
              "name": "paymentToken",
              "type": "address"
            },
            {
              "name": "startingPeriod",
              "type": "uint256"
            },
            {
              "name": "yesVotes",
              "type": "uint256"
            },
            {
              "name": "noVotes",
              "type": "uint256"
            },
            {
              "name": "details",
              "type": "string"
            },
            {
              "name": "maxTotalSharesAndLootAtYesVote",
              "type": "uint256"
            }
          ],
          "payable": false,
          "stateMutability": "view",
          "type": "function"
        },
        {
          "constant": true,
          "inputs": [],
          "name": "processingReward",
          "outputs": [
            {
              "name": "",
              "type": "uint256"
            }
          ],
          "payable": false,
          "stateMutability": "view",
          "type": "function"
        },
        {
          "constant": true,
          "inputs": [
            {
              "name": "memberAddress",
              "type": "address"
            },
            {
              "name": "proposalIndex",
              "type": "uint256"
            }
          ],
          "name": "getMemberProposalVote",
          "outputs": [
            {
              "name": "",
              "type": "uint8"
            }
          ],
          "payable": false,
          "stateMutability": "view",
          "type": "function"
        },
        {
          "constant": true,
          "inputs": [],
          "name": "getCurrentPeriod",
          "outputs": [
            {
              "name": "",
              "type": "uint256"
            }
          ],
          "payable": false,
          "stateMutability": "view",
          "type": "function"
        },
        {
          "constant": true,
          "inputs": [
            {
              "name": "",
              "type": "address"
            }
          ],
          "name": "members",
          "outputs": [
            {
              "name": "delegateKey",
              "type": "address"
            },
            {
              "name": "shares",
              "type": "uint256"
            },
            {
              "name": "loot",
              "type": "uint256"
            },
            {
              "name": "exists",
              "type": "bool"
            },
            {
              "name": "highestIndexYesVote",
              "type": "uint256"
            },
            {
              "name": "jailed",
              "type": "uint256"
            }
          ],
          "payable": false,
          "stateMutability": "view",
          "type": "function"
        },
        {
          "constant": false,
          "inputs": [
            {
              "name": "token",
              "type": "address"
            },
            {
              "name": "amount",
              "type": "uint256"
            }
          ],
          "name": "withdrawBalance",
          "outputs": [],
          "payable": false,
          "stateMutability": "nonpayable",
          "type": "function"
        },
        {
          "constant": false,
          "inputs": [
            {
              "name": "memberToKick",
              "type": "address"
            },
            {
              "name": "details",
              "type": "string"
            }
          ],
          "name": "submitGuildKickProposal",
          "outputs": [
            {
              "name": "proposalId",
              "type": "uint256"
            }
          ],
          "payable": false,
          "stateMutability": "nonpayable",
          "type": "function"
        },
        {
          "constant": false,
          "inputs": [
            {
              "name": "sharesToBurn",
              "type": "uint256"
            },
            {
              "name": "lootToBurn",
              "type": "uint256"
            }
          ],
          "name": "ragequit",
          "outputs": [],
          "payable": false,
          "stateMutability": "nonpayable",
          "type": "function"
        },
        {
          "constant": true,
          "inputs": [
            {
              "name": "",
              "type": "uint256"
            }
          ],
          "name": "approvedTokens",
          "outputs": [
            {
              "name": "",
              "type": "address"
            }
          ],
          "payable": false,
          "stateMutability": "view",
          "type": "function"
        },
        {
          "constant": false,
          "inputs": [
            {
              "name": "newDelegateKey",
              "type": "address"
            }
          ],
          "name": "updateDelegateKey",
          "outputs": [],
          "payable": false,
          "stateMutability": "nonpayable",
          "type": "function"
        },
        {
          "constant": true,
          "inputs": [],
          "name": "TOTAL",
          "outputs": [
            {
              "name": "",
              "type": "address"
            }
          ],
          "payable": false,
          "stateMutability": "view",
          "type": "function"
        },
        {
          "constant": false,
          "inputs": [
            {
              "name": "proposalIndex",
              "type": "uint256"
            }
          ],
          "name": "processWhitelistProposal",
          "outputs": [],
          "payable": false,
          "stateMutability": "nonpayable",
          "type": "function"
        },
        {
          "constant": true,
          "inputs": [],
          "name": "totalShares",
          "outputs": [
            {
              "name": "",
              "type": "uint256"
            }
          ],
          "payable": false,
          "stateMutability": "view",
          "type": "function"
        },
        {
          "constant": true,
          "inputs": [
            {
              "name": "",
              "type": "uint256"
            }
          ],
          "name": "proposalQueue",
          "outputs": [
            {
              "name": "",
              "type": "uint256"
            }
          ],
          "payable": false,
          "stateMutability": "view",
          "type": "function"
        },
        {
          "constant": true,
          "inputs": [
            {
              "name": "",
              "type": "address"
            }
          ],
          "name": "proposedToKick",
          "outputs": [
            {
              "name": "",
              "type": "bool"
            }
          ],
          "payable": false,
          "stateMutability": "view",
          "type": "function"
        },
        {
          "constant": true,
          "inputs": [
            {
              "name": "",
              "type": "address"
            }
          ],
          "name": "memberAddressByDelegateKey",
          "outputs": [
            {
              "name": "",
              "type": "address"
            }
          ],
          "payable": false,
          "stateMutability": "view",
          "type": "function"
        },
        {
          "constant": false,
          "inputs": [
            {
              "name": "tokens",
              "type": "address[]"
            },
            {
              "name": "amounts",
              "type": "uint256[]"
            },
            {
              "name": "max",
              "type": "bool"
            }
          ],
          "name": "withdrawBalances",
          "outputs": [],
          "payable": false,
          "stateMutability": "nonpayable",
          "type": "function"
        },
        {
          "constant": true,
          "inputs": [
            {
              "name": "",
              "type": "address"
            },
            {
              "name": "",
              "type": "address"
            }
          ],
          "name": "userTokenBalances",
          "outputs": [
            {
              "name": "",
              "type": "uint256"
            }
          ],
          "payable": false,
          "stateMutability": "view",
          "type": "function"
        },
        {
          "constant": false,
          "inputs": [
            {
              "name": "applicant",
              "type": "address"
            },
            {
              "name": "sharesRequested",
              "type": "uint256"
            },
            {
              "name": "lootRequested",
              "type": "uint256"
            },
            {
              "name": "tributeOffered",
              "type": "uint256"
            },
            {
              "name": "tributeToken",
              "type": "address"
            },
            {
              "name": "paymentRequested",
              "type": "uint256"
            },
            {
              "name": "paymentToken",
              "type": "address"
            },
            {
              "name": "details",
              "type": "string"
            }
          ],
          "name": "submitProposal",
          "outputs": [
            {
              "name": "proposalId",
              "type": "uint256"
            }
          ],
          "payable": false,
          "stateMutability": "nonpayable",
          "type": "function"
        },
        {
          "constant": false,
          "inputs": [
            {
              "name": "token",
              "type": "address"
            }
          ],
          "name": "collectTokens",
          "outputs": [],
          "payable": false,
          "stateMutability": "nonpayable",
          "type": "function"
        },
        {
          "constant": true,
          "inputs": [],
          "name": "totalLoot",
          "outputs": [
            {
              "name": "",
              "type": "uint256"
            }
          ],
          "payable": false,
          "stateMutability": "view",
          "type": "function"
        },
        {
          "constant": true,
          "inputs": [],
          "name": "gracePeriodLength",
          "outputs": [
            {
              "name": "",
              "type": "uint256"
            }
          ],
          "payable": false,
          "stateMutability": "view",
          "type": "function"
        },
        {
          "constant": true,
          "inputs": [
            {
              "name": "user",
              "type": "address"
            },
            {
              "name": "token",
              "type": "address"
            }
          ],
          "name": "getUserTokenBalance",
          "outputs": [
            {
              "name": "",
              "type": "uint256"
            }
          ],
          "payable": false,
          "stateMutability": "view",
          "type": "function"
        },
        {
          "constant": true,
          "inputs": [
            {
              "name": "",
              "type": "address"
            }
          ],
          "name": "tokenWhitelist",
          "outputs": [
            {
              "name": "",
              "type": "bool"
            }
          ],
          "payable": false,
          "stateMutability": "view",
          "type": "function"
        },
        {
          "constant": true,
          "inputs": [],
          "name": "getTokenCount",
          "outputs": [
            {
              "name": "",
              "type": "uint256"
            }
          ],
          "payable": false,
          "stateMutability": "view",
          "type": "function"
        },
        {
          "constant": true,
          "inputs": [],
          "name": "getProposalQueueLength",
          "outputs": [
            {
              "name": "",
              "type": "uint256"
            }
          ],
          "payable": false,
          "stateMutability": "view",
          "type": "function"
        },
        {
          "constant": true,
          "inputs": [],
          "name": "summoningTime",
          "outputs": [
            {
              "name": "",
              "type": "uint256"
            }
          ],
          "payable": false,
          "stateMutability": "view",
          "type": "function"
        },
        {
          "constant": true,
          "inputs": [],
          "name": "votingPeriodLength",
          "outputs": [
            {
              "name": "",
              "type": "uint256"
            }
          ],
          "payable": false,
          "stateMutability": "view",
          "type": "function"
        },
        {
          "constant": true,
          "inputs": [],
          "name": "proposalDeposit",
          "outputs": [
            {
              "name": "",
              "type": "uint256"
            }
          ],
          "payable": false,
          "stateMutability": "view",
          "type": "function"
        },
        {
          "constant": true,
          "inputs": [
            {
              "name": "startingPeriod",
              "type": "uint256"
            }
          ],
          "name": "hasVotingPeriodExpired",
          "outputs": [
            {
              "name": "",
              "type": "bool"
            }
          ],
          "payable": false,
          "stateMutability": "view",
          "type": "function"
        },
        {
          "constant": false,
          "inputs": [
            {
              "name": "proposalId",
              "type": "uint256"
            }
          ],
          "name": "sponsorProposal",
          "outputs": [],
          "payable": false,
          "stateMutability": "nonpayable",
          "type": "function"
        },
        {
          "constant": false,
          "inputs": [
            {
              "name": "proposalIndex",
              "type": "uint256"
            },
            {
              "name": "uintVote",
              "type": "uint8"
            }
          ],
          "name": "submitVote",
          "outputs": [],
          "payable": false,
          "stateMutability": "nonpayable",
          "type": "function"
        },
        {
          "constant": true,
          "inputs": [],
          "name": "totalGuildBankTokens",
          "outputs": [
            {
              "name": "",
              "type": "uint256"
            }
          ],
          "payable": false,
          "stateMutability": "view",
          "type": "function"
        },
        {
          "constant": true,
          "inputs": [
            {
              "name": "highestIndexYesVote",
              "type": "uint256"
            }
          ],
          "name": "canRagequit",
          "outputs": [
            {
              "name": "",
              "type": "bool"
            }
          ],
          "payable": false,
          "stateMutability": "view",
          "type": "function"
        },
        {
          "constant": false,
          "inputs": [
            {
              "name": "_summoner",
              "type": "address[]"
            },
            {
              "name": "_approvedTokens",
              "type": "address[]"
            },
            {
              "name": "_periodDuration",
              "type": "uint256"
            },
            {
              "name": "_votingPeriodLength",
              "type": "uint256"
            },
            {
              "name": "_gracePeriodLength",
              "type": "uint256"
            },
            {
              "name": "_proposalDeposit",
              "type": "uint256"
            },
            {
              "name": "_dilutionBound",
              "type": "uint256"
            },
            {
              "name": "_processingReward",
              "type": "uint256"
            },
            {
              "name": "_summonerShares",
              "type": "uint256[]"
            }
          ],
          "name": "init",
          "outputs": [],
          "payable": false,
          "stateMutability": "nonpayable",
          "type": "function"
        },
        {
          "constant": true,
          "inputs": [],
          "name": "dilutionBound",
          "outputs": [
            {
              "name": "",
              "type": "uint256"
            }
          ],
          "payable": false,
          "stateMutability": "view",
          "type": "function"
        },
        {
          "constant": true,
          "inputs": [
            {
              "name": "proposalId",
              "type": "uint256"
            }
          ],
          "name": "getProposalFlags",
          "outputs": [
            {
              "name": "",
              "type": "bool[6]"
            }
          ],
          "payable": false,
          "stateMutability": "view",
          "type": "function"
        },
        {
          "constant": true,
          "inputs": [
            {
              "name": "",
              "type": "uint256"
            }
          ],
          "name": "memberList",
          "outputs": [
            {
              "name": "",
              "type": "address"
            }
          ],
          "payable": false,
          "stateMutability": "view",
          "type": "function"
        },
        {
          "constant": true,
          "inputs": [],
          "name": "periodDuration",
          "outputs": [
            {
              "name": "",
              "type": "uint256"
            }
          ],
          "payable": false,
          "stateMutability": "view",
          "type": "function"
        },
        {
          "constant": true,
          "inputs": [],
          "name": "depositToken",
          "outputs": [
            {
              "name": "",
              "type": "address"
            }
          ],
          "payable": false,
          "stateMutability": "view",
          "type": "function"
        },
        {
          "constant": true,
          "inputs": [],
          "name": "proposalCount",
          "outputs": [
            {
              "name": "",
              "type": "uint256"
            }
          ],
          "payable": false,
          "stateMutability": "view",
          "type": "function"
        },
        {
          "constant": false,
          "inputs": [
            {
              "name": "memberToKick",
              "type": "address"
            }
          ],
          "name": "ragekick",
          "outputs": [],
          "payable": false,
          "stateMutability": "nonpayable",
          "type": "function"
        },
        {
          "constant": false,
          "inputs": [
            {
              "name": "proposalId",
              "type": "uint256"
            }
          ],
          "name": "cancelProposal",
          "outputs": [],
          "payable": false,
          "stateMutability": "nonpayable",
          "type": "function"
        },
        {
          "constant": true,
          "inputs": [
            {
              "name": "",
              "type": "address"
            }
          ],
          "name": "proposedToWhitelist",
          "outputs": [
            {
              "name": "",
              "type": "bool"
            }
          ],
          "payable": false,
          "stateMutability": "view",
          "type": "function"
        },
        {
          "constant": false,
          "inputs": [
            {
              "name": "proposalIndex",
              "type": "uint256"
            }
          ],
          "name": "processGuildKickProposal",
          "outputs": [],
          "payable": false,
          "stateMutability": "nonpayable",
          "type": "function"
        },
        {
          "constant": false,
          "inputs": [
            {
              "name": "proposalIndex",
              "type": "uint256"
            }
          ],
          "name": "processProposal",
          "outputs": [],
          "payable": false,
          "stateMutability": "nonpayable",
          "type": "function"
        },
        {
          "constant": true,
          "inputs": [],
          "name": "ESCROW",
          "outputs": [
            {
              "name": "",
              "type": "address"
            }
          ],
          "payable": false,
          "stateMutability": "view",
          "type": "function"
        },
        {
          "constant": true,
          "inputs": [],
          "name": "GUILD",
          "outputs": [
            {
              "name": "",
              "type": "address"
            }
          ],
          "payable": false,
          "stateMutability": "view",
          "type": "function"
        },
        {
          "constant": false,
          "inputs": [
            {
              "name": "tokenToWhitelist",
              "type": "address"
            },
            {
              "name": "details",
              "type": "string"
            }
          ],
          "name": "submitWhitelistProposal",
          "outputs": [
            {
              "name": "proposalId",
              "type": "uint256"
            }
          ],
          "payable": false,
          "stateMutability": "nonpayable",
          "type": "function"
        },
        {
          "anonymous": false,
          "inputs": [
            {
              "indexed": true,
              "name": "summoner",
              "type": "address"
            },
            {
              "indexed": false,
              "name": "tokens",
              "type": "address[]"
            },
            {
              "indexed": false,
              "name": "summoningTime",
              "type": "uint256"
            },
            {
              "indexed": false,
              "name": "periodDuration",
              "type": "uint256"
            },
            {
              "indexed": false,
              "name": "votingPeriodLength",
              "type": "uint256"
            },
            {
              "indexed": false,
              "name": "gracePeriodLength",
              "type": "uint256"
            },
            {
              "indexed": false,
              "name": "proposalDeposit",
              "type": "uint256"
            },
            {
              "indexed": false,
              "name": "dilutionBound",
              "type": "uint256"
            },
            {
              "indexed": false,
              "name": "processingReward",
              "type": "uint256"
            }
          ],
          "name": "SummonComplete",
          "type": "event"
        },
        {
          "anonymous": false,
          "inputs": [
            {
              "indexed": true,
              "name": "applicant",
              "type": "address"
            },
            {
              "indexed": false,
              "name": "sharesRequested",
              "type": "uint256"
            },
            {
              "indexed": false,
              "name": "lootRequested",
              "type": "uint256"
            },
            {
              "indexed": false,
              "name": "tributeOffered",
              "type": "uint256"
            },
            {
              "indexed": false,
              "name": "tributeToken",
              "type": "address"
            },
            {
              "indexed": false,
              "name": "paymentRequested",
              "type": "uint256"
            },
            {
              "indexed": false,
              "name": "paymentToken",
              "type": "address"
            },
            {
              "indexed": false,
              "name": "details",
              "type": "string"
            },
            {
              "indexed": false,
              "name": "flags",
              "type": "bool[6]"
            },
            {
              "indexed": false,
              "name": "proposalId",
              "type": "uint256"
            },
            {
              "indexed": true,
              "name": "delegateKey",
              "type": "address"
            },
            {
              "indexed": true,
              "name": "memberAddress",
              "type": "address"
            }
          ],
          "name": "SubmitProposal",
          "type": "event"
        },
        {
          "anonymous": false,
          "inputs": [
            {
              "indexed": true,
              "name": "delegateKey",
              "type": "address"
            },
            {
              "indexed": true,
              "name": "memberAddress",
              "type": "address"
            },
            {
              "indexed": false,
              "name": "proposalId",
              "type": "uint256"
            },
            {
              "indexed": false,
              "name": "proposalIndex",
              "type": "uint256"
            },
            {
              "indexed": false,
              "name": "startingPeriod",
              "type": "uint256"
            }
          ],
          "name": "SponsorProposal",
          "type": "event"
        },
        {
          "anonymous": false,
          "inputs": [
            {
              "indexed": false,
              "name": "proposalId",
              "type": "uint256"
            },
            {
              "indexed": true,
              "name": "proposalIndex",
              "type": "uint256"
            },
            {
              "indexed": true,
              "name": "delegateKey",
              "type": "address"
            },
            {
              "indexed": true,
              "name": "memberAddress",
              "type": "address"
            },
            {
              "indexed": false,
              "name": "uintVote",
              "type": "uint8"
            }
          ],
          "name": "SubmitVote",
          "type": "event"
        },
        {
          "anonymous": false,
          "inputs": [
            {
              "indexed": true,
              "name": "proposalIndex",
              "type": "uint256"
            },
            {
              "indexed": true,
              "name": "proposalId",
              "type": "uint256"
            },
            {
              "indexed": false,
              "name": "didPass",
              "type": "bool"
            }
          ],
          "name": "ProcessProposal",
          "type": "event"
        },
        {
          "anonymous": false,
          "inputs": [
            {
              "indexed": true,
              "name": "proposalIndex",
              "type": "uint256"
            },
            {
              "indexed": true,
              "name": "proposalId",
              "type": "uint256"
            },
            {
              "indexed": false,
              "name": "didPass",
              "type": "bool"
            }
          ],
          "name": "ProcessWhitelistProposal",
          "type": "event"
        },
        {
          "anonymous": false,
          "inputs": [
            {
              "indexed": true,
              "name": "proposalIndex",
              "type": "uint256"
            },
            {
              "indexed": true,
              "name": "proposalId",
              "type": "uint256"
            },
            {
              "indexed": false,
              "name": "didPass",
              "type": "bool"
            }
          ],
          "name": "ProcessGuildKickProposal",
          "type": "event"
        },
        {
          "anonymous": false,
          "inputs": [
            {
              "indexed": true,
              "name": "memberAddress",
              "type": "address"
            },
            {
              "indexed": false,
              "name": "sharesToBurn",
              "type": "uint256"
            },
            {
              "indexed": false,
              "name": "lootToBurn",
              "type": "uint256"
            }
          ],
          "name": "Ragequit",
          "type": "event"
        },
        {
          "anonymous": false,
          "inputs": [
            {
              "indexed": true,
              "name": "token",
              "type": "address"
            },
            {
              "indexed": false,
              "name": "amountToCollect",
              "type": "uint256"
            }
          ],
          "name": "TokensCollected",
          "type": "event"
        },
        {
          "anonymous": false,
          "inputs": [
            {
              "indexed": true,
              "name": "proposalId",
              "type": "uint256"
            },
            {
              "indexed": false,
              "name": "applicantAddress",
              "type": "address"
            }
          ],
          "name": "CancelProposal",
          "type": "event"
        },
        {
          "anonymous": false,
          "inputs": [
            {
              "indexed": true,
              "name": "memberAddress",
              "type": "address"
            },
            {
              "indexed": false,
              "name": "newDelegateKey",
              "type": "address"
            }
          ],
          "name": "UpdateDelegateKey",
          "type": "event"
        },
        {
          "anonymous": false,
          "inputs": [
            {
              "indexed": true,
              "name": "memberAddress",
              "type": "address"
            },
            {
              "indexed": false,
              "name": "token",
              "type": "address"
            },
            {
              "indexed": false,
              "name": "amount",
              "type": "uint256"
            }
          ],
          "name": "Withdraw",
          "type": "event"
        }
      ],
      "evm": {
        "bytecode": {
          "linkReferences": {},
          "object": "608060405260006009556000600a556000600b556000600c556001600081905550615dd68061002f6000396000f3fe608060405234801561001057600080fd5b5060043610610348576000357c01000000000000000000000000000000000000000000000000000000009004806378a89567116101cf578063b2643aab11610116578063e0a8f6f5116100bf578063e63bc62d11610099578063e63bc62d14610d3b578063e681c4aa14610d58578063f5d54c7714610d60578063feb7ea1d14610d6857610348565b8063e0a8f6f514610cdb578063e178034514610cf8578063e1a0e3fa14610d1e57610348565b8063c89039c5116100f0578063c89039c514610ca5578063da35c66414610cad578063dfdd369e14610cb557610348565b8063b2643aab14610c2b578063b307fc6d14610c80578063b470aade14610c9d57610348565b80639746d94011610178578063a3dc380011610152578063a3dc380014610acd578063a916261914610aea578063afe5475f14610c2357610348565b80639746d94014610a8257806399653fbe14610a9f5780639d1722cb14610ac557610348565b80638340bbce116101a95780638340bbce14610a555780638b15a60514610a5d5780639425a47614610a6557610348565b806378a8956714610a3d578063797daf7014610a455780637d5b6c7214610a4d57610348565b80633a98ef3911610293578063590f940b1161023c57806363858f2d1161021657806363858f2d146109e157806373f8fd4b146109e9578063753d756314610a1757610348565b8063590f940b146108d357806359999b41146109b3578063635e99aa146109d957610348565b8063402c17941161026d578063402c1794146107565780634482394b1461077c57806345f2d105146108a557610348565b80633a98ef39146106f75780633b214a74146106ff5780633fc24bba1461071c57610348565b8063115b2d18116102f55780632582bf2a116102cf5780632582bf2a146106ac57806327efc086146106d25780633793ab3c146106da57610348565b8063115b2d181461059a57806315eb349e146106505780631dafede01461067357610348565b8063086146d211610326578063086146d21461050157806308ae4b0c146105095780630cf20cc91461056c57610348565b8063013cf08b1461034d57806303e32fa114610497578063044a0ca8146104b1575b600080fd5b61036a6004803603602081101561036357600080fd5b5035610e1e565b604051808f600160a060020a0316600160a060020a031681526020018e600160a060020a0316600160a060020a031681526020018d600160a060020a0316600160a060020a031681526020018c81526020018b81526020018a815260200189600160a060020a0316600160a060020a0316815260200188815260200187600160a060020a0316600160a060020a0316815260200186815260200185815260200184815260200180602001838152602001828103825284818151815260200191508051906020019080838360005b8381101561044f578181015183820152602001610437565b50505050905090810190601f16801561047c5780820380516001836020036101000a031916815260200191505b509f5050505050505050505050505050505060405180910390f35b61049f610f81565b60408051918252519081900360200190f35b6104dd600480360360408110156104c757600080fd5b50600160a060020a038135169060200135610f87565b604051808260028111156104ed57fe5b60ff16815260200191505060405180910390f35b61049f6110a7565b61052f6004803603602081101561051f57600080fd5b5035600160a060020a03166110d6565b60408051600160a060020a0390971687526020870195909552858501939093529015156060850152608084015260a0830152519081900360c00190f35b6105986004803603604081101561058257600080fd5b50600160a060020a038135169060200135611119565b005b61049f600480360360408110156105b057600080fd5b600160a060020a0382351691908101906040810160208201356401000000008111156105db57600080fd5b8201836020820111156105ed57600080fd5b8035906020019184600183028401116401000000008311171561060f57600080fd5b91908080601f01602080910402602001604051908101604052809392919081815260200183838082843760009201919091525092955061117a945050505050565b6105986004803603604081101561066657600080fd5b5080359060200135611317565b6106906004803603602081101561068957600080fd5b50356113f4565b60408051600160a060020a039092168252519081900360200190f35b610598600480360360208110156106c257600080fd5b5035600160a060020a031661141c565b6106906116a7565b610598600480360360208110156106f057600080fd5b50356116ad565b61049f6118e0565b61049f6004803603602081101561071557600080fd5b50356118e6565b6107426004803603602081101561073257600080fd5b5035600160a060020a0316611905565b604080519115158252519081900360200190f35b6106906004803603602081101561076c57600080fd5b5035600160a060020a031661191a565b6105986004803603606081101561079257600080fd5b8101906020810181356401000000008111156107ad57600080fd5b8201836020820111156107bf57600080fd5b803590602001918460208302840111640100000000831117156107e157600080fd5b919080806020026020016040519081016040528093929190818152602001838360200280828437600092019190915250929594936020810193503591505064010000000081111561083157600080fd5b82018360208201111561084357600080fd5b8035906020019184602083028401116401000000008311171561086557600080fd5b9190808060200260200160405190810160405280939291908181526020018383602002808284376000920191909152509295505050503515159050611935565b61049f600480360360408110156108bb57600080fd5b50600160a060020a0381358116916020013516611a77565b61049f60048036036101008110156108ea57600080fd5b600160a060020a038235811692602081013592604082013592606083013592608081013582169260a08201359260c0830135169190810190610100810160e082013564010000000081111561093e57600080fd5b82018360208201111561095057600080fd5b8035906020019184600183028401116401000000008311171561097257600080fd5b91908080601f016020809104026020016040519081016040528093929190818152602001838380828437600092019190915250929550611a94945050505050565b610598600480360360208110156109c957600080fd5b5035600160a060020a0316611f2c565b61049f61229b565b61049f6122a1565b61049f600480360360408110156109ff57600080fd5b50600160a060020a03813581169160200135166122a7565b61074260048036036020811015610a2d57600080fd5b5035600160a060020a03166122d2565b61049f6122e7565b61049f6122ed565b61049f6122f3565b61049f6122f9565b61049f6122ff565b61074260048036036020811015610a7b57600080fd5b5035612305565b61059860048036036020811015610a9857600080fd5b503561232c565b61059860048036036040811015610ab557600080fd5b508035906020013560ff16612a7a565b61049f612f7c565b61074260048036036020811015610ae357600080fd5b5035612f82565b6105986004803603610120811015610b0157600080fd5b810190602081018135640100000000811115610b1c57600080fd5b820183602082011115610b2e57600080fd5b80359060200191846020830284011164010000000083111715610b5057600080fd5b919390929091602081019035640100000000811115610b6e57600080fd5b820183602082011115610b8057600080fd5b80359060200191846020830284011164010000000083111715610ba257600080fd5b9193909282359260208101359260408201359260608301359260808101359260a082013592909160e081019060c00135640100000000811115610be457600080fd5b820183602082011115610bf657600080fd5b80359060200191846020830284011164010000000083111715610c1857600080fd5b509092509050613038565b61049f6138b3565b610c4860048036036020811015610c4157600080fd5b50356138b9565b604051808260c080838360005b83811015610c6d578181015183820152602001610c55565b5050505090500191505060405180910390f35b61069060048036036020811015610c9657600080fd5b5035613923565b61049f613931565b610690613937565b61049f61394b565b61059860048036036020811015610ccb57600080fd5b5035600160a060020a0316613951565b61059860048036036020811015610cf157600080fd5b5035613aca565b61074260048036036020811015610d0e57600080fd5b5035600160a060020a0316613c9e565b61059860048036036020811015610d3457600080fd5b5035613cb3565b61059860048036036020811015610d5157600080fd5b5035613ec4565b6106906144ce565b6106906144d4565b61049f60048036036040811015610d7e57600080fd5b600160a060020a038235169190810190604081016020820135640100000000811115610da957600080fd5b820183602082011115610dbb57600080fd5b80359060200191846001830284011164010000000083111715610ddd57600080fd5b91908080601f0160208091040260200160405190810160405280939291908181526020018383808284376000920191909152509295506144da945050505050565b60156020528060005260406000206000915090508060000160009054906101000a9004600160a060020a0316908060010160009054906101000a9004600160a060020a0316908060020160009054906101000a9004600160a060020a0316908060030154908060040154908060050154908060060160009054906101000a9004600160a060020a0316908060070154908060080160009054906101000a9004600160a060020a03169080600901549080600a01549080600b01549080600d018054600181600116156101000203166002900480601f016020809104026020016040519081016040528092919081815260200182805460018160011615610100020316600290048015610f715780601f10610f4657610100808354040283529160200191610f71565b820191906000526020600020905b815481529060010190602001808311610f5457829003601f168201915b50505050509080600e015490508e565b60065481565b600160a060020a03821660009081526012602052604081206003015460ff161515610ffc576040805160e560020a62461bcd02815260206004820152601560248201527f6d656d62657220646f6573206e6f742065786973740000000000000000000000604482015290519081900360640190fd5b6016548210611055576040805160e560020a62461bcd02815260206004820152601760248201527f70726f706f73616c20646f6573206e6f74206578697374000000000000000000604482015290519081900360640190fd5b6015600060168481548110151561106857fe5b600091825260208083209091015483528281019390935260409182018120600160a060020a0387168252600f0190925290205460ff1690505b92915050565b60006110d06001546110c46007544261465e90919063ffffffff16565b9063ffffffff61467316565b90505b90565b601260205260009081526040902080546001820154600283015460038401546004850154600590950154600160a060020a03909416949293919260ff9091169186565b60005460021415611162576040805160e560020a62461bcd02815260206004820152601f6024820152600080516020615977833981519152604482015290519081900360640190fd5b60026000556111718282614697565b50506001600055565b60008054600214156111c4576040805160e560020a62461bcd02815260206004820152601f6024820152600080516020615977833981519152604482015290519081900360640190fd5b60026000556111d1615700565b50600160a060020a038084166000908152601260209081526040808320815160c081018352815490951685526001810154928501839052600281015491850191909152600381015460ff1615156060850152600481015460808501526005015460a08401521180611246575060008160400151115b15156112865760405160e560020a62461bcd02815260040180806020018281038252602f815260200180615b2c602f913960400191505060405180910390fd5b600160a060020a038416600090815260126020526040902060050154156112e15760405160e560020a62461bcd028152600401808060200182810382526021815260200180615a746021913960400191505060405180910390fd5b6112e9615742565b600160a082015261130285600080808080808b8961484e565b50506009546001600055600019019392505050565b60005460021415611360576040805160e560020a62461bcd02815260206004820152601f6024820152600080516020615977833981519152604482015290519081900360640190fd5b60026000908155338152601260205260408120600101541180611393575033600090815260126020526040812060020154115b15156113e9576040805160e560020a62461bcd02815260206004820152600c60248201527f6e6f742061206d656d6265720000000000000000000000000000000000000000604482015290519081900360640190fd5b611171338383614c09565b600f80548290811061140257fe5b600091825260209091200154600160a060020a0316905081565b60005460021415611465576040805160e560020a62461bcd02815260206004820152601f6024820152600080516020615977833981519152604482015290519081900360640190fd5b6002600090815533815260126020526040812060010154116114d1576040805160e560020a62461bcd02815260206004820152601160248201527f6e6f742061207368617265686f6c646572000000000000000000000000000000604482015290519081900360640190fd5b600160a060020a0381161515611531576040805160e560020a62461bcd02815260206004820152601a60248201527f6e657744656c65676174654b65792063616e6e6f742062652030000000000000604482015290519081900360640190fd5b600160a060020a038116331461160c57600160a060020a03811660009081526012602052604090206003015460ff161561159f5760405160e560020a62461bcd028152600401808060200182810382526021815260200180615c2c6021913960400191505060405180910390fd5b600160a060020a03808216600090815260136020908152604080832054909316825260129052206003015460ff161561160c5760405160e560020a62461bcd0281526004018080602001828103825260278152602001806159506027913960400191505060405180910390fd5b3360008181526012602090815260408083208054600160a060020a03908116855260138452828520805473ffffffffffffffffffffffffffffffffffffffff1990811690915590871680865294839020805482168717905581541684178155815193845290519093927fde7b64a369e10562cc2e71f0f1f944eaf144b75fead6ecb51fac9c4dd693488592908290030190a250506001600055565b61babe81565b600054600214156116f6576040805160e560020a62461bcd02815260206004820152601f6024820152600080516020615977833981519152604482015290519081900360640190fd5b600260005561170481614f4a565b600060168281548110151561171557fe5b60009182526020808320919091015480835260159091526040909120600c81015491925090640100000000900460ff16151561179b576040805160e560020a62461bcd02815260206004820152601c60248201527f6d75737420626520612077686974656c6973742070726f706f73616c00000000604482015290519081900360640190fd5b600c8101805461ff00191661010017905560006117b7846152cb565b600f54909150610190116117c9575060005b801561186757600c8201805462ff0000191662010000179055600682018054600160a060020a039081166000908152600e60205260408120805460ff191660019081179091559254600f805494850181559091527f8d1108e10bcb7c27dddfc02ed9d693a074039d026cf4ea4240b40f7d581ac80290920180549290911673ffffffffffffffffffffffffffffffffffffffff199092169190911790555b6006820154600160a060020a039081166000908152601060205260409020805460ff19169055600283015461189c911661550c565b6040805182151581529051849186917f2094fc13d2ecb0acd6861e82bd006c7e5ab6f312ec0c6cdfe3d1a01ee54d885a9181900360200190a3505060016000555050565b600a5481565b60168054829081106118f457fe5b600091825260209091200154905081565b60116020526000908152604090205460ff1681565b601360205260009081526040902054600160a060020a031681565b6000546002141561197e576040805160e560020a62461bcd02815260206004820152601f6024820152600080516020615977833981519152604482015290519081900360640190fd5b600260005581518351146119c65760405160e560020a62461bcd028152600401808060200182810382526032815260200180615b5b6032913960400191505060405180910390fd5b60005b8351811015611a6c57600083828151811015156119e257fe5b9060200190602002015190508215611a4257336000908152600d602052604081208651909190879085908110611a1457fe5b90602001906020020151600160a060020a0316600160a060020a031681526020019081526020016000205490505b611a638583815181101515611a5357fe5b9060200190602002015182614697565b506001016119c9565b505060016000555050565b600d60209081526000928352604080842090915290825290205481565b6000805460021415611ade576040805160e560020a62461bcd02815260206004820152601f6024820152600080516020615977833981519152604482015290519081900360640190fd5b6002600055670de0b6b3a7640000611afc898963ffffffff61556d16565b1115611b52576040805160e560020a62461bcd02815260206004820152601960248201527f746f6f206d616e79207368617265732072657175657374656400000000000000604482015290519081900360640190fd5b600160a060020a0385166000908152600e602052604090205460ff161515611bc4576040805160e560020a62461bcd02815260206004820152601f60248201527f74726962757465546f6b656e206973206e6f742077686974656c697374656400604482015290519081900360640190fd5b600160a060020a0383166000908152600e602052604090205460ff161515611c36576040805160e560020a62461bcd02815260206004820152601a60248201527f7061796d656e74206973206e6f742077686974656c6973746564000000000000604482015290519081900360640190fd5b600160a060020a0389161515611c96576040805160e560020a62461bcd02815260206004820152601560248201527f6170706c6963616e742063616e6e6f7420626520300000000000000000000000604482015290519081900360640190fd5b600160a060020a03891661dead14801590611cbc5750600160a060020a03891661beef14155b8015611cd35750600160a060020a03891661babe14155b1515611d135760405160e560020a62461bcd028152600401808060200182810382526024815260200180615a096024913960400191505060405180910390fd5b600160a060020a03891660009081526012602052604090206005015415611d6e5760405160e560020a62461bcd028152600401808060200182810382526025815260200180615bc36025913960400191505060405180910390fd5b600086118015611db35750600160a060020a03851660009081527fdc7fafdc41998a74ecacb8f8bd877011aba1f1d03a3a0d37a2e7879a393b1d6a6020526040902054155b15611dfc57600c5460c811611dfc5760405160e560020a62461bcd028152600401808060200182810382526047815260200180615a2d6047913960600191505060405180910390fd5b604080517f23b872dd000000000000000000000000000000000000000000000000000000008152336004820152306024820152604481018890529051600160a060020a038716916323b872dd9160648083019260209291908290030181600087803b158015611e6a57600080fd5b505af1158015611e7e573d6000803e3d6000fd5b505050506040513d6020811015611e9457600080fd5b50511515611eec576040805160e560020a62461bcd02815260206004820152601d60248201527f7472696275746520746f6b656e207472616e73666572206661696c6564000000604482015290519081900360640190fd5b611ef961beef8688615586565b611f01615742565b611f128a8a8a8a8a8a8a8a8961484e565b505060095460001901600160005598975050505050505050565b33600090815260136020908152604080832054600160a060020a03168352601290915281206001015411611faa576040805160e560020a62461bcd02815260206004820152600e60248201527f6e6f7420612064656c6567617465000000000000000000000000000000000000604482015290519081900360640190fd5b60005460021415611ff3576040805160e560020a62461bcd02815260206004820152601f6024820152600080516020615977833981519152604482015290519081900360640190fd5b60026000908155600160a060020a0382168082527fa30f7a7832bd8a7a8daa3a3f5b7a6f7cec6a2fbb1a121fa5b76520e44736771c602090815260408084205481517f70a0823100000000000000000000000000000000000000000000000000000000815230600482015291516120c294919391926370a08231926024808301939192829003018186803b15801561208a57600080fd5b505afa15801561209e573d6000803e3d6000fd5b505050506040513d60208110156120b457600080fd5b50519063ffffffff61465e16565b90506000811161211c576040805160e560020a62461bcd02815260206004820152601460248201527f6e6f20746f6b656e7320746f20636f6c6c656374000000000000000000000000604482015290519081900360640190fd5b600160a060020a0382166000908152600e602052604090205460ff1615156121785760405160e560020a62461bcd028152600401808060200182810382526024815260200180615ab86024913960400191505060405180910390fd5b600160a060020a03821660009081527fdc7fafdc41998a74ecacb8f8bd877011aba1f1d03a3a0d37a2e7879a393b1d6a602052604081205411806121be575060c8600c54105b15156121fe5760405160e560020a62461bcd028152600401808060200182810382526036815260200180615b8d6036913960400191505060405180910390fd5b600160a060020a03821660009081527fdc7fafdc41998a74ecacb8f8bd877011aba1f1d03a3a0d37a2e7879a393b1d6a6020526040902054151561224657600c805460010190555b61225361dead8383615586565b604080518281529051600160a060020a038416917f9381e53ffdc9733a6783a6f8665be3f89c231bb81a6771996ed553b4e75c0fe3919081900360200190a250506001600055565b600b5481565b60035481565b600160a060020a039182166000908152600d6020908152604080832093909416825291909152205490565b600e6020526000908152604090205460ff1681565b600f5490565b60165490565b60075481565b60025481565b60045481565b600061231c6002548361556d90919063ffffffff16565b6123246110a7565b101592915050565b60005460021415612375576040805160e560020a62461bcd02815260206004820152601f6024820152600080516020615977833981519152604482015290519081900360640190fd5b6002600090815533815260136020908152604080832054600160a060020a031683526012909152812060010154116123f7576040805160e560020a62461bcd02815260206004820152600e60248201527f6e6f7420612064656c6567617465000000000000000000000000000000000000604482015290519081900360640190fd5b60085460048054604080517f23b872dd0000000000000000000000000000000000000000000000000000000081523393810193909352306024840152604483019190915251610100909204600160a060020a0316916323b872dd916064808201926020929091908290030181600087803b15801561247457600080fd5b505af1158015612488573d6000803e3d6000fd5b505050506040513d602081101561249e57600080fd5b505115156124e05760405160e560020a62461bcd028152600401808060200182810382526026815260200180615cbb6026913960400191505060405180910390fd5b61250461beef600860019054906101000a9004600160a060020a0316600454615586565b60008181526015602052604090206001810154600160a060020a03161515612576576040805160e560020a62461bcd02815260206004820181905260248201527f70726f706f73616c206d7573742068617665206265656e2070726f706f736564604482015290519081900360640190fd5b600c81015460ff16156125bd5760405160e560020a62461bcd028152600401808060200182810382526023815260200180615c096023913960400191505060405180910390fd5b600c8101546301000000900460ff1615612621576040805160e560020a62461bcd02815260206004820152601b60248201527f70726f706f73616c20686173206265656e2063616e63656c6c65640000000000604482015290519081900360640190fd5b8054600160a060020a03166000908152601260205260409020600501541561267d5760405160e560020a62461bcd028152600401808060200182810382526025815260200180615bc36025913960400191505060405180910390fd5b600081600501541180156126ca57506006810154600160a060020a031660009081527fdc7fafdc41998a74ecacb8f8bd877011aba1f1d03a3a0d37a2e7879a393b1d6a6020526040902054155b1561271357600c5460c8116127135760405160e560020a62461bcd028152600401808060200182810382526048815260200180615c736048913960600191505060405180910390fd5b600c810154640100000000900460ff161561286d576006810154600160a060020a03166000908152600e602052604090205460ff16156127875760405160e560020a62461bcd028152600401808060200182810382526029815260200180615d266029913960400191505060405180910390fd5b6006810154600160a060020a031660009081526010602052604090205460ff16156127fc576040805160e560020a62461bcd02815260206004820152601d60248201527f616c72656164792070726f706f73656420746f2077686974656c697374000000604482015290519081900360640190fd5b600f54610190116128415760405160e560020a62461bcd028152600401808060200182810382526027815260200180615adc6027913960400191505060405180910390fd5b6006810154600160a060020a03166000908152601060205260409020805460ff1916600117905561291a565b600c81015465010000000000900460ff161561291a578054600160a060020a031660009081526011602052604090205460ff16156128f5576040805160e560020a62461bcd02815260206004820152601860248201527f616c72656164792070726f706f73656420746f206b69636b0000000000000000604482015290519081900360640190fd5b8054600160a060020a03166000908152601160205260409020805460ff191660011790555b600061298f600161298361292c6110a7565b6016541561297b576016805460159160009161294f90600163ffffffff61465e16565b8154811061295957fe5b906000526020600020015481526020019081526020016000206009015461297e565b60005b6155e4565b9063ffffffff61556d16565b600983018190553360008181526013602052604081205460028601805473ffffffffffffffffffffffffffffffffffffffff1916600160a060020a039092169182179055600c8601805460ff19166001908117909155601680548083018255938190527fd833147d7dc355ba459fc788f669e58cfaf9dc25ddcd0702e87d69c7b51242899093018890559154939450928392917f2a383a979381335e3eb401ac01dd8083e024ff0256bf5338456ffc0063390bbd918891612a50919061465e565b604080519283526020830191909152818101879052519081900360600190a3505060016000555050565b60005460021415612ac3576040805160e560020a62461bcd02815260206004820152601f6024820152600080516020615977833981519152604482015290519081900360640190fd5b6002600090815533815260136020908152604080832054600160a060020a03168352601290915281206001015411612b45576040805160e560020a62461bcd02815260206004820152600e60248201527f6e6f7420612064656c6567617465000000000000000000000000000000000000604482015290519081900360640190fd5b33600090815260136020908152604080832054600160a060020a031680845260129092529091206016548410612bc5576040805160e560020a62461bcd02815260206004820152601760248201527f70726f706f73616c20646f6573206e6f74206578697374000000000000000000604482015290519081900360640190fd5b600060156000601687815481101515612bda57fe5b90600052602060002001548152602001908152602001600020905060038460ff16101515612c52576040805160e560020a62461bcd02815260206004820152601360248201527f6d757374206265206c657373207468616e203300000000000000000000000000604482015290519081900360640190fd5b60008460ff166002811115612c6357fe5b90508160090154612c726110a7565b1015612cc8576040805160e560020a62461bcd02815260206004820152601d60248201527f766f74696e6720706572696f6420686173206e6f742073746172746564000000604482015290519081900360640190fd5b612cd58260090154612305565b15612d145760405160e560020a62461bcd028152600401808060200182810382526022815260200180615ce16022913960400191505060405180910390fd5b600160a060020a0384166000908152600f8301602052604081205460ff166002811115612d3d57fe5b14612d92576040805160e560020a62461bcd02815260206004820152601860248201527f6d656d6265722068617320616c726561647920766f7465640000000000000000604482015290519081900360640190fd5b6001816002811115612da057fe5b1480612db757506002816002811115612db557fe5b145b1515612e0d576040805160e560020a62461bcd02815260206004820152601d60248201527f766f7465206d7573742062652065697468657220596573206f72204e6f000000604482015290519081900360640190fd5b600160a060020a0384166000908152600f830160205260409020805482919060ff19166001836002811115612e3e57fe5b02179055506001816002811115612e5157fe5b1415612ec9576001830154600a830154612e709163ffffffff61556d16565b600a8301556004830154861115612e8957600483018690555b600e820154600b54600a54612ea39163ffffffff61556d16565b1115612ec457600b54600a54612ebe9163ffffffff61556d16565b600e8301555b612efc565b6002816002811115612ed757fe5b1415612efc576001830154600b830154612ef69163ffffffff61556d16565b600b8301555b83600160a060020a031633600160a060020a0316877f804f03797630bf8b8a46b9371608abbf7d78a20df720e477bab641957ca68a2060168a815481101515612f4157fe5b906000526020600020015489604051808381526020018260ff1660ff1681526020019250505060405180910390a45050600160005550505050565b600c5481565b6016546000908210612fde576040805160e560020a62461bcd02815260206004820152601760248201527f70726f706f73616c20646f6573206e6f74206578697374000000000000000000604482015290519081900360640190fd5b60156000601684815481101515612ff157fe5b90600052602060002001548152602001908152602001600020600c01600160068110151561301b57fe5b602081049091015460ff601f9092166101000a9004169050919050565b60085460ff1615613093576040805160e560020a62461bcd02815260206004820152600b60248201527f696e697469616c697a6564000000000000000000000000000000000000000000604482015290519081900360640190fd5b8a81146130d45760405160e560020a62461bcd028152600401808060200182810382526029815260200180615b036029913960400191505060405180910390fd5b6000881161312c576040805160e560020a62461bcd02815260206004820152601b60248201527f5f706572696f644475726174696f6e2063616e6e6f7420626520300000000000604482015290519081900360640190fd5b60008711613184576040805160e560020a62461bcd02815260206004820152601f60248201527f5f766f74696e67506572696f644c656e6774682063616e6e6f74206265203000604482015290519081900360640190fd5b670de0b6b3a76400008711156131ce5760405160e560020a62461bcd028152600401808060200182810382526021815260200180615be86021913960400191505060405180910390fd5b670de0b6b3a764000086111561322e576040805160e560020a62461bcd02815260206004820181905260248201527f5f6772616365506572696f644c656e6774682065786365656473206c696d6974604482015290519081900360640190fd5b60008411613286576040805160e560020a62461bcd02815260206004820152601a60248201527f5f64696c7574696f6e426f756e642063616e6e6f742062652030000000000000604482015290519081900360640190fd5b670de0b6b3a76400008411156132e6576040805160e560020a62461bcd02815260206004820152601c60248201527f5f64696c7574696f6e426f756e642065786365656473206c696d697400000000604482015290519081900360640190fd5b6000891161333e576040805160e560020a62461bcd02815260206004820181905260248201527f6e656564206174206c65617374206f6e6520617070726f76656420746f6b656e604482015290519081900360640190fd5b610190891115613398576040805160e560020a62461bcd02815260206004820152600f60248201527f746f6f206d616e7920746f6b656e730000000000000000000000000000000000604482015290519081900360640190fd5b828510156133da5760405160e560020a62461bcd028152600401808060200182810382526039815260200180615d4f6039913960400191505060405180910390fd5b898960008181106133e757fe5b90506020020135600160a060020a0316600860016101000a815481600160a060020a030219169083600160a060020a0316021790555060008090505b8b8110156136665760008d8d8381811061343957fe5b90506020020135600160a060020a0316600160a060020a0316141515156134aa576040805160e560020a62461bcd02815260206004820152601460248201527f73756d6d6f6e65722063616e6e6f742062652030000000000000000000000000604482015290519081900360640190fd5b6040805160c08101909152808e8e848181106134c257fe5b90506020020135600160a060020a0316600160a060020a0316815260200184848481811015156134ee57fe5b90506020020135815260200160008152602001600115158152602001600081526020016000815250601260008f8f85818110151561352857fe5b60209081029290920135600160a060020a039081168452838301949094525060409182016000208451815473ffffffffffffffffffffffffffffffffffffffff1916941693909317835583015160018301558201516002820155606082015160038201805460ff19169115159190911790556080820151600482015560a0909101516005909101558c8c828181106135bc57fe5b90506020020135600160a060020a0316601360008f8f8581811015156135de57fe5b90506020020135600160a060020a0316600160a060020a0316600160a060020a0316815260200190815260200160002060006101000a815481600160a060020a030219169083600160a060020a0316021790555061365b838383818110151561364357fe5b90506020020135600a5461556d90919063ffffffff16565b600a55600101613423565b50600a54670de0b6b3a764000010156136c9576040805160e560020a62461bcd02815260206004820152601960248201527f746f6f206d616e79207368617265732072657175657374656400000000000000604482015290519081900360640190fd5b60005b8981101561387f5760008b8b838181106136e257fe5b90506020020135600160a060020a0316600160a060020a031614151515613753576040805160e560020a62461bcd02815260206004820152601a60248201527f5f617070726f766564546f6b656e2063616e6e6f742062652030000000000000604482015290519081900360640190fd5b600e60008c8c8481811061376357fe5b60209081029290920135600160a060020a03168352508101919091526040016000205460ff16156137de576040805160e560020a62461bcd02815260206004820152601860248201527f6475706c696361746520617070726f76656420746f6b656e0000000000000000604482015290519081900360640190fd5b6001600e60008d8d858181106137f057fe5b60209081029290920135600160a060020a0316835250810191909152604001600020805460ff1916911515919091179055600f8b8b8381811061382f57fe5b8354600181810186556000958652602095869020909101805473ffffffffffffffffffffffffffffffffffffffff1916600160a060020a03969093029490940135949094161790915550016136cc565b5050506001958655600294909455600392909255600455600555600655426007556008805460ff1916909117905550505050565b60055481565b6138c1615742565b600082815260156020526040808220815160c081019283905292600c909101916006918390855b825461010083900a900460ff1615158152602060019283018181049485019490930390920291018084116138e8575094979650505050505050565b601480548290811061140257fe5b60015481565b6008546101009004600160a060020a031681565b60095481565b6000546002141561399a576040805160e560020a62461bcd02815260206004820152601f6024820152600080516020615977833981519152604482015290519081900360640190fd5b60026000908155600160a060020a038216815260126020526040902060058101541515613a11576040805160e560020a62461bcd02815260206004820152601660248201527f6d656d626572206d75737420626520696e206a61696c00000000000000000000604482015290519081900360640190fd5b6002810154600010613a6d576040805160e560020a62461bcd02815260206004820152601a60248201527f6d656d626572206d757374206861766520736f6d65206c6f6f74000000000000604482015290519081900360640190fd5b613a7a8160040154612f82565b1515613aba5760405160e560020a62461bcd02815260040180806020018281038252604d815260200180615997604d913960600191505060405180910390fd5b6111718260008360020154614c09565b60005460021415613b13576040805160e560020a62461bcd02815260206004820152601f6024820152600080516020615977833981519152604482015290519081900360640190fd5b60026000908155818152601560205260409020600c81015460ff1615613b6d5760405160e560020a62461bcd028152600401808060200182810382526023815260200180615c096023913960400191505060405180910390fd5b600c8101546301000000900460ff1615613bbb5760405160e560020a62461bcd028152600401808060200182810382526023815260200180615d036023913960400191505060405180910390fd5b6001810154600160a060020a03163314613c1f576040805160e560020a62461bcd02815260206004820152601e60248201527f736f6c656c79207468652070726f706f7365722063616e2063616e63656c0000604482015290519081900360640190fd5b600c8101805463ff00000019166301000000179055600181015460068201546005830154613c5f9261beef92600160a060020a03918216929116906155fb565b60408051338152905183917fc215fed6680bb02d323dc3f8b8f85241572607538426059c9232601bd293c3be919081900360200190a250506001600055565b60106020526000908152604090205460ff1681565b60005460021415613cfc576040805160e560020a62461bcd02815260206004820152601f6024820152600080516020615977833981519152604482015290519081900360640190fd5b6002600055613d0a81614f4a565b6000601682815481101515613d1b57fe5b60009182526020808320919091015480835260159091526040909120600c8101549192509065010000000000900460ff161515613da2576040805160e560020a62461bcd02815260206004820152601d60248201527f6d7573742062652061206775696c64206b69636b2070726f706f73616c000000604482015290519081900360640190fd5b600c8101805461ff0019166101001790556000613dbe846152cb565b90508015613e4e57600c8201805462ff00001916620100001790558154600160a060020a031660009081526012602052604090206005810185905560018101546002820154613e0c9161556d565b60028201556001810154600a54613e289163ffffffff61465e16565b600a556001810154600b54613e429163ffffffff61556d16565b600b5560006001909101555b8154600160a060020a039081166000908152601160205260409020805460ff191690556002830154613e80911661550c565b6040805182151581529051849186917f0e347d00d3e9e6cdff9e6c09092c9ff1bd448f9b3dfb7091b30939ec5e7a3c739181900360200190a3505060016000555050565b60005460021415613f0d576040805160e560020a62461bcd02815260206004820152601f6024820152600080516020615977833981519152604482015290519081900360640190fd5b6002600055613f1b81614f4a565b6000601682815481101515613f2c57fe5b60009182526020808320919091015480835260159091526040909120600c81015491925090640100000000900460ff16158015613f775750600c81015465010000000000900460ff16155b1515613fcd576040805160e560020a62461bcd02815260206004820152601b60248201527f6d7573742062652061207374616e646172642070726f706f73616c0000000000604482015290519081900360640190fd5b600c8101805461ff0019166101001790556000613fe9846152cb565b9050670de0b6b3a764000061401b83600401546129838560030154612983600b54600a5461556d90919063ffffffff16565b1115614025575060005b6008820154600160a060020a031660009081527fdc7fafdc41998a74ecacb8f8bd877011aba1f1d03a3a0d37a2e7879a393b1d6a602052604090205460078301541115614070575060005b600082600501541180156140bd57506006820154600160a060020a031660009081527fdc7fafdc41998a74ecacb8f8bd877011aba1f1d03a3a0d37a2e7879a393b1d6a6020526040902054155b80156140cc575060c8600c5410155b156140d5575060005b801561444857600c8201805462ff00001916620100001790558154600160a060020a031660009081526012602052604090206003015460ff16156141ac5760038201548254600160a060020a03166000908152601260205260409020600101546141449163ffffffff61556d16565b8254600160a060020a0390811660009081526012602052604080822060010193909355600485015485549092168152919091206002015461418a9163ffffffff61556d16565b8254600160a060020a0316600090815260126020526040902060020155614309565b8154600160a060020a03908116600090815260136020908152604080832054909316825260129052206003015460ff161561423d578154600160a060020a03908116600090815260136020908152604080832054909316808352838320805473ffffffffffffffffffffffffffffffffffffffff199081168317909155601290925292909120805490911690911790555b6040805160c0810182528354600160a060020a0390811680835260038087015460208086019182526004808a0154878901908152600160608901818152600060808b0181815260a08c01828152998252601287528c82209b518c54908c1673ffffffffffffffffffffffffffffffffffffffff19918216178d559751938c0193909355925160028b015551958901805496151560ff1990971696909617909555935190870155925160059095019490945586549092168083526013909152929020805490911690911790555b6003820154600a546143209163ffffffff61556d16565b600a556004820154600b5461433a9163ffffffff61556d16565b600b556006820154600160a060020a031660009081527fdc7fafdc41998a74ecacb8f8bd877011aba1f1d03a3a0d37a2e7879a393b1d6a602052604090205415801561438a575060008260050154115b1561439957600c805460010190555b600682015460058301546143be9161beef9161dead91600160a060020a0316906155fb565b8154600883015460078401546143e69261dead92600160a060020a03918216929116906155fb565b6008820154600160a060020a031660009081527fdc7fafdc41998a74ecacb8f8bd877011aba1f1d03a3a0d37a2e7879a393b1d6a6020526040902054158015614433575060008260070154115b1561444357600c80546000190190555b614473565b6001820154600683015460058401546144739261beef92600160a060020a03918216929116906155fb565b600282015461448a90600160a060020a031661550c565b6040805182151581529051849186917f86f74240ecee9e4230d26ff92e17fee978460d9c0f78f5c88b2864c9e7a494279181900360200190a3505060016000555050565b61beef81565b61dead81565b6000805460021415614524576040805160e560020a62461bcd02815260206004820152601f6024820152600080516020615977833981519152604482015290519081900360640190fd5b6002600055600160a060020a0383161515614589576040805160e560020a62461bcd02815260206004820152601a60248201527f6d7573742070726f7669646520746f6b656e2061646472657373000000000000604482015290519081900360640190fd5b600160a060020a0383166000908152600e602052604090205460ff16156145e45760405160e560020a62461bcd028152600401808060200182810382526029815260200180615d266029913960400191505060405180910390fd5b600f54610190116146295760405160e560020a62461bcd028152600401808060200182810382526026815260200180615c4d6026913960400191505060405180910390fd5b614631615742565b6001608082015261464a60008080808881808a8961484e565b505060095460001901600160005592915050565b60008282111561466d57600080fd5b50900390565b600080821161468157600080fd5b6000828481151561468e57fe5b04949350505050565b336000908152600d60209081526040808320600160a060020a0386168452909152902054811115614712576040805160e560020a62461bcd02815260206004820152601460248201527f696e73756666696369656e742062616c616e6365000000000000000000000000604482015290519081900360640190fd5b61471d338383615617565b604080517fa9059cbb000000000000000000000000000000000000000000000000000000008152336004820152602481018390529051600160a060020a0384169163a9059cbb9160448083019260209291908290030181600087803b15801561478557600080fd5b505af1158015614799573d6000803e3d6000fd5b505050506040513d60208110156147af57600080fd5b50511515614807576040805160e560020a62461bcd02815260206004820152600f60248201527f7472616e73666572206661696c65640000000000000000000000000000000000604482015290519081900360640190fd5b60408051600160a060020a038416815260208101839052815133927f9b1bfa7fa9ee420a16e124f794c35ac9f90472acc99140eb2f6447c714cad8eb928290030190a25050565b614856615761565b6101e0604051908101604052808b600160a060020a0316815260200133600160a060020a031681526020016000600160a060020a031681526020018a815260200189815260200188815260200187600160a060020a0316815260200186815260200185600160a060020a03168152602001600081526020016000815260200160008152602001838152602001848152602001600081525090508060156000600954815260200190815260200160002060008201518160000160006101000a815481600160a060020a030219169083600160a060020a0316021790555060208201518160010160006101000a815481600160a060020a030219169083600160a060020a0316021790555060408201518160020160006101000a815481600160a060020a030219169083600160a060020a03160217905550606082015181600301556080820151816004015560a0820151816005015560c08201518160060160006101000a815481600160a060020a030219169083600160a060020a0316021790555060e082015181600701556101008201518160080160006101000a815481600160a060020a030219169083600160a060020a03160217905550610120820151816009015561014082015181600a015561016082015181600b015561018082015181600c01906006614a4892919061580b565b506101a08201518051614a6591600d84019160209091019061589d565b506101c082015181600e015590505060006013600033600160a060020a0316600160a060020a0316815260200190815260200160002060009054906101000a9004600160a060020a0316905080600160a060020a031633600160a060020a03168c600160a060020a03167fa763e0f5e4f4e33a3397b4ba22677c9b6fd2075ed6504596333006ff2f3e38748d8d8d8d8d8d8d8d600954604051808a815260200189815260200188815260200187600160a060020a0316600160a060020a0316815260200186815260200185600160a060020a0316600160a060020a031681526020018060200184600660200280838360005b83811015614b6f578181015183820152602001614b57565b50505050905001838152602001828103825285818151815260200191508051906020019080838360005b83811015614bb1578181015183820152602001614b99565b50505050905090810190601f168015614bde5780820380516001836020036101000a031916815260200191505b509a505050505050505050505060405180910390a45050600980546001019055505050505050505050565b6000614c22600b54600a5461556d90919063ffffffff16565b600160a060020a0385166000908152601260205260409020600181015491925090841115614c9a576040805160e560020a62461bcd02815260206004820152601360248201527f696e73756666696369656e742073686172657300000000000000000000000000604482015290519081900360640190fd5b6002810154831115614cf6576040805160e560020a62461bcd02815260206004820152601160248201527f696e73756666696369656e74206c6f6f74000000000000000000000000000000604482015290519081900360640190fd5b614d038160040154612f82565b1515614d435760405160e560020a62461bcd02815260040180806020018281038252604d815260200180615997604d913960600191505060405180910390fd5b6000614d55858563ffffffff61556d16565b6001830154909150614d6d908663ffffffff61465e16565b60018301556002820154614d87908563ffffffff61465e16565b6002830155600a54614d9f908663ffffffff61465e16565b600a55600b54614db5908563ffffffff61465e16565b600b5560005b600f54811015614f075761dead6000908152600d602052600f8054614e35917fdc7fafdc41998a74ecacb8f8bd877011aba1f1d03a3a0d37a2e7879a393b1d6a9184919086908110614e0957fe5b6000918252602080832090910154600160a060020a031683528201929092526040019020548487615677565b90506000811115614efe5761dead6000908152600d602052600f805483927fdc7fafdc41998a74ecacb8f8bd877011aba1f1d03a3a0d37a2e7879a393b1d6a92909186908110614e8157fe5b6000918252602080832090910154600160a060020a0390811684528382019490945260409283018220805495909503909455918b168252600d909252908120600f80548493919086908110614ed257fe5b6000918252602080832090910154600160a060020a031683528201929092526040019020805490910190555b50600101614dbb565b506040805186815260208101869052815133927fcad1a1c68982832d9abc314de8a1e5d5e8c81b0588961e360766736d10c3be1a928290030190a2505050505050565b6016548110614fa3576040805160e560020a62461bcd02815260206004820152601760248201527f70726f706f73616c20646f6573206e6f74206578697374000000000000000000604482015290519081900360640190fd5b614fab615761565b60156000601684815481101515614fbe57fe5b6000918252602080832091909101548352828101939093526040918201812082516101e0810184528154600160a060020a039081168252600183015481169582019590955260028201548516818501526003820154606082015260048201546080820152600582015460a0820152600680830154861660c080840191909152600784015460e084015260088401549096166101008301526009830154610120830152600a830154610140830152600b83015461016083015284519586019485905290949193610180860193600c86019291908390855b825461010083900a900460ff16151581526020600192830181810494850194909303909202910180841161509457505050928452505050600d8201805460408051602060026001851615610100026000190190941693909304601f81018490048402820184019092528181529382019392918301828280156151575780601f1061512c57610100808354040283529160200191615157565b820191906000526020600020905b81548152906001019060200180831161513a57829003601f168201915b50505050508152602001600e82015481525050905061518c60035461298360025484610120015161556d90919063ffffffff16565b6151946110a7565b10156151d45760405160e560020a62461bcd0281526004018080602001828103825260258152602001806159e46025913960400191505060405180910390fd5b610180810151602001511561521d5760405160e560020a62461bcd028152600401808060200182810382526023815260200180615d886023913960400191505060405180910390fd5b811580615287575060156000601661523c85600163ffffffff61465e16565b8154811061524657fe5b90600052602060002001548152602001908152602001600020600c01600160068110151561527057fe5b602081049091015460ff601f9092166101000a9004165b15156152c75760405160e560020a62461bcd028152600401808060200182810382526023815260200180615a956023913960400191505060405180910390fd5b5050565b60006152d5615761565b601560006016858154811015156152e857fe5b6000918252602080832091909101548352828101939093526040918201812082516101e0810184528154600160a060020a039081168252600183015481169582019590955260028201548516818501526003820154606082015260048201546080820152600582015460a0820152600680830154861660c080840191909152600784015460e084015260088401549096166101008301526009830154610120830152600a830154610140830152600b83015461016083015284519586019485905290949193610180860193600c86019291908390855b825461010083900a900460ff1615158152602060019283018181049485019490930390920291018084116153be57505050928452505050600d8201805460408051602060026001851615610100026000190190941693909304601f81018490048402820184019092528181529382019392918301828280156154815780601f1061545657610100808354040283529160200191615481565b820191906000526020600020905b81548152906001019060200180831161546457829003601f168201915b50505050508152602001600e820154815250509050806101600151816101400151119150806101c001516154d46005546154c8600b54600a5461556d90919063ffffffff16565b9063ffffffff6156d516565b10156154df57600091505b8051600160a060020a03166000908152601260205260409020600501541561550657600091505b50919050565b61553161beef33600860019054906101000a9004600160a060020a03166006546155fb565b61556a61beef82600860019054906101000a9004600160a060020a031661556560065460045461465e90919063ffffffff16565b6155fb565b50565b60008282018381101561557f57600080fd5b9392505050565b600160a060020a039283166000908152600d602090815260408083209490951682529283528381208054830190557fa30f7a7832bd8a7a8daa3a3f5b7a6f7cec6a2fbb1a121fa5b76520e44736771c90925291902080549091019055565b6000818310156155f4578161557f565b5090919050565b615606848383615617565b615611838383615586565b50505050565b600160a060020a039283166000908152600d60209081526040808320949095168252928352838120805483900390557fa30f7a7832bd8a7a8daa3a3f5b7a6f7cec6a2fbb1a121fa5b76520e44736771c9092529190208054919091039055565b600081151561568557600080fd5b8315156156945750600061557f565b8383028385828115156156a357fe5b0414156156be5782818115156156b557fe5b0491505061557f565b8383868115156156ca57fe5b040295945050505050565b60008215156156e6575060006110a1565b8282028284828115156156f557fe5b041461557f57600080fd5b60c0604051908101604052806000600160a060020a03168152602001600081526020016000815260200160001515815260200160008152602001600081525090565b60c0604051908101604052806006906020820280388339509192915050565b610280604051908101604052806000600160a060020a031681526020016000600160a060020a031681526020016000600160a060020a031681526020016000815260200160008152602001600081526020016000600160a060020a03168152602001600081526020016000600160a060020a031681526020016000815260200160008152602001600081526020016157f7615742565b815260200160608152602001600081525090565b60018301918390821561588d5791602002820160005b8382111561585e57835183826101000a81548160ff0219169083151502179055509260200192600101602081600001049283019260010302615821565b801561588b5782816101000a81549060ff021916905560010160208160000104928301926001030261585e565b505b50615899929150615917565b5090565b828054600181600116156101000203166002900490600052602060002090601f016020900481019282601f106158de57805160ff191683800117855561590b565b8280016001018555821561590b579182015b8281111561590b5782518255916020019190600101906158f0565b50615899929150615935565b6110d391905b8082111561589957805460ff1916815560010161591d565b6110d391905b80821115615899576000815560010161593b56fe63616e6e6f74206f7665727772697465206578697374696e672064656c6567617465206b6579735265656e7472616e637947756172643a207265656e7472616e742063616c6c0063616e6e6f7420726167657175697420756e74696c206869676865737420696e6465782070726f706f73616c206d656d62657220766f74656420594553206f6e2069732070726f63657373656470726f706f73616c206973206e6f7420726561647920746f2062652070726f6365737365646170706c6963616e7420616464726573732063616e6e6f7420626520726573657276656463616e6e6f74207375626d6974206d6f726520747269627574652070726f706f73616c7320666f72206e657720746f6b656e73202d206775696c6462616e6b2069732066756c6c6d656d626572206d757374206e6f7420616c7265616479206265206a61696c656470726576696f75732070726f706f73616c206d7573742062652070726f636573736564746f6b656e20746f20636f6c6c656374206d7573742062652077686974656c697374656463616e6e6f742073706f6e736f72206d6f72652077686974656c6973742070726f706f73616c7373756d6d6f6e6572206c656e677468206d69736d6174636865732073756d6d6f6e65725368617265736d656d626572206d7573742068617665206174206c65617374206f6e65207368617265206f72206f6e65206c6f6f74746f6b656e7320616e6420616d6f756e747320617272617973206d757374206265206d61746368696e67206c656e67746873746f6b656e20746f20636f6c6c656374206d7573742068617665206e6f6e2d7a65726f206775696c642062616e6b2062616c616e636570726f706f73616c206170706c6963616e74206d757374206e6f74206265206a61696c65645f766f74696e67506572696f644c656e6774682065786365656473206c696d697470726f706f73616c2068617320616c7265616479206265656e2073706f6e736f72656463616e6e6f74206f7665727772697465206578697374696e67206d656d6265727363616e6e6f74207375626d6974206d6f72652077686974656c6973742070726f706f73616c7363616e6e6f742073706f6e736f72206d6f726520747269627574652070726f706f73616c7320666f72206e657720746f6b656e73202d206775696c6462616e6b2069732066756c6c70726f706f73616c206465706f73697420746f6b656e207472616e73666572206661696c656470726f706f73616c20766f74696e6720706572696f6420686173206578706972656470726f706f73616c2068617320616c7265616479206265656e2063616e63656c6c656463616e6e6f7420616c726561647920686176652077686974656c69737465642074686520746f6b656e5f70726f706f73616c4465706f7369742063616e6e6f7420626520736d616c6c6572207468616e205f70726f63657373696e6752657761726470726f706f73616c2068617320616c7265616479206265656e2070726f636573736564a165627a7a7230582071ecb41d37055100d83e0426aab733e7902f2a96d987f28f94d0bacb44729e740029",
          "opcodes": "PUSH1 0x80 PUSH1 0x40 MSTORE PUSH1 0x0 PUSH1 0x9 SSTORE PUSH1 0x0 PUSH1 0xA SSTORE PUSH1 0x0 PUSH1 0xB SSTORE PUSH1 0x0 PUSH1 0xC SSTORE PUSH1 0x1 PUSH1 0x0 DUP2 SWAP1 SSTORE POP PUSH2 0x5DD6 DUP1 PUSH2 0x2F PUSH1 0x0 CODECOPY PUSH1 0x0 RETURN INVALID PUSH1 0x80 PUSH1 0x40 MSTORE CALLVALUE DUP1 ISZERO PUSH2 0x10 JUMPI PUSH1 0x0 DUP1 REVERT JUMPDEST POP PUSH1 0x4 CALLDATASIZE LT PUSH2 0x348 JUMPI PUSH1 0x0 CALLDATALOAD PUSH29 0x100000000000000000000000000000000000000000000000000000000 SWAP1 DIV DUP1 PUSH4 0x78A89567 GT PUSH2 0x1CF JUMPI DUP1 PUSH4 0xB2643AAB GT PUSH2 0x116 JUMPI DUP1 PUSH4 0xE0A8F6F5 GT PUSH2 0xBF JUMPI DUP1 PUSH4 0xE63BC62D GT PUSH2 0x99 JUMPI DUP1 PUSH4 0xE63BC62D EQ PUSH2 0xD3B JUMPI DUP1 PUSH4 0xE681C4AA EQ PUSH2 0xD58 JUMPI DUP1 PUSH4 0xF5D54C77 EQ PUSH2 0xD60 JUMPI DUP1 PUSH4 0xFEB7EA1D EQ PUSH2 0xD68 JUMPI PUSH2 0x348 JUMP JUMPDEST DUP1 PUSH4 0xE0A8F6F5 EQ PUSH2 0xCDB JUMPI DUP1 PUSH4 0xE1780345 EQ PUSH2 0xCF8 JUMPI DUP1 PUSH4 0xE1A0E3FA EQ PUSH2 0xD1E JUMPI PUSH2 0x348 JUMP JUMPDEST DUP1 PUSH4 0xC89039C5 GT PUSH2 0xF0 JUMPI DUP1 PUSH4 0xC89039C5 EQ PUSH2 0xCA5 JUMPI DUP1 PUSH4 0xDA35C664 EQ PUSH2 0xCAD JUMPI DUP1 PUSH4 0xDFDD369E EQ PUSH2 0xCB5 JUMPI PUSH2 0x348 JUMP JUMPDEST DUP1 PUSH4 0xB2643AAB EQ PUSH2 0xC2B JUMPI DUP1 PUSH4 0xB307FC6D EQ PUSH2 0xC80 JUMPI DUP1 PUSH4 0xB470AADE EQ PUSH2 0xC9D JUMPI PUSH2 0x348 JUMP JUMPDEST DUP1 PUSH4 0x9746D940 GT PUSH2 0x178 JUMPI DUP1 PUSH4 0xA3DC3800 GT PUSH2 0x152 JUMPI DUP1 PUSH4 0xA3DC3800 EQ PUSH2 0xACD JUMPI DUP1 PUSH4 0xA9162619 EQ PUSH2 0xAEA JUMPI DUP1 PUSH4 0xAFE5475F EQ PUSH2 0xC23 JUMPI PUSH2 0x348 JUMP JUMPDEST DUP1 PUSH4 0x9746D940 EQ PUSH2 0xA82 JUMPI DUP1 PUSH4 0x99653FBE EQ PUSH2 0xA9F JUMPI DUP1 PUSH4 0x9D1722CB EQ PUSH2 0xAC5 JUMPI PUSH2 0x348 JUMP JUMPDEST DUP1 PUSH4 0x8340BBCE GT PUSH2 0x1A9 JUMPI DUP1 PUSH4 0x8340BBCE EQ PUSH2 0xA55 JUMPI DUP1 PUSH4 0x8B15A605 EQ PUSH2 0xA5D JUMPI DUP1 PUSH4 0x9425A476 EQ PUSH2 0xA65 JUMPI PUSH2 0x348 JUMP JUMPDEST DUP1 PUSH4 0x78A89567 EQ PUSH2 0xA3D JUMPI DUP1 PUSH4 0x797DAF70 EQ PUSH2 0xA45 JUMPI DUP1 PUSH4 0x7D5B6C72 EQ PUSH2 0xA4D JUMPI PUSH2 0x348 JUMP JUMPDEST DUP1 PUSH4 0x3A98EF39 GT PUSH2 0x293 JUMPI DUP1 PUSH4 0x590F940B GT PUSH2 0x23C JUMPI DUP1 PUSH4 0x63858F2D GT PUSH2 0x216 JUMPI DUP1 PUSH4 0x63858F2D EQ PUSH2 0x9E1 JUMPI DUP1 PUSH4 0x73F8FD4B EQ PUSH2 0x9E9 JUMPI DUP1 PUSH4 0x753D7563 EQ PUSH2 0xA17 JUMPI PUSH2 0x348 JUMP JUMPDEST DUP1 PUSH4 0x590F940B EQ PUSH2 0x8D3 JUMPI DUP1 PUSH4 0x59999B41 EQ PUSH2 0x9B3 JUMPI DUP1 PUSH4 0x635E99AA EQ PUSH2 0x9D9 JUMPI PUSH2 0x348 JUMP JUMPDEST DUP1 PUSH4 0x402C1794 GT PUSH2 0x26D JUMPI DUP1 PUSH4 0x402C1794 EQ PUSH2 0x756 JUMPI DUP1 PUSH4 0x4482394B EQ PUSH2 0x77C JUMPI DUP1 PUSH4 0x45F2D105 EQ PUSH2 0x8A5 JUMPI PUSH2 0x348 JUMP JUMPDEST DUP1 PUSH4 0x3A98EF39 EQ PUSH2 0x6F7 JUMPI DUP1 PUSH4 0x3B214A74 EQ PUSH2 0x6FF JUMPI DUP1 PUSH4 0x3FC24BBA EQ PUSH2 0x71C JUMPI PUSH2 0x348 JUMP JUMPDEST DUP1 PUSH4 0x115B2D18 GT PUSH2 0x2F5 JUMPI DUP1 PUSH4 0x2582BF2A GT PUSH2 0x2CF JUMPI DUP1 PUSH4 0x2582BF2A EQ PUSH2 0x6AC JUMPI DUP1 PUSH4 0x27EFC086 EQ PUSH2 0x6D2 JUMPI DUP1 PUSH4 0x3793AB3C EQ PUSH2 0x6DA JUMPI PUSH2 0x348 JUMP JUMPDEST DUP1 PUSH4 0x115B2D18 EQ PUSH2 0x59A JUMPI DUP1 PUSH4 0x15EB349E EQ PUSH2 0x650 JUMPI DUP1 PUSH4 0x1DAFEDE0 EQ PUSH2 0x673 JUMPI PUSH2 0x348 JUMP JUMPDEST DUP1 PUSH4 0x86146D2 GT PUSH2 0x326 JUMPI DUP1 PUSH4 0x86146D2 EQ PUSH2 0x501 JUMPI DUP1 PUSH4 0x8AE4B0C EQ PUSH2 0x509 JUMPI DUP1 PUSH4 0xCF20CC9 EQ PUSH2 0x56C JUMPI PUSH2 0x348 JUMP JUMPDEST DUP1 PUSH4 0x13CF08B EQ PUSH2 0x34D JUMPI DUP1 PUSH4 0x3E32FA1 EQ PUSH2 0x497 JUMPI DUP1 PUSH4 0x44A0CA8 EQ PUSH2 0x4B1 JUMPI JUMPDEST PUSH1 0x0 DUP1 REVERT JUMPDEST PUSH2 0x36A PUSH1 0x4 DUP1 CALLDATASIZE SUB PUSH1 0x20 DUP2 LT ISZERO PUSH2 0x363 JUMPI PUSH1 0x0 DUP1 REVERT JUMPDEST POP CALLDATALOAD PUSH2 0xE1E JUMP JUMPDEST PUSH1 0x40 MLOAD DUP1 DUP16 PUSH1 0x1 PUSH1 0xA0 PUSH1 0x2 EXP SUB AND PUSH1 0x1 PUSH1 0xA0 PUSH1 0x2 EXP SUB AND DUP2 MSTORE PUSH1 0x20 ADD DUP15 PUSH1 0x1 PUSH1 0xA0 PUSH1 0x2 EXP SUB AND PUSH1 0x1 PUSH1 0xA0 PUSH1 0x2 EXP SUB AND DUP2 MSTORE PUSH1 0x20 ADD DUP14 PUSH1 0x1 PUSH1 0xA0 PUSH1 0x2 EXP SUB AND PUSH1 0x1 PUSH1 0xA0 PUSH1 0x2 EXP SUB AND DUP2 MSTORE PUSH1 0x20 ADD DUP13 DUP2 MSTORE PUSH1 0x20 ADD DUP12 DUP2 MSTORE PUSH1 0x20 ADD DUP11 DUP2 MSTORE PUSH1 0x20 ADD DUP10 PUSH1 0x1 PUSH1 0xA0 PUSH1 0x2 EXP SUB AND PUSH1 0x1 PUSH1 0xA0 PUSH1 0x2 EXP SUB AND DUP2 MSTORE PUSH1 0x20 ADD DUP9 DUP2 MSTORE PUSH1 0x20 ADD DUP8 PUSH1 0x1 PUSH1 0xA0 PUSH1 0x2 EXP SUB AND PUSH1 0x1 PUSH1 0xA0 PUSH1 0x2 EXP SUB AND DUP2 MSTORE PUSH1 0x20 ADD DUP7 DUP2 MSTORE PUSH1 0x20 ADD DUP6 DUP2 MSTORE PUSH1 0x20 ADD DUP5 DUP2 MSTORE PUSH1 0x20 ADD DUP1 PUSH1 0x20 ADD DUP4 DUP2 MSTORE PUSH1 0x20 ADD DUP3 DUP2 SUB DUP3 MSTORE DUP5 DUP2 DUP2 MLOAD DUP2 MSTORE PUSH1 0x20 ADD SWAP2 POP DUP1 MLOAD SWAP1 PUSH1 0x20 ADD SWAP1 DUP1 DUP4 DUP4 PUSH1 0x0 JUMPDEST DUP4 DUP2 LT ISZERO PUSH2 0x44F JUMPI DUP2 DUP2 ADD MLOAD DUP4 DUP3 ADD MSTORE PUSH1 0x20 ADD PUSH2 0x437 JUMP JUMPDEST POP POP POP POP SWAP1 POP SWAP1 DUP2 ADD SWAP1 PUSH1 0x1F AND DUP1 ISZERO PUSH2 0x47C JUMPI DUP1 DUP3 SUB DUP1 MLOAD PUSH1 0x1 DUP4 PUSH1 0x20 SUB PUSH2 0x100 EXP SUB NOT AND DUP2 MSTORE PUSH1 0x20 ADD SWAP2 POP JUMPDEST POP SWAP16 POP POP POP POP POP POP POP POP POP POP POP POP POP POP POP POP PUSH1 0x40 MLOAD DUP1 SWAP2 SUB SWAP1 RETURN JUMPDEST PUSH2 0x49F PUSH2 0xF81 JUMP JUMPDEST PUSH1 0x40 DUP1 MLOAD SWAP2 DUP3 MSTORE MLOAD SWAP1 DUP2 SWAP1 SUB PUSH1 0x20 ADD SWAP1 RETURN JUMPDEST PUSH2 0x4DD PUSH1 0x4 DUP1 CALLDATASIZE SUB PUSH1 0x40 DUP2 LT ISZERO PUSH2 0x4C7 JUMPI PUSH1 0x0 DUP1 REVERT JUMPDEST POP PUSH1 0x1 PUSH1 0xA0 PUSH1 0x2 EXP SUB DUP2 CALLDATALOAD AND SWAP1 PUSH1 0x20 ADD CALLDATALOAD PUSH2 0xF87 JUMP JUMPDEST PUSH1 0x40 MLOAD DUP1 DUP3 PUSH1 0x2 DUP2 GT ISZERO PUSH2 0x4ED JUMPI INVALID JUMPDEST PUSH1 0xFF AND DUP2 MSTORE PUSH1 0x20 ADD SWAP2 POP POP PUSH1 0x40 MLOAD DUP1 SWAP2 SUB SWAP1 RETURN JUMPDEST PUSH2 0x49F PUSH2 0x10A7 JUMP JUMPDEST PUSH2 0x52F PUSH1 0x4 DUP1 CALLDATASIZE SUB PUSH1 0x20 DUP2 LT ISZERO PUSH2 0x51F JUMPI PUSH1 0x0 DUP1 REVERT JUMPDEST POP CALLDATALOAD PUSH1 0x1 PUSH1 0xA0 PUSH1 0x2 EXP SUB AND PUSH2 0x10D6 JUMP JUMPDEST PUSH1 0x40 DUP1 MLOAD PUSH1 0x1 PUSH1 0xA0 PUSH1 0x2 EXP SUB SWAP1 SWAP8 AND DUP8 MSTORE PUSH1 0x20 DUP8 ADD SWAP6 SWAP1 SWAP6 MSTORE DUP6 DUP6 ADD SWAP4 SWAP1 SWAP4 MSTORE SWAP1 ISZERO ISZERO PUSH1 0x60 DUP6 ADD MSTORE PUSH1 0x80 DUP5 ADD MSTORE PUSH1 0xA0 DUP4 ADD MSTORE MLOAD SWAP1 DUP2 SWAP1 SUB PUSH1 0xC0 ADD SWAP1 RETURN JUMPDEST PUSH2 0x598 PUSH1 0x4 DUP1 CALLDATASIZE SUB PUSH1 0x40 DUP2 LT ISZERO PUSH2 0x582 JUMPI PUSH1 0x0 DUP1 REVERT JUMPDEST POP PUSH1 0x1 PUSH1 0xA0 PUSH1 0x2 EXP SUB DUP2 CALLDATALOAD AND SWAP1 PUSH1 0x20 ADD CALLDATALOAD PUSH2 0x1119 JUMP JUMPDEST STOP JUMPDEST PUSH2 0x49F PUSH1 0x4 DUP1 CALLDATASIZE SUB PUSH1 0x40 DUP2 LT ISZERO PUSH2 0x5B0 JUMPI PUSH1 0x0 DUP1 REVERT JUMPDEST PUSH1 0x1 PUSH1 0xA0 PUSH1 0x2 EXP SUB DUP3 CALLDATALOAD AND SWAP2 SWAP1 DUP2 ADD SWAP1 PUSH1 0x40 DUP2 ADD PUSH1 0x20 DUP3 ADD CALLDATALOAD PUSH5 0x100000000 DUP2 GT ISZERO PUSH2 0x5DB JUMPI PUSH1 0x0 DUP1 REVERT JUMPDEST DUP3 ADD DUP4 PUSH1 0x20 DUP3 ADD GT ISZERO PUSH2 0x5ED JUMPI PUSH1 0x0 DUP1 REVERT JUMPDEST DUP1 CALLDATALOAD SWAP1 PUSH1 0x20 ADD SWAP2 DUP5 PUSH1 0x1 DUP4 MUL DUP5 ADD GT PUSH5 0x100000000 DUP4 GT OR ISZERO PUSH2 0x60F JUMPI PUSH1 0x0 DUP1 REVERT JUMPDEST SWAP2 SWAP1 DUP1 DUP1 PUSH1 0x1F ADD PUSH1 0x20 DUP1 SWAP2 DIV MUL PUSH1 0x20 ADD PUSH1 0x40 MLOAD SWAP1 DUP2 ADD PUSH1 0x40 MSTORE DUP1 SWAP4 SWAP3 SWAP2 SWAP1 DUP2 DUP2 MSTORE PUSH1 0x20 ADD DUP4 DUP4 DUP1 DUP3 DUP5 CALLDATACOPY PUSH1 0x0 SWAP3 ADD SWAP2 SWAP1 SWAP2 MSTORE POP SWAP3 SWAP6 POP PUSH2 0x117A SWAP5 POP POP POP POP POP JUMP JUMPDEST PUSH2 0x598 PUSH1 0x4 DUP1 CALLDATASIZE SUB PUSH1 0x40 DUP2 LT ISZERO PUSH2 0x666 JUMPI PUSH1 0x0 DUP1 REVERT JUMPDEST POP DUP1 CALLDATALOAD SWAP1 PUSH1 0x20 ADD CALLDATALOAD PUSH2 0x1317 JUMP JUMPDEST PUSH2 0x690 PUSH1 0x4 DUP1 CALLDATASIZE SUB PUSH1 0x20 DUP2 LT ISZERO PUSH2 0x689 JUMPI PUSH1 0x0 DUP1 REVERT JUMPDEST POP CALLDATALOAD PUSH2 0x13F4 JUMP JUMPDEST PUSH1 0x40 DUP1 MLOAD PUSH1 0x1 PUSH1 0xA0 PUSH1 0x2 EXP SUB SWAP1 SWAP3 AND DUP3 MSTORE MLOAD SWAP1 DUP2 SWAP1 SUB PUSH1 0x20 ADD SWAP1 RETURN JUMPDEST PUSH2 0x598 PUSH1 0x4 DUP1 CALLDATASIZE SUB PUSH1 0x20 DUP2 LT ISZERO PUSH2 0x6C2 JUMPI PUSH1 0x0 DUP1 REVERT JUMPDEST POP CALLDATALOAD PUSH1 0x1 PUSH1 0xA0 PUSH1 0x2 EXP SUB AND PUSH2 0x141C JUMP JUMPDEST PUSH2 0x690 PUSH2 0x16A7 JUMP JUMPDEST PUSH2 0x598 PUSH1 0x4 DUP1 CALLDATASIZE SUB PUSH1 0x20 DUP2 LT ISZERO PUSH2 0x6F0 JUMPI PUSH1 0x0 DUP1 REVERT JUMPDEST POP CALLDATALOAD PUSH2 0x16AD JUMP JUMPDEST PUSH2 0x49F PUSH2 0x18E0 JUMP JUMPDEST PUSH2 0x49F PUSH1 0x4 DUP1 CALLDATASIZE SUB PUSH1 0x20 DUP2 LT ISZERO PUSH2 0x715 JUMPI PUSH1 0x0 DUP1 REVERT JUMPDEST POP CALLDATALOAD PUSH2 0x18E6 JUMP JUMPDEST PUSH2 0x742 PUSH1 0x4 DUP1 CALLDATASIZE SUB PUSH1 0x20 DUP2 LT ISZERO PUSH2 0x732 JUMPI PUSH1 0x0 DUP1 REVERT JUMPDEST POP CALLDATALOAD PUSH1 0x1 PUSH1 0xA0 PUSH1 0x2 EXP SUB AND PUSH2 0x1905 JUMP JUMPDEST PUSH1 0x40 DUP1 MLOAD SWAP2 ISZERO ISZERO DUP3 MSTORE MLOAD SWAP1 DUP2 SWAP1 SUB PUSH1 0x20 ADD SWAP1 RETURN JUMPDEST PUSH2 0x690 PUSH1 0x4 DUP1 CALLDATASIZE SUB PUSH1 0x20 DUP2 LT ISZERO PUSH2 0x76C JUMPI PUSH1 0x0 DUP1 REVERT JUMPDEST POP CALLDATALOAD PUSH1 0x1 PUSH1 0xA0 PUSH1 0x2 EXP SUB AND PUSH2 0x191A JUMP JUMPDEST PUSH2 0x598 PUSH1 0x4 DUP1 CALLDATASIZE SUB PUSH1 0x60 DUP2 LT ISZERO PUSH2 0x792 JUMPI PUSH1 0x0 DUP1 REVERT JUMPDEST DUP2 ADD SWAP1 PUSH1 0x20 DUP2 ADD DUP2 CALLDATALOAD PUSH5 0x100000000 DUP2 GT ISZERO PUSH2 0x7AD JUMPI PUSH1 0x0 DUP1 REVERT JUMPDEST DUP3 ADD DUP4 PUSH1 0x20 DUP3 ADD GT ISZERO PUSH2 0x7BF JUMPI PUSH1 0x0 DUP1 REVERT JUMPDEST DUP1 CALLDATALOAD SWAP1 PUSH1 0x20 ADD SWAP2 DUP5 PUSH1 0x20 DUP4 MUL DUP5 ADD GT PUSH5 0x100000000 DUP4 GT OR ISZERO PUSH2 0x7E1 JUMPI PUSH1 0x0 DUP1 REVERT JUMPDEST SWAP2 SWAP1 DUP1 DUP1 PUSH1 0x20 MUL PUSH1 0x20 ADD PUSH1 0x40 MLOAD SWAP1 DUP2 ADD PUSH1 0x40 MSTORE DUP1 SWAP4 SWAP3 SWAP2 SWAP1 DUP2 DUP2 MSTORE PUSH1 0x20 ADD DUP4 DUP4 PUSH1 0x20 MUL DUP1 DUP3 DUP5 CALLDATACOPY PUSH1 0x0 SWAP3 ADD SWAP2 SWAP1 SWAP2 MSTORE POP SWAP3 SWAP6 SWAP5 SWAP4 PUSH1 0x20 DUP2 ADD SWAP4 POP CALLDATALOAD SWAP2 POP POP PUSH5 0x100000000 DUP2 GT ISZERO PUSH2 0x831 JUMPI PUSH1 0x0 DUP1 REVERT JUMPDEST DUP3 ADD DUP4 PUSH1 0x20 DUP3 ADD GT ISZERO PUSH2 0x843 JUMPI PUSH1 0x0 DUP1 REVERT JUMPDEST DUP1 CALLDATALOAD SWAP1 PUSH1 0x20 ADD SWAP2 DUP5 PUSH1 0x20 DUP4 MUL DUP5 ADD GT PUSH5 0x100000000 DUP4 GT OR ISZERO PUSH2 0x865 JUMPI PUSH1 0x0 DUP1 REVERT JUMPDEST SWAP2 SWAP1 DUP1 DUP1 PUSH1 0x20 MUL PUSH1 0x20 ADD PUSH1 0x40 MLOAD SWAP1 DUP2 ADD PUSH1 0x40 MSTORE DUP1 SWAP4 SWAP3 SWAP2 SWAP1 DUP2 DUP2 MSTORE PUSH1 0x20 ADD DUP4 DUP4 PUSH1 0x20 MUL DUP1 DUP3 DUP5 CALLDATACOPY PUSH1 0x0 SWAP3 ADD SWAP2 SWAP1 SWAP2 MSTORE POP SWAP3 SWAP6 POP POP POP POP CALLDATALOAD ISZERO ISZERO SWAP1 POP PUSH2 0x1935 JUMP JUMPDEST PUSH2 0x49F PUSH1 0x4 DUP1 CALLDATASIZE SUB PUSH1 0x40 DUP2 LT ISZERO PUSH2 0x8BB JUMPI PUSH1 0x0 DUP1 REVERT JUMPDEST POP PUSH1 0x1 PUSH1 0xA0 PUSH1 0x2 EXP SUB DUP2 CALLDATALOAD DUP2 AND SWAP2 PUSH1 0x20 ADD CALLDATALOAD AND PUSH2 0x1A77 JUMP JUMPDEST PUSH2 0x49F PUSH1 0x4 DUP1 CALLDATASIZE SUB PUSH2 0x100 DUP2 LT ISZERO PUSH2 0x8EA JUMPI PUSH1 0x0 DUP1 REVERT JUMPDEST PUSH1 0x1 PUSH1 0xA0 PUSH1 0x2 EXP SUB DUP3 CALLDATALOAD DUP2 AND SWAP3 PUSH1 0x20 DUP2 ADD CALLDATALOAD SWAP3 PUSH1 0x40 DUP3 ADD CALLDATALOAD SWAP3 PUSH1 0x60 DUP4 ADD CALLDATALOAD SWAP3 PUSH1 0x80 DUP2 ADD CALLDATALOAD DUP3 AND SWAP3 PUSH1 0xA0 DUP3 ADD CALLDATALOAD SWAP3 PUSH1 0xC0 DUP4 ADD CALLDATALOAD AND SWAP2 SWAP1 DUP2 ADD SWAP1 PUSH2 0x100 DUP2 ADD PUSH1 0xE0 DUP3 ADD CALLDATALOAD PUSH5 0x100000000 DUP2 GT ISZERO PUSH2 0x93E JUMPI PUSH1 0x0 DUP1 REVERT JUMPDEST DUP3 ADD DUP4 PUSH1 0x20 DUP3 ADD GT ISZERO PUSH2 0x950 JUMPI PUSH1 0x0 DUP1 REVERT JUMPDEST DUP1 CALLDATALOAD SWAP1 PUSH1 0x20 ADD SWAP2 DUP5 PUSH1 0x1 DUP4 MUL DUP5 ADD GT PUSH5 0x100000000 DUP4 GT OR ISZERO PUSH2 0x972 JUMPI PUSH1 0x0 DUP1 REVERT JUMPDEST SWAP2 SWAP1 DUP1 DUP1 PUSH1 0x1F ADD PUSH1 0x20 DUP1 SWAP2 DIV MUL PUSH1 0x20 ADD PUSH1 0x40 MLOAD SWAP1 DUP2 ADD PUSH1 0x40 MSTORE DUP1 SWAP4 SWAP3 SWAP2 SWAP1 DUP2 DUP2 MSTORE PUSH1 0x20 ADD DUP4 DUP4 DUP1 DUP3 DUP5 CALLDATACOPY PUSH1 0x0 SWAP3 ADD SWAP2 SWAP1 SWAP2 MSTORE POP SWAP3 SWAP6 POP PUSH2 0x1A94 SWAP5 POP POP POP POP POP JUMP JUMPDEST PUSH2 0x598 PUSH1 0x4 DUP1 CALLDATASIZE SUB PUSH1 0x20 DUP2 LT ISZERO PUSH2 0x9C9 JUMPI PUSH1 0x0 DUP1 REVERT JUMPDEST POP CALLDATALOAD PUSH1 0x1 PUSH1 0xA0 PUSH1 0x2 EXP SUB AND PUSH2 0x1F2C JUMP JUMPDEST PUSH2 0x49F PUSH2 0x229B JUMP JUMPDEST PUSH2 0x49F PUSH2 0x22A1 JUMP JUMPDEST PUSH2 0x49F PUSH1 0x4 DUP1 CALLDATASIZE SUB PUSH1 0x40 DUP2 LT ISZERO PUSH2 0x9FF JUMPI PUSH1 0x0 DUP1 REVERT JUMPDEST POP PUSH1 0x1 PUSH1 0xA0 PUSH1 0x2 EXP SUB DUP2 CALLDATALOAD DUP2 AND SWAP2 PUSH1 0x20 ADD CALLDATALOAD AND PUSH2 0x22A7 JUMP JUMPDEST PUSH2 0x742 PUSH1 0x4 DUP1 CALLDATASIZE SUB PUSH1 0x20 DUP2 LT ISZERO PUSH2 0xA2D JUMPI PUSH1 0x0 DUP1 REVERT JUMPDEST POP CALLDATALOAD PUSH1 0x1 PUSH1 0xA0 PUSH1 0x2 EXP SUB AND PUSH2 0x22D2 JUMP JUMPDEST PUSH2 0x49F PUSH2 0x22E7 JUMP JUMPDEST PUSH2 0x49F PUSH2 0x22ED JUMP JUMPDEST PUSH2 0x49F PUSH2 0x22F3 JUMP JUMPDEST PUSH2 0x49F PUSH2 0x22F9 JUMP JUMPDEST PUSH2 0x49F PUSH2 0x22FF JUMP JUMPDEST PUSH2 0x742 PUSH1 0x4 DUP1 CALLDATASIZE SUB PUSH1 0x20 DUP2 LT ISZERO PUSH2 0xA7B JUMPI PUSH1 0x0 DUP1 REVERT JUMPDEST POP CALLDATALOAD PUSH2 0x2305 JUMP JUMPDEST PUSH2 0x598 PUSH1 0x4 DUP1 CALLDATASIZE SUB PUSH1 0x20 DUP2 LT ISZERO PUSH2 0xA98 JUMPI PUSH1 0x0 DUP1 REVERT JUMPDEST POP CALLDATALOAD PUSH2 0x232C JUMP JUMPDEST PUSH2 0x598 PUSH1 0x4 DUP1 CALLDATASIZE SUB PUSH1 0x40 DUP2 LT ISZERO PUSH2 0xAB5 JUMPI PUSH1 0x0 DUP1 REVERT JUMPDEST POP DUP1 CALLDATALOAD SWAP1 PUSH1 0x20 ADD CALLDATALOAD PUSH1 0xFF AND PUSH2 0x2A7A JUMP JUMPDEST PUSH2 0x49F PUSH2 0x2F7C JUMP JUMPDEST PUSH2 0x742 PUSH1 0x4 DUP1 CALLDATASIZE SUB PUSH1 0x20 DUP2 LT ISZERO PUSH2 0xAE3 JUMPI PUSH1 0x0 DUP1 REVERT JUMPDEST POP CALLDATALOAD PUSH2 0x2F82 JUMP JUMPDEST PUSH2 0x598 PUSH1 0x4 DUP1 CALLDATASIZE SUB PUSH2 0x120 DUP2 LT ISZERO PUSH2 0xB01 JUMPI PUSH1 0x0 DUP1 REVERT JUMPDEST DUP2 ADD SWAP1 PUSH1 0x20 DUP2 ADD DUP2 CALLDATALOAD PUSH5 0x100000000 DUP2 GT ISZERO PUSH2 0xB1C JUMPI PUSH1 0x0 DUP1 REVERT JUMPDEST DUP3 ADD DUP4 PUSH1 0x20 DUP3 ADD GT ISZERO PUSH2 0xB2E JUMPI PUSH1 0x0 DUP1 REVERT JUMPDEST DUP1 CALLDATALOAD SWAP1 PUSH1 0x20 ADD SWAP2 DUP5 PUSH1 0x20 DUP4 MUL DUP5 ADD GT PUSH5 0x100000000 DUP4 GT OR ISZERO PUSH2 0xB50 JUMPI PUSH1 0x0 DUP1 REVERT JUMPDEST SWAP2 SWAP4 SWAP1 SWAP3 SWAP1 SWAP2 PUSH1 0x20 DUP2 ADD SWAP1 CALLDATALOAD PUSH5 0x100000000 DUP2 GT ISZERO PUSH2 0xB6E JUMPI PUSH1 0x0 DUP1 REVERT JUMPDEST DUP3 ADD DUP4 PUSH1 0x20 DUP3 ADD GT ISZERO PUSH2 0xB80 JUMPI PUSH1 0x0 DUP1 REVERT JUMPDEST DUP1 CALLDATALOAD SWAP1 PUSH1 0x20 ADD SWAP2 DUP5 PUSH1 0x20 DUP4 MUL DUP5 ADD GT PUSH5 0x100000000 DUP4 GT OR ISZERO PUSH2 0xBA2 JUMPI PUSH1 0x0 DUP1 REVERT JUMPDEST SWAP2 SWAP4 SWAP1 SWAP3 DUP3 CALLDATALOAD SWAP3 PUSH1 0x20 DUP2 ADD CALLDATALOAD SWAP3 PUSH1 0x40 DUP3 ADD CALLDATALOAD SWAP3 PUSH1 0x60 DUP4 ADD CALLDATALOAD SWAP3 PUSH1 0x80 DUP2 ADD CALLDATALOAD SWAP3 PUSH1 0xA0 DUP3 ADD CALLDATALOAD SWAP3 SWAP1 SWAP2 PUSH1 0xE0 DUP2 ADD SWAP1 PUSH1 0xC0 ADD CALLDATALOAD PUSH5 0x100000000 DUP2 GT ISZERO PUSH2 0xBE4 JUMPI PUSH1 0x0 DUP1 REVERT JUMPDEST DUP3 ADD DUP4 PUSH1 0x20 DUP3 ADD GT ISZERO PUSH2 0xBF6 JUMPI PUSH1 0x0 DUP1 REVERT JUMPDEST DUP1 CALLDATALOAD SWAP1 PUSH1 0x20 ADD SWAP2 DUP5 PUSH1 0x20 DUP4 MUL DUP5 ADD GT PUSH5 0x100000000 DUP4 GT OR ISZERO PUSH2 0xC18 JUMPI PUSH1 0x0 DUP1 REVERT JUMPDEST POP SWAP1 SWAP3 POP SWAP1 POP PUSH2 0x3038 JUMP JUMPDEST PUSH2 0x49F PUSH2 0x38B3 JUMP JUMPDEST PUSH2 0xC48 PUSH1 0x4 DUP1 CALLDATASIZE SUB PUSH1 0x20 DUP2 LT ISZERO PUSH2 0xC41 JUMPI PUSH1 0x0 DUP1 REVERT JUMPDEST POP CALLDATALOAD PUSH2 0x38B9 JUMP JUMPDEST PUSH1 0x40 MLOAD DUP1 DUP3 PUSH1 0xC0 DUP1 DUP4 DUP4 PUSH1 0x0 JUMPDEST DUP4 DUP2 LT ISZERO PUSH2 0xC6D JUMPI DUP2 DUP2 ADD MLOAD DUP4 DUP3 ADD MSTORE PUSH1 0x20 ADD PUSH2 0xC55 JUMP JUMPDEST POP POP POP POP SWAP1 POP ADD SWAP2 POP POP PUSH1 0x40 MLOAD DUP1 SWAP2 SUB SWAP1 RETURN JUMPDEST PUSH2 0x690 PUSH1 0x4 DUP1 CALLDATASIZE SUB PUSH1 0x20 DUP2 LT ISZERO PUSH2 0xC96 JUMPI PUSH1 0x0 DUP1 REVERT JUMPDEST POP CALLDATALOAD PUSH2 0x3923 JUMP JUMPDEST PUSH2 0x49F PUSH2 0x3931 JUMP JUMPDEST PUSH2 0x690 PUSH2 0x3937 JUMP JUMPDEST PUSH2 0x49F PUSH2 0x394B JUMP JUMPDEST PUSH2 0x598 PUSH1 0x4 DUP1 CALLDATASIZE SUB PUSH1 0x20 DUP2 LT ISZERO PUSH2 0xCCB JUMPI PUSH1 0x0 DUP1 REVERT JUMPDEST POP CALLDATALOAD PUSH1 0x1 PUSH1 0xA0 PUSH1 0x2 EXP SUB AND PUSH2 0x3951 JUMP JUMPDEST PUSH2 0x598 PUSH1 0x4 DUP1 CALLDATASIZE SUB PUSH1 0x20 DUP2 LT ISZERO PUSH2 0xCF1 JUMPI PUSH1 0x0 DUP1 REVERT JUMPDEST POP CALLDATALOAD PUSH2 0x3ACA JUMP JUMPDEST PUSH2 0x742 PUSH1 0x4 DUP1 CALLDATASIZE SUB PUSH1 0x20 DUP2 LT ISZERO PUSH2 0xD0E JUMPI PUSH1 0x0 DUP1 REVERT JUMPDEST POP CALLDATALOAD PUSH1 0x1 PUSH1 0xA0 PUSH1 0x2 EXP SUB AND PUSH2 0x3C9E JUMP JUMPDEST PUSH2 0x598 PUSH1 0x4 DUP1 CALLDATASIZE SUB PUSH1 0x20 DUP2 LT ISZERO PUSH2 0xD34 JUMPI PUSH1 0x0 DUP1 REVERT JUMPDEST POP CALLDATALOAD PUSH2 0x3CB3 JUMP JUMPDEST PUSH2 0x598 PUSH1 0x4 DUP1 CALLDATASIZE SUB PUSH1 0x20 DUP2 LT ISZERO PUSH2 0xD51 JUMPI PUSH1 0x0 DUP1 REVERT JUMPDEST POP CALLDATALOAD PUSH2 0x3EC4 JUMP JUMPDEST PUSH2 0x690 PUSH2 0x44CE JUMP JUMPDEST PUSH2 0x690 PUSH2 0x44D4 JUMP JUMPDEST PUSH2 0x49F PUSH1 0x4 DUP1 CALLDATASIZE SUB PUSH1 0x40 DUP2 LT ISZERO PUSH2 0xD7E JUMPI PUSH1 0x0 DUP1 REVERT JUMPDEST PUSH1 0x1 PUSH1 0xA0 PUSH1 0x2 EXP SUB DUP3 CALLDATALOAD AND SWAP2 SWAP1 DUP2 ADD SWAP1 PUSH1 0x40 DUP2 ADD PUSH1 0x20 DUP3 ADD CALLDATALOAD PUSH5 0x100000000 DUP2 GT ISZERO PUSH2 0xDA9 JUMPI PUSH1 0x0 DUP1 REVERT JUMPDEST DUP3 ADD DUP4 PUSH1 0x20 DUP3 ADD GT ISZERO PUSH2 0xDBB JUMPI PUSH1 0x0 DUP1 REVERT JUMPDEST DUP1 CALLDATALOAD SWAP1 PUSH1 0x20 ADD SWAP2 DUP5 PUSH1 0x1 DUP4 MUL DUP5 ADD GT PUSH5 0x100000000 DUP4 GT OR ISZERO PUSH2 0xDDD JUMPI PUSH1 0x0 DUP1 REVERT JUMPDEST SWAP2 SWAP1 DUP1 DUP1 PUSH1 0x1F ADD PUSH1 0x20 DUP1 SWAP2 DIV MUL PUSH1 0x20 ADD PUSH1 0x40 MLOAD SWAP1 DUP2 ADD PUSH1 0x40 MSTORE DUP1 SWAP4 SWAP3 SWAP2 SWAP1 DUP2 DUP2 MSTORE PUSH1 0x20 ADD DUP4 DUP4 DUP1 DUP3 DUP5 CALLDATACOPY PUSH1 0x0 SWAP3 ADD SWAP2 SWAP1 SWAP2 MSTORE POP SWAP3 SWAP6 POP PUSH2 0x44DA SWAP5 POP POP POP POP POP JUMP JUMPDEST PUSH1 0x15 PUSH1 0x20 MSTORE DUP1 PUSH1 0x0 MSTORE PUSH1 0x40 PUSH1 0x0 KECCAK256 PUSH1 0x0 SWAP2 POP SWAP1 POP DUP1 PUSH1 0x0 ADD PUSH1 0x0 SWAP1 SLOAD SWAP1 PUSH2 0x100 EXP SWAP1 DIV PUSH1 0x1 PUSH1 0xA0 PUSH1 0x2 EXP SUB AND SWAP1 DUP1 PUSH1 0x1 ADD PUSH1 0x0 SWAP1 SLOAD SWAP1 PUSH2 0x100 EXP SWAP1 DIV PUSH1 0x1 PUSH1 0xA0 PUSH1 0x2 EXP SUB AND SWAP1 DUP1 PUSH1 0x2 ADD PUSH1 0x0 SWAP1 SLOAD SWAP1 PUSH2 0x100 EXP SWAP1 DIV PUSH1 0x1 PUSH1 0xA0 PUSH1 0x2 EXP SUB AND SWAP1 DUP1 PUSH1 0x3 ADD SLOAD SWAP1 DUP1 PUSH1 0x4 ADD SLOAD SWAP1 DUP1 PUSH1 0x5 ADD SLOAD SWAP1 DUP1 PUSH1 0x6 ADD PUSH1 0x0 SWAP1 SLOAD SWAP1 PUSH2 0x100 EXP SWAP1 DIV PUSH1 0x1 PUSH1 0xA0 PUSH1 0x2 EXP SUB AND SWAP1 DUP1 PUSH1 0x7 ADD SLOAD SWAP1 DUP1 PUSH1 0x8 ADD PUSH1 0x0 SWAP1 SLOAD SWAP1 PUSH2 0x100 EXP SWAP1 DIV PUSH1 0x1 PUSH1 0xA0 PUSH1 0x2 EXP SUB AND SWAP1 DUP1 PUSH1 0x9 ADD SLOAD SWAP1 DUP1 PUSH1 0xA ADD SLOAD SWAP1 DUP1 PUSH1 0xB ADD SLOAD SWAP1 DUP1 PUSH1 0xD ADD DUP1 SLOAD PUSH1 0x1 DUP2 PUSH1 0x1 AND ISZERO PUSH2 0x100 MUL SUB AND PUSH1 0x2 SWAP1 DIV DUP1 PUSH1 0x1F ADD PUSH1 0x20 DUP1 SWAP2 DIV MUL PUSH1 0x20 ADD PUSH1 0x40 MLOAD SWAP1 DUP2 ADD PUSH1 0x40 MSTORE DUP1 SWAP3 SWAP2 SWAP1 DUP2 DUP2 MSTORE PUSH1 0x20 ADD DUP3 DUP1 SLOAD PUSH1 0x1 DUP2 PUSH1 0x1 AND ISZERO PUSH2 0x100 MUL SUB AND PUSH1 0x2 SWAP1 DIV DUP1 ISZERO PUSH2 0xF71 JUMPI DUP1 PUSH1 0x1F LT PUSH2 0xF46 JUMPI PUSH2 0x100 DUP1 DUP4 SLOAD DIV MUL DUP4 MSTORE SWAP2 PUSH1 0x20 ADD SWAP2 PUSH2 0xF71 JUMP JUMPDEST DUP3 ADD SWAP2 SWAP1 PUSH1 0x0 MSTORE PUSH1 0x20 PUSH1 0x0 KECCAK256 SWAP1 JUMPDEST DUP2 SLOAD DUP2 MSTORE SWAP1 PUSH1 0x1 ADD SWAP1 PUSH1 0x20 ADD DUP1 DUP4 GT PUSH2 0xF54 JUMPI DUP3 SWAP1 SUB PUSH1 0x1F AND DUP3 ADD SWAP2 JUMPDEST POP POP POP POP POP SWAP1 DUP1 PUSH1 0xE ADD SLOAD SWAP1 POP DUP15 JUMP JUMPDEST PUSH1 0x6 SLOAD DUP2 JUMP JUMPDEST PUSH1 0x1 PUSH1 0xA0 PUSH1 0x2 EXP SUB DUP3 AND PUSH1 0x0 SWAP1 DUP2 MSTORE PUSH1 0x12 PUSH1 0x20 MSTORE PUSH1 0x40 DUP2 KECCAK256 PUSH1 0x3 ADD SLOAD PUSH1 0xFF AND ISZERO ISZERO PUSH2 0xFFC JUMPI PUSH1 0x40 DUP1 MLOAD PUSH1 0xE5 PUSH1 0x2 EXP PUSH3 0x461BCD MUL DUP2 MSTORE PUSH1 0x20 PUSH1 0x4 DUP3 ADD MSTORE PUSH1 0x15 PUSH1 0x24 DUP3 ADD MSTORE PUSH32 0x6D656D62657220646F6573206E6F742065786973740000000000000000000000 PUSH1 0x44 DUP3 ADD MSTORE SWAP1 MLOAD SWAP1 DUP2 SWAP1 SUB PUSH1 0x64 ADD SWAP1 REVERT JUMPDEST PUSH1 0x16 SLOAD DUP3 LT PUSH2 0x1055 JUMPI PUSH1 0x40 DUP1 MLOAD PUSH1 0xE5 PUSH1 0x2 EXP PUSH3 0x461BCD MUL DUP2 MSTORE PUSH1 0x20 PUSH1 0x4 DUP3 ADD MSTORE PUSH1 0x17 PUSH1 0x24 DUP3 ADD MSTORE PUSH32 0x70726F706F73616C20646F6573206E6F74206578697374000000000000000000 PUSH1 0x44 DUP3 ADD MSTORE SWAP1 MLOAD SWAP1 DUP2 SWAP1 SUB PUSH1 0x64 ADD SWAP1 REVERT JUMPDEST PUSH1 0x15 PUSH1 0x0 PUSH1 0x16 DUP5 DUP2 SLOAD DUP2 LT ISZERO ISZERO PUSH2 0x1068 JUMPI INVALID JUMPDEST PUSH1 0x0 SWAP2 DUP3 MSTORE PUSH1 0x20 DUP1 DUP4 KECCAK256 SWAP1 SWAP2 ADD SLOAD DUP4 MSTORE DUP3 DUP2 ADD SWAP4 SWAP1 SWAP4 MSTORE PUSH1 0x40 SWAP2 DUP3 ADD DUP2 KECCAK256 PUSH1 0x1 PUSH1 0xA0 PUSH1 0x2 EXP SUB DUP8 AND DUP3 MSTORE PUSH1 0xF ADD SWAP1 SWAP3 MSTORE SWAP1 KECCAK256 SLOAD PUSH1 0xFF AND SWAP1 POP JUMPDEST SWAP3 SWAP2 POP POP JUMP JUMPDEST PUSH1 0x0 PUSH2 0x10D0 PUSH1 0x1 SLOAD PUSH2 0x10C4 PUSH1 0x7 SLOAD TIMESTAMP PUSH2 0x465E SWAP1 SWAP2 SWAP1 PUSH4 0xFFFFFFFF AND JUMP JUMPDEST SWAP1 PUSH4 0xFFFFFFFF PUSH2 0x4673 AND JUMP JUMPDEST SWAP1 POP JUMPDEST SWAP1 JUMP JUMPDEST PUSH1 0x12 PUSH1 0x20 MSTORE PUSH1 0x0 SWAP1 DUP2 MSTORE PUSH1 0x40 SWAP1 KECCAK256 DUP1 SLOAD PUSH1 0x1 DUP3 ADD SLOAD PUSH1 0x2 DUP4 ADD SLOAD PUSH1 0x3 DUP5 ADD SLOAD PUSH1 0x4 DUP6 ADD SLOAD PUSH1 0x5 SWAP1 SWAP6 ADD SLOAD PUSH1 0x1 PUSH1 0xA0 PUSH1 0x2 EXP SUB SWAP1 SWAP5 AND SWAP5 SWAP3 SWAP4 SWAP2 SWAP3 PUSH1 0xFF SWAP1 SWAP2 AND SWAP2 DUP7 JUMP JUMPDEST PUSH1 0x0 SLOAD PUSH1 0x2 EQ ISZERO PUSH2 0x1162 JUMPI PUSH1 0x40 DUP1 MLOAD PUSH1 0xE5 PUSH1 0x2 EXP PUSH3 0x461BCD MUL DUP2 MSTORE PUSH1 0x20 PUSH1 0x4 DUP3 ADD MSTORE PUSH1 0x1F PUSH1 0x24 DUP3 ADD MSTORE PUSH1 0x0 DUP1 MLOAD PUSH1 0x20 PUSH2 0x5977 DUP4 CODECOPY DUP2 MLOAD SWAP2 MSTORE PUSH1 0x44 DUP3 ADD MSTORE SWAP1 MLOAD SWAP1 DUP2 SWAP1 SUB PUSH1 0x64 ADD SWAP1 REVERT JUMPDEST PUSH1 0x2 PUSH1 0x0 SSTORE PUSH2 0x1171 DUP3 DUP3 PUSH2 0x4697 JUMP JUMPDEST POP POP PUSH1 0x1 PUSH1 0x0 SSTORE JUMP JUMPDEST PUSH1 0x0 DUP1 SLOAD PUSH1 0x2 EQ ISZERO PUSH2 0x11C4 JUMPI PUSH1 0x40 DUP1 MLOAD PUSH1 0xE5 PUSH1 0x2 EXP PUSH3 0x461BCD MUL DUP2 MSTORE PUSH1 0x20 PUSH1 0x4 DUP3 ADD MSTORE PUSH1 0x1F PUSH1 0x24 DUP3 ADD MSTORE PUSH1 0x0 DUP1 MLOAD PUSH1 0x20 PUSH2 0x5977 DUP4 CODECOPY DUP2 MLOAD SWAP2 MSTORE PUSH1 0x44 DUP3 ADD MSTORE SWAP1 MLOAD SWAP1 DUP2 SWAP1 SUB PUSH1 0x64 ADD SWAP1 REVERT JUMPDEST PUSH1 0x2 PUSH1 0x0 SSTORE PUSH2 0x11D1 PUSH2 0x5700 JUMP JUMPDEST POP PUSH1 0x1 PUSH1 0xA0 PUSH1 0x2 EXP SUB DUP1 DUP5 AND PUSH1 0x0 SWAP1 DUP2 MSTORE PUSH1 0x12 PUSH1 0x20 SWAP1 DUP2 MSTORE PUSH1 0x40 DUP1 DUP4 KECCAK256 DUP2 MLOAD PUSH1 0xC0 DUP2 ADD DUP4 MSTORE DUP2 SLOAD SWAP1 SWAP6 AND DUP6 MSTORE PUSH1 0x1 DUP2 ADD SLOAD SWAP3 DUP6 ADD DUP4 SWAP1 MSTORE PUSH1 0x2 DUP2 ADD SLOAD SWAP2 DUP6 ADD SWAP2 SWAP1 SWAP2 MSTORE PUSH1 0x3 DUP2 ADD SLOAD PUSH1 0xFF AND ISZERO ISZERO PUSH1 0x60 DUP6 ADD MSTORE PUSH1 0x4 DUP2 ADD SLOAD PUSH1 0x80 DUP6 ADD MSTORE PUSH1 0x5 ADD SLOAD PUSH1 0xA0 DUP5 ADD MSTORE GT DUP1 PUSH2 0x1246 JUMPI POP PUSH1 0x0 DUP2 PUSH1 0x40 ADD MLOAD GT JUMPDEST ISZERO ISZERO PUSH2 0x1286 JUMPI PUSH1 0x40 MLOAD PUSH1 0xE5 PUSH1 0x2 EXP PUSH3 0x461BCD MUL DUP2 MSTORE PUSH1 0x4 ADD DUP1 DUP1 PUSH1 0x20 ADD DUP3 DUP2 SUB DUP3 MSTORE PUSH1 0x2F DUP2 MSTORE PUSH1 0x20 ADD DUP1 PUSH2 0x5B2C PUSH1 0x2F SWAP2 CODECOPY PUSH1 0x40 ADD SWAP2 POP POP PUSH1 0x40 MLOAD DUP1 SWAP2 SUB SWAP1 REVERT JUMPDEST PUSH1 0x1 PUSH1 0xA0 PUSH1 0x2 EXP SUB DUP5 AND PUSH1 0x0 SWAP1 DUP2 MSTORE PUSH1 0x12 PUSH1 0x20 MSTORE PUSH1 0x40 SWAP1 KECCAK256 PUSH1 0x5 ADD SLOAD ISZERO PUSH2 0x12E1 JUMPI PUSH1 0x40 MLOAD PUSH1 0xE5 PUSH1 0x2 EXP PUSH3 0x461BCD MUL DUP2 MSTORE PUSH1 0x4 ADD DUP1 DUP1 PUSH1 0x20 ADD DUP3 DUP2 SUB DUP3 MSTORE PUSH1 0x21 DUP2 MSTORE PUSH1 0x20 ADD DUP1 PUSH2 0x5A74 PUSH1 0x21 SWAP2 CODECOPY PUSH1 0x40 ADD SWAP2 POP POP PUSH1 0x40 MLOAD DUP1 SWAP2 SUB SWAP1 REVERT JUMPDEST PUSH2 0x12E9 PUSH2 0x5742 JUMP JUMPDEST PUSH1 0x1 PUSH1 0xA0 DUP3 ADD MSTORE PUSH2 0x1302 DUP6 PUSH1 0x0 DUP1 DUP1 DUP1 DUP1 DUP1 DUP12 DUP10 PUSH2 0x484E JUMP JUMPDEST POP POP PUSH1 0x9 SLOAD PUSH1 0x1 PUSH1 0x0 SSTORE PUSH1 0x0 NOT ADD SWAP4 SWAP3 POP POP POP JUMP JUMPDEST PUSH1 0x0 SLOAD PUSH1 0x2 EQ ISZERO PUSH2 0x1360 JUMPI PUSH1 0x40 DUP1 MLOAD PUSH1 0xE5 PUSH1 0x2 EXP PUSH3 0x461BCD MUL DUP2 MSTORE PUSH1 0x20 PUSH1 0x4 DUP3 ADD MSTORE PUSH1 0x1F PUSH1 0x24 DUP3 ADD MSTORE PUSH1 0x0 DUP1 MLOAD PUSH1 0x20 PUSH2 0x5977 DUP4 CODECOPY DUP2 MLOAD SWAP2 MSTORE PUSH1 0x44 DUP3 ADD MSTORE SWAP1 MLOAD SWAP1 DUP2 SWAP1 SUB PUSH1 0x64 ADD SWAP1 REVERT JUMPDEST PUSH1 0x2 PUSH1 0x0 SWAP1 DUP2 SSTORE CALLER DUP2 MSTORE PUSH1 0x12 PUSH1 0x20 MSTORE PUSH1 0x40 DUP2 KECCAK256 PUSH1 0x1 ADD SLOAD GT DUP1 PUSH2 0x1393 JUMPI POP CALLER PUSH1 0x0 SWAP1 DUP2 MSTORE PUSH1 0x12 PUSH1 0x20 MSTORE PUSH1 0x40 DUP2 KECCAK256 PUSH1 0x2 ADD SLOAD GT JUMPDEST ISZERO ISZERO PUSH2 0x13E9 JUMPI PUSH1 0x40 DUP1 MLOAD PUSH1 0xE5 PUSH1 0x2 EXP PUSH3 0x461BCD MUL DUP2 MSTORE PUSH1 0x20 PUSH1 0x4 DUP3 ADD MSTORE PUSH1 0xC PUSH1 0x24 DUP3 ADD MSTORE PUSH32 0x6E6F742061206D656D6265720000000000000000000000000000000000000000 PUSH1 0x44 DUP3 ADD MSTORE SWAP1 MLOAD SWAP1 DUP2 SWAP1 SUB PUSH1 0x64 ADD SWAP1 REVERT JUMPDEST PUSH2 0x1171 CALLER DUP4 DUP4 PUSH2 0x4C09 JUMP JUMPDEST PUSH1 0xF DUP1 SLOAD DUP3 SWAP1 DUP2 LT PUSH2 0x1402 JUMPI INVALID JUMPDEST PUSH1 0x0 SWAP2 DUP3 MSTORE PUSH1 0x20 SWAP1 SWAP2 KECCAK256 ADD SLOAD PUSH1 0x1 PUSH1 0xA0 PUSH1 0x2 EXP SUB AND SWAP1 POP DUP2 JUMP JUMPDEST PUSH1 0x0 SLOAD PUSH1 0x2 EQ ISZERO PUSH2 0x1465 JUMPI PUSH1 0x40 DUP1 MLOAD PUSH1 0xE5 PUSH1 0x2 EXP PUSH3 0x461BCD MUL DUP2 MSTORE PUSH1 0x20 PUSH1 0x4 DUP3 ADD MSTORE PUSH1 0x1F PUSH1 0x24 DUP3 ADD MSTORE PUSH1 0x0 DUP1 MLOAD PUSH1 0x20 PUSH2 0x5977 DUP4 CODECOPY DUP2 MLOAD SWAP2 MSTORE PUSH1 0x44 DUP3 ADD MSTORE SWAP1 MLOAD SWAP1 DUP2 SWAP1 SUB PUSH1 0x64 ADD SWAP1 REVERT JUMPDEST PUSH1 0x2 PUSH1 0x0 SWAP1 DUP2 SSTORE CALLER DUP2 MSTORE PUSH1 0x12 PUSH1 0x20 MSTORE PUSH1 0x40 DUP2 KECCAK256 PUSH1 0x1 ADD SLOAD GT PUSH2 0x14D1 JUMPI PUSH1 0x40 DUP1 MLOAD PUSH1 0xE5 PUSH1 0x2 EXP PUSH3 0x461BCD MUL DUP2 MSTORE PUSH1 0x20 PUSH1 0x4 DUP3 ADD MSTORE PUSH1 0x11 PUSH1 0x24 DUP3 ADD MSTORE PUSH32 0x6E6F742061207368617265686F6C646572000000000000000000000000000000 PUSH1 0x44 DUP3 ADD MSTORE SWAP1 MLOAD SWAP1 DUP2 SWAP1 SUB PUSH1 0x64 ADD SWAP1 REVERT JUMPDEST PUSH1 0x1 PUSH1 0xA0 PUSH1 0x2 EXP SUB DUP2 AND ISZERO ISZERO PUSH2 0x1531 JUMPI PUSH1 0x40 DUP1 MLOAD PUSH1 0xE5 PUSH1 0x2 EXP PUSH3 0x461BCD MUL DUP2 MSTORE PUSH1 0x20 PUSH1 0x4 DUP3 ADD MSTORE PUSH1 0x1A PUSH1 0x24 DUP3 ADD MSTORE PUSH32 0x6E657744656C65676174654B65792063616E6E6F742062652030000000000000 PUSH1 0x44 DUP3 ADD MSTORE SWAP1 MLOAD SWAP1 DUP2 SWAP1 SUB PUSH1 0x64 ADD SWAP1 REVERT JUMPDEST PUSH1 0x1 PUSH1 0xA0 PUSH1 0x2 EXP SUB DUP2 AND CALLER EQ PUSH2 0x160C JUMPI PUSH1 0x1 PUSH1 0xA0 PUSH1 0x2 EXP SUB DUP2 AND PUSH1 0x0 SWAP1 DUP2 MSTORE PUSH1 0x12 PUSH1 0x20 MSTORE PUSH1 0x40 SWAP1 KECCAK256 PUSH1 0x3 ADD SLOAD PUSH1 0xFF AND ISZERO PUSH2 0x159F JUMPI PUSH1 0x40 MLOAD PUSH1 0xE5 PUSH1 0x2 EXP PUSH3 0x461BCD MUL DUP2 MSTORE PUSH1 0x4 ADD DUP1 DUP1 PUSH1 0x20 ADD DUP3 DUP2 SUB DUP3 MSTORE PUSH1 0x21 DUP2 MSTORE PUSH1 0x20 ADD DUP1 PUSH2 0x5C2C PUSH1 0x21 SWAP2 CODECOPY PUSH1 0x40 ADD SWAP2 POP POP PUSH1 0x40 MLOAD DUP1 SWAP2 SUB SWAP1 REVERT JUMPDEST PUSH1 0x1 PUSH1 0xA0 PUSH1 0x2 EXP SUB DUP1 DUP3 AND PUSH1 0x0 SWAP1 DUP2 MSTORE PUSH1 0x13 PUSH1 0x20 SWAP1 DUP2 MSTORE PUSH1 0x40 DUP1 DUP4 KECCAK256 SLOAD SWAP1 SWAP4 AND DUP3 MSTORE PUSH1 0x12 SWAP1 MSTORE KECCAK256 PUSH1 0x3 ADD SLOAD PUSH1 0xFF AND ISZERO PUSH2 0x160C JUMPI PUSH1 0x40 MLOAD PUSH1 0xE5 PUSH1 0x2 EXP PUSH3 0x461BCD MUL DUP2 MSTORE PUSH1 0x4 ADD DUP1 DUP1 PUSH1 0x20 ADD DUP3 DUP2 SUB DUP3 MSTORE PUSH1 0x27 DUP2 MSTORE PUSH1 0x20 ADD DUP1 PUSH2 0x5950 PUSH1 0x27 SWAP2 CODECOPY PUSH1 0x40 ADD SWAP2 POP POP PUSH1 0x40 MLOAD DUP1 SWAP2 SUB SWAP1 REVERT JUMPDEST CALLER PUSH1 0x0 DUP2 DUP2 MSTORE PUSH1 0x12 PUSH1 0x20 SWAP1 DUP2 MSTORE PUSH1 0x40 DUP1 DUP4 KECCAK256 DUP1 SLOAD PUSH1 0x1 PUSH1 0xA0 PUSH1 0x2 EXP SUB SWAP1 DUP2 AND DUP6 MSTORE PUSH1 0x13 DUP5 MSTORE DUP3 DUP6 KECCAK256 DUP1 SLOAD PUSH20 0xFFFFFFFFFFFFFFFFFFFFFFFFFFFFFFFFFFFFFFFF NOT SWAP1 DUP2 AND SWAP1 SWAP2 SSTORE SWAP1 DUP8 AND DUP1 DUP7 MSTORE SWAP5 DUP4 SWAP1 KECCAK256 DUP1 SLOAD DUP3 AND DUP8 OR SWAP1 SSTORE DUP2 SLOAD AND DUP5 OR DUP2 SSTORE DUP2 MLOAD SWAP4 DUP5 MSTORE SWAP1 MLOAD SWAP1 SWAP4 SWAP3 PUSH32 0xDE7B64A369E10562CC2E71F0F1F944EAF144B75FEAD6ECB51FAC9C4DD6934885 SWAP3 SWAP1 DUP3 SWAP1 SUB ADD SWAP1 LOG2 POP POP PUSH1 0x1 PUSH1 0x0 SSTORE JUMP JUMPDEST PUSH2 0xBABE DUP2 JUMP JUMPDEST PUSH1 0x0 SLOAD PUSH1 0x2 EQ ISZERO PUSH2 0x16F6 JUMPI PUSH1 0x40 DUP1 MLOAD PUSH1 0xE5 PUSH1 0x2 EXP PUSH3 0x461BCD MUL DUP2 MSTORE PUSH1 0x20 PUSH1 0x4 DUP3 ADD MSTORE PUSH1 0x1F PUSH1 0x24 DUP3 ADD MSTORE PUSH1 0x0 DUP1 MLOAD PUSH1 0x20 PUSH2 0x5977 DUP4 CODECOPY DUP2 MLOAD SWAP2 MSTORE PUSH1 0x44 DUP3 ADD MSTORE SWAP1 MLOAD SWAP1 DUP2 SWAP1 SUB PUSH1 0x64 ADD SWAP1 REVERT JUMPDEST PUSH1 0x2 PUSH1 0x0 SSTORE PUSH2 0x1704 DUP2 PUSH2 0x4F4A JUMP JUMPDEST PUSH1 0x0 PUSH1 0x16 DUP3 DUP2 SLOAD DUP2 LT ISZERO ISZERO PUSH2 0x1715 JUMPI INVALID JUMPDEST PUSH1 0x0 SWAP2 DUP3 MSTORE PUSH1 0x20 DUP1 DUP4 KECCAK256 SWAP2 SWAP1 SWAP2 ADD SLOAD DUP1 DUP4 MSTORE PUSH1 0x15 SWAP1 SWAP2 MSTORE PUSH1 0x40 SWAP1 SWAP2 KECCAK256 PUSH1 0xC DUP2 ADD SLOAD SWAP2 SWAP3 POP SWAP1 PUSH5 0x100000000 SWAP1 DIV PUSH1 0xFF AND ISZERO ISZERO PUSH2 0x179B JUMPI PUSH1 0x40 DUP1 MLOAD PUSH1 0xE5 PUSH1 0x2 EXP PUSH3 0x461BCD MUL DUP2 MSTORE PUSH1 0x20 PUSH1 0x4 DUP3 ADD MSTORE PUSH1 0x1C PUSH1 0x24 DUP3 ADD MSTORE PUSH32 0x6D75737420626520612077686974656C6973742070726F706F73616C00000000 PUSH1 0x44 DUP3 ADD MSTORE SWAP1 MLOAD SWAP1 DUP2 SWAP1 SUB PUSH1 0x64 ADD SWAP1 REVERT JUMPDEST PUSH1 0xC DUP2 ADD DUP1 SLOAD PUSH2 0xFF00 NOT AND PUSH2 0x100 OR SWAP1 SSTORE PUSH1 0x0 PUSH2 0x17B7 DUP5 PUSH2 0x52CB JUMP JUMPDEST PUSH1 0xF SLOAD SWAP1 SWAP2 POP PUSH2 0x190 GT PUSH2 0x17C9 JUMPI POP PUSH1 0x0 JUMPDEST DUP1 ISZERO PUSH2 0x1867 JUMPI PUSH1 0xC DUP3 ADD DUP1 SLOAD PUSH3 0xFF0000 NOT AND PUSH3 0x10000 OR SWAP1 SSTORE PUSH1 0x6 DUP3 ADD DUP1 SLOAD PUSH1 0x1 PUSH1 0xA0 PUSH1 0x2 EXP SUB SWAP1 DUP2 AND PUSH1 0x0 SWAP1 DUP2 MSTORE PUSH1 0xE PUSH1 0x20 MSTORE PUSH1 0x40 DUP2 KECCAK256 DUP1 SLOAD PUSH1 0xFF NOT AND PUSH1 0x1 SWAP1 DUP2 OR SWAP1 SWAP2 SSTORE SWAP3 SLOAD PUSH1 0xF DUP1 SLOAD SWAP5 DUP6 ADD DUP2 SSTORE SWAP1 SWAP2 MSTORE PUSH32 0x8D1108E10BCB7C27DDDFC02ED9D693A074039D026CF4EA4240B40F7D581AC802 SWAP1 SWAP3 ADD DUP1 SLOAD SWAP3 SWAP1 SWAP2 AND PUSH20 0xFFFFFFFFFFFFFFFFFFFFFFFFFFFFFFFFFFFFFFFF NOT SWAP1 SWAP3 AND SWAP2 SWAP1 SWAP2 OR SWAP1 SSTORE JUMPDEST PUSH1 0x6 DUP3 ADD SLOAD PUSH1 0x1 PUSH1 0xA0 PUSH1 0x2 EXP SUB SWAP1 DUP2 AND PUSH1 0x0 SWAP1 DUP2 MSTORE PUSH1 0x10 PUSH1 0x20 MSTORE PUSH1 0x40 SWAP1 KECCAK256 DUP1 SLOAD PUSH1 0xFF NOT AND SWAP1 SSTORE PUSH1 0x2 DUP4 ADD SLOAD PUSH2 0x189C SWAP2 AND PUSH2 0x550C JUMP JUMPDEST PUSH1 0x40 DUP1 MLOAD DUP3 ISZERO ISZERO DUP2 MSTORE SWAP1 MLOAD DUP5 SWAP2 DUP7 SWAP2 PUSH32 0x2094FC13D2ECB0ACD6861E82BD006C7E5AB6F312EC0C6CDFE3D1A01EE54D885A SWAP2 DUP2 SWAP1 SUB PUSH1 0x20 ADD SWAP1 LOG3 POP POP PUSH1 0x1 PUSH1 0x0 SSTORE POP POP JUMP JUMPDEST PUSH1 0xA SLOAD DUP2 JUMP JUMPDEST PUSH1 0x16 DUP1 SLOAD DUP3 SWAP1 DUP2 LT PUSH2 0x18F4 JUMPI INVALID JUMPDEST PUSH1 0x0 SWAP2 DUP3 MSTORE PUSH1 0x20 SWAP1 SWAP2 KECCAK256 ADD SLOAD SWAP1 POP DUP2 JUMP JUMPDEST PUSH1 0x11 PUSH1 0x20 MSTORE PUSH1 0x0 SWAP1 DUP2 MSTORE PUSH1 0x40 SWAP1 KECCAK256 SLOAD PUSH1 0xFF AND DUP2 JUMP JUMPDEST PUSH1 0x13 PUSH1 0x20 MSTORE PUSH1 0x0 SWAP1 DUP2 MSTORE PUSH1 0x40 SWAP1 KECCAK256 SLOAD PUSH1 0x1 PUSH1 0xA0 PUSH1 0x2 EXP SUB AND DUP2 JUMP JUMPDEST PUSH1 0x0 SLOAD PUSH1 0x2 EQ ISZERO PUSH2 0x197E JUMPI PUSH1 0x40 DUP1 MLOAD PUSH1 0xE5 PUSH1 0x2 EXP PUSH3 0x461BCD MUL DUP2 MSTORE PUSH1 0x20 PUSH1 0x4 DUP3 ADD MSTORE PUSH1 0x1F PUSH1 0x24 DUP3 ADD MSTORE PUSH1 0x0 DUP1 MLOAD PUSH1 0x20 PUSH2 0x5977 DUP4 CODECOPY DUP2 MLOAD SWAP2 MSTORE PUSH1 0x44 DUP3 ADD MSTORE SWAP1 MLOAD SWAP1 DUP2 SWAP1 SUB PUSH1 0x64 ADD SWAP1 REVERT JUMPDEST PUSH1 0x2 PUSH1 0x0 SSTORE DUP2 MLOAD DUP4 MLOAD EQ PUSH2 0x19C6 JUMPI PUSH1 0x40 MLOAD PUSH1 0xE5 PUSH1 0x2 EXP PUSH3 0x461BCD MUL DUP2 MSTORE PUSH1 0x4 ADD DUP1 DUP1 PUSH1 0x20 ADD DUP3 DUP2 SUB DUP3 MSTORE PUSH1 0x32 DUP2 MSTORE PUSH1 0x20 ADD DUP1 PUSH2 0x5B5B PUSH1 0x32 SWAP2 CODECOPY PUSH1 0x40 ADD SWAP2 POP POP PUSH1 0x40 MLOAD DUP1 SWAP2 SUB SWAP1 REVERT JUMPDEST PUSH1 0x0 JUMPDEST DUP4 MLOAD DUP2 LT ISZERO PUSH2 0x1A6C JUMPI PUSH1 0x0 DUP4 DUP3 DUP2 MLOAD DUP2 LT ISZERO ISZERO PUSH2 0x19E2 JUMPI INVALID JUMPDEST SWAP1 PUSH1 0x20 ADD SWAP1 PUSH1 0x20 MUL ADD MLOAD SWAP1 POP DUP3 ISZERO PUSH2 0x1A42 JUMPI CALLER PUSH1 0x0 SWAP1 DUP2 MSTORE PUSH1 0xD PUSH1 0x20 MSTORE PUSH1 0x40 DUP2 KECCAK256 DUP7 MLOAD SWAP1 SWAP2 SWAP1 DUP8 SWAP1 DUP6 SWAP1 DUP2 LT PUSH2 0x1A14 JUMPI INVALID JUMPDEST SWAP1 PUSH1 0x20 ADD SWAP1 PUSH1 0x20 MUL ADD MLOAD PUSH1 0x1 PUSH1 0xA0 PUSH1 0x2 EXP SUB AND PUSH1 0x1 PUSH1 0xA0 PUSH1 0x2 EXP SUB AND DUP2 MSTORE PUSH1 0x20 ADD SWAP1 DUP2 MSTORE PUSH1 0x20 ADD PUSH1 0x0 KECCAK256 SLOAD SWAP1 POP JUMPDEST PUSH2 0x1A63 DUP6 DUP4 DUP2 MLOAD DUP2 LT ISZERO ISZERO PUSH2 0x1A53 JUMPI INVALID JUMPDEST SWAP1 PUSH1 0x20 ADD SWAP1 PUSH1 0x20 MUL ADD MLOAD DUP3 PUSH2 0x4697 JUMP JUMPDEST POP PUSH1 0x1 ADD PUSH2 0x19C9 JUMP JUMPDEST POP POP PUSH1 0x1 PUSH1 0x0 SSTORE POP POP JUMP JUMPDEST PUSH1 0xD PUSH1 0x20 SWAP1 DUP2 MSTORE PUSH1 0x0 SWAP3 DUP4 MSTORE PUSH1 0x40 DUP1 DUP5 KECCAK256 SWAP1 SWAP2 MSTORE SWAP1 DUP3 MSTORE SWAP1 KECCAK256 SLOAD DUP2 JUMP JUMPDEST PUSH1 0x0 DUP1 SLOAD PUSH1 0x2 EQ ISZERO PUSH2 0x1ADE JUMPI PUSH1 0x40 DUP1 MLOAD PUSH1 0xE5 PUSH1 0x2 EXP PUSH3 0x461BCD MUL DUP2 MSTORE PUSH1 0x20 PUSH1 0x4 DUP3 ADD MSTORE PUSH1 0x1F PUSH1 0x24 DUP3 ADD MSTORE PUSH1 0x0 DUP1 MLOAD PUSH1 0x20 PUSH2 0x5977 DUP4 CODECOPY DUP2 MLOAD SWAP2 MSTORE PUSH1 0x44 DUP3 ADD MSTORE SWAP1 MLOAD SWAP1 DUP2 SWAP1 SUB PUSH1 0x64 ADD SWAP1 REVERT JUMPDEST PUSH1 0x2 PUSH1 0x0 SSTORE PUSH8 0xDE0B6B3A7640000 PUSH2 0x1AFC DUP10 DUP10 PUSH4 0xFFFFFFFF PUSH2 0x556D AND JUMP JUMPDEST GT ISZERO PUSH2 0x1B52 JUMPI PUSH1 0x40 DUP1 MLOAD PUSH1 0xE5 PUSH1 0x2 EXP PUSH3 0x461BCD MUL DUP2 MSTORE PUSH1 0x20 PUSH1 0x4 DUP3 ADD MSTORE PUSH1 0x19 PUSH1 0x24 DUP3 ADD MSTORE PUSH32 0x746F6F206D616E79207368617265732072657175657374656400000000000000 PUSH1 0x44 DUP3 ADD MSTORE SWAP1 MLOAD SWAP1 DUP2 SWAP1 SUB PUSH1 0x64 ADD SWAP1 REVERT JUMPDEST PUSH1 0x1 PUSH1 0xA0 PUSH1 0x2 EXP SUB DUP6 AND PUSH1 0x0 SWAP1 DUP2 MSTORE PUSH1 0xE PUSH1 0x20 MSTORE PUSH1 0x40 SWAP1 KECCAK256 SLOAD PUSH1 0xFF AND ISZERO ISZERO PUSH2 0x1BC4 JUMPI PUSH1 0x40 DUP1 MLOAD PUSH1 0xE5 PUSH1 0x2 EXP PUSH3 0x461BCD MUL DUP2 MSTORE PUSH1 0x20 PUSH1 0x4 DUP3 ADD MSTORE PUSH1 0x1F PUSH1 0x24 DUP3 ADD MSTORE PUSH32 0x74726962757465546F6B656E206973206E6F742077686974656C697374656400 PUSH1 0x44 DUP3 ADD MSTORE SWAP1 MLOAD SWAP1 DUP2 SWAP1 SUB PUSH1 0x64 ADD SWAP1 REVERT JUMPDEST PUSH1 0x1 PUSH1 0xA0 PUSH1 0x2 EXP SUB DUP4 AND PUSH1 0x0 SWAP1 DUP2 MSTORE PUSH1 0xE PUSH1 0x20 MSTORE PUSH1 0x40 SWAP1 KECCAK256 SLOAD PUSH1 0xFF AND ISZERO ISZERO PUSH2 0x1C36 JUMPI PUSH1 0x40 DUP1 MLOAD PUSH1 0xE5 PUSH1 0x2 EXP PUSH3 0x461BCD MUL DUP2 MSTORE PUSH1 0x20 PUSH1 0x4 DUP3 ADD MSTORE PUSH1 0x1A PUSH1 0x24 DUP3 ADD MSTORE PUSH32 0x7061796D656E74206973206E6F742077686974656C6973746564000000000000 PUSH1 0x44 DUP3 ADD MSTORE SWAP1 MLOAD SWAP1 DUP2 SWAP1 SUB PUSH1 0x64 ADD SWAP1 REVERT JUMPDEST PUSH1 0x1 PUSH1 0xA0 PUSH1 0x2 EXP SUB DUP10 AND ISZERO ISZERO PUSH2 0x1C96 JUMPI PUSH1 0x40 DUP1 MLOAD PUSH1 0xE5 PUSH1 0x2 EXP PUSH3 0x461BCD MUL DUP2 MSTORE PUSH1 0x20 PUSH1 0x4 DUP3 ADD MSTORE PUSH1 0x15 PUSH1 0x24 DUP3 ADD MSTORE PUSH32 0x6170706C6963616E742063616E6E6F7420626520300000000000000000000000 PUSH1 0x44 DUP3 ADD MSTORE SWAP1 MLOAD SWAP1 DUP2 SWAP1 SUB PUSH1 0x64 ADD SWAP1 REVERT JUMPDEST PUSH1 0x1 PUSH1 0xA0 PUSH1 0x2 EXP SUB DUP10 AND PUSH2 0xDEAD EQ DUP1 ISZERO SWAP1 PUSH2 0x1CBC JUMPI POP PUSH1 0x1 PUSH1 0xA0 PUSH1 0x2 EXP SUB DUP10 AND PUSH2 0xBEEF EQ ISZERO JUMPDEST DUP1 ISZERO PUSH2 0x1CD3 JUMPI POP PUSH1 0x1 PUSH1 0xA0 PUSH1 0x2 EXP SUB DUP10 AND PUSH2 0xBABE EQ ISZERO JUMPDEST ISZERO ISZERO PUSH2 0x1D13 JUMPI PUSH1 0x40 MLOAD PUSH1 0xE5 PUSH1 0x2 EXP PUSH3 0x461BCD MUL DUP2 MSTORE PUSH1 0x4 ADD DUP1 DUP1 PUSH1 0x20 ADD DUP3 DUP2 SUB DUP3 MSTORE PUSH1 0x24 DUP2 MSTORE PUSH1 0x20 ADD DUP1 PUSH2 0x5A09 PUSH1 0x24 SWAP2 CODECOPY PUSH1 0x40 ADD SWAP2 POP POP PUSH1 0x40 MLOAD DUP1 SWAP2 SUB SWAP1 REVERT JUMPDEST PUSH1 0x1 PUSH1 0xA0 PUSH1 0x2 EXP SUB DUP10 AND PUSH1 0x0 SWAP1 DUP2 MSTORE PUSH1 0x12 PUSH1 0x20 MSTORE PUSH1 0x40 SWAP1 KECCAK256 PUSH1 0x5 ADD SLOAD ISZERO PUSH2 0x1D6E JUMPI PUSH1 0x40 MLOAD PUSH1 0xE5 PUSH1 0x2 EXP PUSH3 0x461BCD MUL DUP2 MSTORE PUSH1 0x4 ADD DUP1 DUP1 PUSH1 0x20 ADD DUP3 DUP2 SUB DUP3 MSTORE PUSH1 0x25 DUP2 MSTORE PUSH1 0x20 ADD DUP1 PUSH2 0x5BC3 PUSH1 0x25 SWAP2 CODECOPY PUSH1 0x40 ADD SWAP2 POP POP PUSH1 0x40 MLOAD DUP1 SWAP2 SUB SWAP1 REVERT JUMPDEST PUSH1 0x0 DUP7 GT DUP1 ISZERO PUSH2 0x1DB3 JUMPI POP PUSH1 0x1 PUSH1 0xA0 PUSH1 0x2 EXP SUB DUP6 AND PUSH1 0x0 SWAP1 DUP2 MSTORE PUSH32 0xDC7FAFDC41998A74ECACB8F8BD877011ABA1F1D03A3A0D37A2E7879A393B1D6A PUSH1 0x20 MSTORE PUSH1 0x40 SWAP1 KECCAK256 SLOAD ISZERO JUMPDEST ISZERO PUSH2 0x1DFC JUMPI PUSH1 0xC SLOAD PUSH1 0xC8 GT PUSH2 0x1DFC JUMPI PUSH1 0x40 MLOAD PUSH1 0xE5 PUSH1 0x2 EXP PUSH3 0x461BCD MUL DUP2 MSTORE PUSH1 0x4 ADD DUP1 DUP1 PUSH1 0x20 ADD DUP3 DUP2 SUB DUP3 MSTORE PUSH1 0x47 DUP2 MSTORE PUSH1 0x20 ADD DUP1 PUSH2 0x5A2D PUSH1 0x47 SWAP2 CODECOPY PUSH1 0x60 ADD SWAP2 POP POP PUSH1 0x40 MLOAD DUP1 SWAP2 SUB SWAP1 REVERT JUMPDEST PUSH1 0x40 DUP1 MLOAD PUSH32 0x23B872DD00000000000000000000000000000000000000000000000000000000 DUP2 MSTORE CALLER PUSH1 0x4 DUP3 ADD MSTORE ADDRESS PUSH1 0x24 DUP3 ADD MSTORE PUSH1 0x44 DUP2 ADD DUP9 SWAP1 MSTORE SWAP1 MLOAD PUSH1 0x1 PUSH1 0xA0 PUSH1 0x2 EXP SUB DUP8 AND SWAP2 PUSH4 0x23B872DD SWAP2 PUSH1 0x64 DUP1 DUP4 ADD SWAP3 PUSH1 0x20 SWAP3 SWAP2 SWAP1 DUP3 SWAP1 SUB ADD DUP2 PUSH1 0x0 DUP8 DUP1 EXTCODESIZE ISZERO DUP1 ISZERO PUSH2 0x1E6A JUMPI PUSH1 0x0 DUP1 REVERT JUMPDEST POP GAS CALL ISZERO DUP1 ISZERO PUSH2 0x1E7E JUMPI RETURNDATASIZE PUSH1 0x0 DUP1 RETURNDATACOPY RETURNDATASIZE PUSH1 0x0 REVERT JUMPDEST POP POP POP POP PUSH1 0x40 MLOAD RETURNDATASIZE PUSH1 0x20 DUP2 LT ISZERO PUSH2 0x1E94 JUMPI PUSH1 0x0 DUP1 REVERT JUMPDEST POP MLOAD ISZERO ISZERO PUSH2 0x1EEC JUMPI PUSH1 0x40 DUP1 MLOAD PUSH1 0xE5 PUSH1 0x2 EXP PUSH3 0x461BCD MUL DUP2 MSTORE PUSH1 0x20 PUSH1 0x4 DUP3 ADD MSTORE PUSH1 0x1D PUSH1 0x24 DUP3 ADD MSTORE PUSH32 0x7472696275746520746F6B656E207472616E73666572206661696C6564000000 PUSH1 0x44 DUP3 ADD MSTORE SWAP1 MLOAD SWAP1 DUP2 SWAP1 SUB PUSH1 0x64 ADD SWAP1 REVERT JUMPDEST PUSH2 0x1EF9 PUSH2 0xBEEF DUP7 DUP9 PUSH2 0x5586 JUMP JUMPDEST PUSH2 0x1F01 PUSH2 0x5742 JUMP JUMPDEST PUSH2 0x1F12 DUP11 DUP11 DUP11 DUP11 DUP11 DUP11 DUP11 DUP11 DUP10 PUSH2 0x484E JUMP JUMPDEST POP POP PUSH1 0x9 SLOAD PUSH1 0x0 NOT ADD PUSH1 0x1 PUSH1 0x0 SSTORE SWAP9 SWAP8 POP POP POP POP POP POP POP POP JUMP JUMPDEST CALLER PUSH1 0x0 SWAP1 DUP2 MSTORE PUSH1 0x13 PUSH1 0x20 SWAP1 DUP2 MSTORE PUSH1 0x40 DUP1 DUP4 KECCAK256 SLOAD PUSH1 0x1 PUSH1 0xA0 PUSH1 0x2 EXP SUB AND DUP4 MSTORE PUSH1 0x12 SWAP1 SWAP2 MSTORE DUP2 KECCAK256 PUSH1 0x1 ADD SLOAD GT PUSH2 0x1FAA JUMPI PUSH1 0x40 DUP1 MLOAD PUSH1 0xE5 PUSH1 0x2 EXP PUSH3 0x461BCD MUL DUP2 MSTORE PUSH1 0x20 PUSH1 0x4 DUP3 ADD MSTORE PUSH1 0xE PUSH1 0x24 DUP3 ADD MSTORE PUSH32 0x6E6F7420612064656C6567617465000000000000000000000000000000000000 PUSH1 0x44 DUP3 ADD MSTORE SWAP1 MLOAD SWAP1 DUP2 SWAP1 SUB PUSH1 0x64 ADD SWAP1 REVERT JUMPDEST PUSH1 0x0 SLOAD PUSH1 0x2 EQ ISZERO PUSH2 0x1FF3 JUMPI PUSH1 0x40 DUP1 MLOAD PUSH1 0xE5 PUSH1 0x2 EXP PUSH3 0x461BCD MUL DUP2 MSTORE PUSH1 0x20 PUSH1 0x4 DUP3 ADD MSTORE PUSH1 0x1F PUSH1 0x24 DUP3 ADD MSTORE PUSH1 0x0 DUP1 MLOAD PUSH1 0x20 PUSH2 0x5977 DUP4 CODECOPY DUP2 MLOAD SWAP2 MSTORE PUSH1 0x44 DUP3 ADD MSTORE SWAP1 MLOAD SWAP1 DUP2 SWAP1 SUB PUSH1 0x64 ADD SWAP1 REVERT JUMPDEST PUSH1 0x2 PUSH1 0x0 SWAP1 DUP2 SSTORE PUSH1 0x1 PUSH1 0xA0 PUSH1 0x2 EXP SUB DUP3 AND DUP1 DUP3 MSTORE PUSH32 0xA30F7A7832BD8A7A8DAA3A3F5B7A6F7CEC6A2FBB1A121FA5B76520E44736771C PUSH1 0x20 SWAP1 DUP2 MSTORE PUSH1 0x40 DUP1 DUP5 KECCAK256 SLOAD DUP2 MLOAD PUSH32 0x70A0823100000000000000000000000000000000000000000000000000000000 DUP2 MSTORE ADDRESS PUSH1 0x4 DUP3 ADD MSTORE SWAP2 MLOAD PUSH2 0x20C2 SWAP5 SWAP2 SWAP4 SWAP2 SWAP3 PUSH4 0x70A08231 SWAP3 PUSH1 0x24 DUP1 DUP4 ADD SWAP4 SWAP2 SWAP3 DUP3 SWAP1 SUB ADD DUP2 DUP7 DUP1 EXTCODESIZE ISZERO DUP1 ISZERO PUSH2 0x208A JUMPI PUSH1 0x0 DUP1 REVERT JUMPDEST POP GAS STATICCALL ISZERO DUP1 ISZERO PUSH2 0x209E JUMPI RETURNDATASIZE PUSH1 0x0 DUP1 RETURNDATACOPY RETURNDATASIZE PUSH1 0x0 REVERT JUMPDEST POP POP POP POP PUSH1 0x40 MLOAD RETURNDATASIZE PUSH1 0x20 DUP2 LT ISZERO PUSH2 0x20B4 JUMPI PUSH1 0x0 DUP1 REVERT JUMPDEST POP MLOAD SWAP1 PUSH4 0xFFFFFFFF PUSH2 0x465E AND JUMP JUMPDEST SWAP1 POP PUSH1 0x0 DUP2 GT PUSH2 0x211C JUMPI PUSH1 0x40 DUP1 MLOAD PUSH1 0xE5 PUSH1 0x2 EXP PUSH3 0x461BCD MUL DUP2 MSTORE PUSH1 0x20 PUSH1 0x4 DUP3 ADD MSTORE PUSH1 0x14 PUSH1 0x24 DUP3 ADD MSTORE PUSH32 0x6E6F20746F6B656E7320746F20636F6C6C656374000000000000000000000000 PUSH1 0x44 DUP3 ADD MSTORE SWAP1 MLOAD SWAP1 DUP2 SWAP1 SUB PUSH1 0x64 ADD SWAP1 REVERT JUMPDEST PUSH1 0x1 PUSH1 0xA0 PUSH1 0x2 EXP SUB DUP3 AND PUSH1 0x0 SWAP1 DUP2 MSTORE PUSH1 0xE PUSH1 0x20 MSTORE PUSH1 0x40 SWAP1 KECCAK256 SLOAD PUSH1 0xFF AND ISZERO ISZERO PUSH2 0x2178 JUMPI PUSH1 0x40 MLOAD PUSH1 0xE5 PUSH1 0x2 EXP PUSH3 0x461BCD MUL DUP2 MSTORE PUSH1 0x4 ADD DUP1 DUP1 PUSH1 0x20 ADD DUP3 DUP2 SUB DUP3 MSTORE PUSH1 0x24 DUP2 MSTORE PUSH1 0x20 ADD DUP1 PUSH2 0x5AB8 PUSH1 0x24 SWAP2 CODECOPY PUSH1 0x40 ADD SWAP2 POP POP PUSH1 0x40 MLOAD DUP1 SWAP2 SUB SWAP1 REVERT JUMPDEST PUSH1 0x1 PUSH1 0xA0 PUSH1 0x2 EXP SUB DUP3 AND PUSH1 0x0 SWAP1 DUP2 MSTORE PUSH32 0xDC7FAFDC41998A74ECACB8F8BD877011ABA1F1D03A3A0D37A2E7879A393B1D6A PUSH1 0x20 MSTORE PUSH1 0x40 DUP2 KECCAK256 SLOAD GT DUP1 PUSH2 0x21BE JUMPI POP PUSH1 0xC8 PUSH1 0xC SLOAD LT JUMPDEST ISZERO ISZERO PUSH2 0x21FE JUMPI PUSH1 0x40 MLOAD PUSH1 0xE5 PUSH1 0x2 EXP PUSH3 0x461BCD MUL DUP2 MSTORE PUSH1 0x4 ADD DUP1 DUP1 PUSH1 0x20 ADD DUP3 DUP2 SUB DUP3 MSTORE PUSH1 0x36 DUP2 MSTORE PUSH1 0x20 ADD DUP1 PUSH2 0x5B8D PUSH1 0x36 SWAP2 CODECOPY PUSH1 0x40 ADD SWAP2 POP POP PUSH1 0x40 MLOAD DUP1 SWAP2 SUB SWAP1 REVERT JUMPDEST PUSH1 0x1 PUSH1 0xA0 PUSH1 0x2 EXP SUB DUP3 AND PUSH1 0x0 SWAP1 DUP2 MSTORE PUSH32 0xDC7FAFDC41998A74ECACB8F8BD877011ABA1F1D03A3A0D37A2E7879A393B1D6A PUSH1 0x20 MSTORE PUSH1 0x40 SWAP1 KECCAK256 SLOAD ISZERO ISZERO PUSH2 0x2246 JUMPI PUSH1 0xC DUP1 SLOAD PUSH1 0x1 ADD SWAP1 SSTORE JUMPDEST PUSH2 0x2253 PUSH2 0xDEAD DUP4 DUP4 PUSH2 0x5586 JUMP JUMPDEST PUSH1 0x40 DUP1 MLOAD DUP3 DUP2 MSTORE SWAP1 MLOAD PUSH1 0x1 PUSH1 0xA0 PUSH1 0x2 EXP SUB DUP5 AND SWAP2 PUSH32 0x9381E53FFDC9733A6783A6F8665BE3F89C231BB81A6771996ED553B4E75C0FE3 SWAP2 SWAP1 DUP2 SWAP1 SUB PUSH1 0x20 ADD SWAP1 LOG2 POP POP PUSH1 0x1 PUSH1 0x0 SSTORE JUMP JUMPDEST PUSH1 0xB SLOAD DUP2 JUMP JUMPDEST PUSH1 0x3 SLOAD DUP2 JUMP JUMPDEST PUSH1 0x1 PUSH1 0xA0 PUSH1 0x2 EXP SUB SWAP2 DUP3 AND PUSH1 0x0 SWAP1 DUP2 MSTORE PUSH1 0xD PUSH1 0x20 SWAP1 DUP2 MSTORE PUSH1 0x40 DUP1 DUP4 KECCAK256 SWAP4 SWAP1 SWAP5 AND DUP3 MSTORE SWAP2 SWAP1 SWAP2 MSTORE KECCAK256 SLOAD SWAP1 JUMP JUMPDEST PUSH1 0xE PUSH1 0x20 MSTORE PUSH1 0x0 SWAP1 DUP2 MSTORE PUSH1 0x40 SWAP1 KECCAK256 SLOAD PUSH1 0xFF AND DUP2 JUMP JUMPDEST PUSH1 0xF SLOAD SWAP1 JUMP JUMPDEST PUSH1 0x16 SLOAD SWAP1 JUMP JUMPDEST PUSH1 0x7 SLOAD DUP2 JUMP JUMPDEST PUSH1 0x2 SLOAD DUP2 JUMP JUMPDEST PUSH1 0x4 SLOAD DUP2 JUMP JUMPDEST PUSH1 0x0 PUSH2 0x231C PUSH1 0x2 SLOAD DUP4 PUSH2 0x556D SWAP1 SWAP2 SWAP1 PUSH4 0xFFFFFFFF AND JUMP JUMPDEST PUSH2 0x2324 PUSH2 0x10A7 JUMP JUMPDEST LT ISZERO SWAP3 SWAP2 POP POP JUMP JUMPDEST PUSH1 0x0 SLOAD PUSH1 0x2 EQ ISZERO PUSH2 0x2375 JUMPI PUSH1 0x40 DUP1 MLOAD PUSH1 0xE5 PUSH1 0x2 EXP PUSH3 0x461BCD MUL DUP2 MSTORE PUSH1 0x20 PUSH1 0x4 DUP3 ADD MSTORE PUSH1 0x1F PUSH1 0x24 DUP3 ADD MSTORE PUSH1 0x0 DUP1 MLOAD PUSH1 0x20 PUSH2 0x5977 DUP4 CODECOPY DUP2 MLOAD SWAP2 MSTORE PUSH1 0x44 DUP3 ADD MSTORE SWAP1 MLOAD SWAP1 DUP2 SWAP1 SUB PUSH1 0x64 ADD SWAP1 REVERT JUMPDEST PUSH1 0x2 PUSH1 0x0 SWAP1 DUP2 SSTORE CALLER DUP2 MSTORE PUSH1 0x13 PUSH1 0x20 SWAP1 DUP2 MSTORE PUSH1 0x40 DUP1 DUP4 KECCAK256 SLOAD PUSH1 0x1 PUSH1 0xA0 PUSH1 0x2 EXP SUB AND DUP4 MSTORE PUSH1 0x12 SWAP1 SWAP2 MSTORE DUP2 KECCAK256 PUSH1 0x1 ADD SLOAD GT PUSH2 0x23F7 JUMPI PUSH1 0x40 DUP1 MLOAD PUSH1 0xE5 PUSH1 0x2 EXP PUSH3 0x461BCD MUL DUP2 MSTORE PUSH1 0x20 PUSH1 0x4 DUP3 ADD MSTORE PUSH1 0xE PUSH1 0x24 DUP3 ADD MSTORE PUSH32 0x6E6F7420612064656C6567617465000000000000000000000000000000000000 PUSH1 0x44 DUP3 ADD MSTORE SWAP1 MLOAD SWAP1 DUP2 SWAP1 SUB PUSH1 0x64 ADD SWAP1 REVERT JUMPDEST PUSH1 0x8 SLOAD PUSH1 0x4 DUP1 SLOAD PUSH1 0x40 DUP1 MLOAD PUSH32 0x23B872DD00000000000000000000000000000000000000000000000000000000 DUP2 MSTORE CALLER SWAP4 DUP2 ADD SWAP4 SWAP1 SWAP4 MSTORE ADDRESS PUSH1 0x24 DUP5 ADD MSTORE PUSH1 0x44 DUP4 ADD SWAP2 SWAP1 SWAP2 MSTORE MLOAD PUSH2 0x100 SWAP1 SWAP3 DIV PUSH1 0x1 PUSH1 0xA0 PUSH1 0x2 EXP SUB AND SWAP2 PUSH4 0x23B872DD SWAP2 PUSH1 0x64 DUP1 DUP3 ADD SWAP3 PUSH1 0x20 SWAP3 SWAP1 SWAP2 SWAP1 DUP3 SWAP1 SUB ADD DUP2 PUSH1 0x0 DUP8 DUP1 EXTCODESIZE ISZERO DUP1 ISZERO PUSH2 0x2474 JUMPI PUSH1 0x0 DUP1 REVERT JUMPDEST POP GAS CALL ISZERO DUP1 ISZERO PUSH2 0x2488 JUMPI RETURNDATASIZE PUSH1 0x0 DUP1 RETURNDATACOPY RETURNDATASIZE PUSH1 0x0 REVERT JUMPDEST POP POP POP POP PUSH1 0x40 MLOAD RETURNDATASIZE PUSH1 0x20 DUP2 LT ISZERO PUSH2 0x249E JUMPI PUSH1 0x0 DUP1 REVERT JUMPDEST POP MLOAD ISZERO ISZERO PUSH2 0x24E0 JUMPI PUSH1 0x40 MLOAD PUSH1 0xE5 PUSH1 0x2 EXP PUSH3 0x461BCD MUL DUP2 MSTORE PUSH1 0x4 ADD DUP1 DUP1 PUSH1 0x20 ADD DUP3 DUP2 SUB DUP3 MSTORE PUSH1 0x26 DUP2 MSTORE PUSH1 0x20 ADD DUP1 PUSH2 0x5CBB PUSH1 0x26 SWAP2 CODECOPY PUSH1 0x40 ADD SWAP2 POP POP PUSH1 0x40 MLOAD DUP1 SWAP2 SUB SWAP1 REVERT JUMPDEST PUSH2 0x2504 PUSH2 0xBEEF PUSH1 0x8 PUSH1 0x1 SWAP1 SLOAD SWAP1 PUSH2 0x100 EXP SWAP1 DIV PUSH1 0x1 PUSH1 0xA0 PUSH1 0x2 EXP SUB AND PUSH1 0x4 SLOAD PUSH2 0x5586 JUMP JUMPDEST PUSH1 0x0 DUP2 DUP2 MSTORE PUSH1 0x15 PUSH1 0x20 MSTORE PUSH1 0x40 SWAP1 KECCAK256 PUSH1 0x1 DUP2 ADD SLOAD PUSH1 0x1 PUSH1 0xA0 PUSH1 0x2 EXP SUB AND ISZERO ISZERO PUSH2 0x2576 JUMPI PUSH1 0x40 DUP1 MLOAD PUSH1 0xE5 PUSH1 0x2 EXP PUSH3 0x461BCD MUL DUP2 MSTORE PUSH1 0x20 PUSH1 0x4 DUP3 ADD DUP2 SWAP1 MSTORE PUSH1 0x24 DUP3 ADD MSTORE PUSH32 0x70726F706F73616C206D7573742068617665206265656E2070726F706F736564 PUSH1 0x44 DUP3 ADD MSTORE SWAP1 MLOAD SWAP1 DUP2 SWAP1 SUB PUSH1 0x64 ADD SWAP1 REVERT JUMPDEST PUSH1 0xC DUP2 ADD SLOAD PUSH1 0xFF AND ISZERO PUSH2 0x25BD JUMPI PUSH1 0x40 MLOAD PUSH1 0xE5 PUSH1 0x2 EXP PUSH3 0x461BCD MUL DUP2 MSTORE PUSH1 0x4 ADD DUP1 DUP1 PUSH1 0x20 ADD DUP3 DUP2 SUB DUP3 MSTORE PUSH1 0x23 DUP2 MSTORE PUSH1 0x20 ADD DUP1 PUSH2 0x5C09 PUSH1 0x23 SWAP2 CODECOPY PUSH1 0x40 ADD SWAP2 POP POP PUSH1 0x40 MLOAD DUP1 SWAP2 SUB SWAP1 REVERT JUMPDEST PUSH1 0xC DUP2 ADD SLOAD PUSH4 0x1000000 SWAP1 DIV PUSH1 0xFF AND ISZERO PUSH2 0x2621 JUMPI PUSH1 0x40 DUP1 MLOAD PUSH1 0xE5 PUSH1 0x2 EXP PUSH3 0x461BCD MUL DUP2 MSTORE PUSH1 0x20 PUSH1 0x4 DUP3 ADD MSTORE PUSH1 0x1B PUSH1 0x24 DUP3 ADD MSTORE PUSH32 0x70726F706F73616C20686173206265656E2063616E63656C6C65640000000000 PUSH1 0x44 DUP3 ADD MSTORE SWAP1 MLOAD SWAP1 DUP2 SWAP1 SUB PUSH1 0x64 ADD SWAP1 REVERT JUMPDEST DUP1 SLOAD PUSH1 0x1 PUSH1 0xA0 PUSH1 0x2 EXP SUB AND PUSH1 0x0 SWAP1 DUP2 MSTORE PUSH1 0x12 PUSH1 0x20 MSTORE PUSH1 0x40 SWAP1 KECCAK256 PUSH1 0x5 ADD SLOAD ISZERO PUSH2 0x267D JUMPI PUSH1 0x40 MLOAD PUSH1 0xE5 PUSH1 0x2 EXP PUSH3 0x461BCD MUL DUP2 MSTORE PUSH1 0x4 ADD DUP1 DUP1 PUSH1 0x20 ADD DUP3 DUP2 SUB DUP3 MSTORE PUSH1 0x25 DUP2 MSTORE PUSH1 0x20 ADD DUP1 PUSH2 0x5BC3 PUSH1 0x25 SWAP2 CODECOPY PUSH1 0x40 ADD SWAP2 POP POP PUSH1 0x40 MLOAD DUP1 SWAP2 SUB SWAP1 REVERT JUMPDEST PUSH1 0x0 DUP2 PUSH1 0x5 ADD SLOAD GT DUP1 ISZERO PUSH2 0x26CA JUMPI POP PUSH1 0x6 DUP2 ADD SLOAD PUSH1 0x1 PUSH1 0xA0 PUSH1 0x2 EXP SUB AND PUSH1 0x0 SWAP1 DUP2 MSTORE PUSH32 0xDC7FAFDC41998A74ECACB8F8BD877011ABA1F1D03A3A0D37A2E7879A393B1D6A PUSH1 0x20 MSTORE PUSH1 0x40 SWAP1 KECCAK256 SLOAD ISZERO JUMPDEST ISZERO PUSH2 0x2713 JUMPI PUSH1 0xC SLOAD PUSH1 0xC8 GT PUSH2 0x2713 JUMPI PUSH1 0x40 MLOAD PUSH1 0xE5 PUSH1 0x2 EXP PUSH3 0x461BCD MUL DUP2 MSTORE PUSH1 0x4 ADD DUP1 DUP1 PUSH1 0x20 ADD DUP3 DUP2 SUB DUP3 MSTORE PUSH1 0x48 DUP2 MSTORE PUSH1 0x20 ADD DUP1 PUSH2 0x5C73 PUSH1 0x48 SWAP2 CODECOPY PUSH1 0x60 ADD SWAP2 POP POP PUSH1 0x40 MLOAD DUP1 SWAP2 SUB SWAP1 REVERT JUMPDEST PUSH1 0xC DUP2 ADD SLOAD PUSH5 0x100000000 SWAP1 DIV PUSH1 0xFF AND ISZERO PUSH2 0x286D JUMPI PUSH1 0x6 DUP2 ADD SLOAD PUSH1 0x1 PUSH1 0xA0 PUSH1 0x2 EXP SUB AND PUSH1 0x0 SWAP1 DUP2 MSTORE PUSH1 0xE PUSH1 0x20 MSTORE PUSH1 0x40 SWAP1 KECCAK256 SLOAD PUSH1 0xFF AND ISZERO PUSH2 0x2787 JUMPI PUSH1 0x40 MLOAD PUSH1 0xE5 PUSH1 0x2 EXP PUSH3 0x461BCD MUL DUP2 MSTORE PUSH1 0x4 ADD DUP1 DUP1 PUSH1 0x20 ADD DUP3 DUP2 SUB DUP3 MSTORE PUSH1 0x29 DUP2 MSTORE PUSH1 0x20 ADD DUP1 PUSH2 0x5D26 PUSH1 0x29 SWAP2 CODECOPY PUSH1 0x40 ADD SWAP2 POP POP PUSH1 0x40 MLOAD DUP1 SWAP2 SUB SWAP1 REVERT JUMPDEST PUSH1 0x6 DUP2 ADD SLOAD PUSH1 0x1 PUSH1 0xA0 PUSH1 0x2 EXP SUB AND PUSH1 0x0 SWAP1 DUP2 MSTORE PUSH1 0x10 PUSH1 0x20 MSTORE PUSH1 0x40 SWAP1 KECCAK256 SLOAD PUSH1 0xFF AND ISZERO PUSH2 0x27FC JUMPI PUSH1 0x40 DUP1 MLOAD PUSH1 0xE5 PUSH1 0x2 EXP PUSH3 0x461BCD MUL DUP2 MSTORE PUSH1 0x20 PUSH1 0x4 DUP3 ADD MSTORE PUSH1 0x1D PUSH1 0x24 DUP3 ADD MSTORE PUSH32 0x616C72656164792070726F706F73656420746F2077686974656C697374000000 PUSH1 0x44 DUP3 ADD MSTORE SWAP1 MLOAD SWAP1 DUP2 SWAP1 SUB PUSH1 0x64 ADD SWAP1 REVERT JUMPDEST PUSH1 0xF SLOAD PUSH2 0x190 GT PUSH2 0x2841 JUMPI PUSH1 0x40 MLOAD PUSH1 0xE5 PUSH1 0x2 EXP PUSH3 0x461BCD MUL DUP2 MSTORE PUSH1 0x4 ADD DUP1 DUP1 PUSH1 0x20 ADD DUP3 DUP2 SUB DUP3 MSTORE PUSH1 0x27 DUP2 MSTORE PUSH1 0x20 ADD DUP1 PUSH2 0x5ADC PUSH1 0x27 SWAP2 CODECOPY PUSH1 0x40 ADD SWAP2 POP POP PUSH1 0x40 MLOAD DUP1 SWAP2 SUB SWAP1 REVERT JUMPDEST PUSH1 0x6 DUP2 ADD SLOAD PUSH1 0x1 PUSH1 0xA0 PUSH1 0x2 EXP SUB AND PUSH1 0x0 SWAP1 DUP2 MSTORE PUSH1 0x10 PUSH1 0x20 MSTORE PUSH1 0x40 SWAP1 KECCAK256 DUP1 SLOAD PUSH1 0xFF NOT AND PUSH1 0x1 OR SWAP1 SSTORE PUSH2 0x291A JUMP JUMPDEST PUSH1 0xC DUP2 ADD SLOAD PUSH6 0x10000000000 SWAP1 DIV PUSH1 0xFF AND ISZERO PUSH2 0x291A JUMPI DUP1 SLOAD PUSH1 0x1 PUSH1 0xA0 PUSH1 0x2 EXP SUB AND PUSH1 0x0 SWAP1 DUP2 MSTORE PUSH1 0x11 PUSH1 0x20 MSTORE PUSH1 0x40 SWAP1 KECCAK256 SLOAD PUSH1 0xFF AND ISZERO PUSH2 0x28F5 JUMPI PUSH1 0x40 DUP1 MLOAD PUSH1 0xE5 PUSH1 0x2 EXP PUSH3 0x461BCD MUL DUP2 MSTORE PUSH1 0x20 PUSH1 0x4 DUP3 ADD MSTORE PUSH1 0x18 PUSH1 0x24 DUP3 ADD MSTORE PUSH32 0x616C72656164792070726F706F73656420746F206B69636B0000000000000000 PUSH1 0x44 DUP3 ADD MSTORE SWAP1 MLOAD SWAP1 DUP2 SWAP1 SUB PUSH1 0x64 ADD SWAP1 REVERT JUMPDEST DUP1 SLOAD PUSH1 0x1 PUSH1 0xA0 PUSH1 0x2 EXP SUB AND PUSH1 0x0 SWAP1 DUP2 MSTORE PUSH1 0x11 PUSH1 0x20 MSTORE PUSH1 0x40 SWAP1 KECCAK256 DUP1 SLOAD PUSH1 0xFF NOT AND PUSH1 0x1 OR SWAP1 SSTORE JUMPDEST PUSH1 0x0 PUSH2 0x298F PUSH1 0x1 PUSH2 0x2983 PUSH2 0x292C PUSH2 0x10A7 JUMP JUMPDEST PUSH1 0x16 SLOAD ISZERO PUSH2 0x297B JUMPI PUSH1 0x16 DUP1 SLOAD PUSH1 0x15 SWAP2 PUSH1 0x0 SWAP2 PUSH2 0x294F SWAP1 PUSH1 0x1 PUSH4 0xFFFFFFFF PUSH2 0x465E AND JUMP JUMPDEST DUP2 SLOAD DUP2 LT PUSH2 0x2959 JUMPI INVALID JUMPDEST SWAP1 PUSH1 0x0 MSTORE PUSH1 0x20 PUSH1 0x0 KECCAK256 ADD SLOAD DUP2 MSTORE PUSH1 0x20 ADD SWAP1 DUP2 MSTORE PUSH1 0x20 ADD PUSH1 0x0 KECCAK256 PUSH1 0x9 ADD SLOAD PUSH2 0x297E JUMP JUMPDEST PUSH1 0x0 JUMPDEST PUSH2 0x55E4 JUMP JUMPDEST SWAP1 PUSH4 0xFFFFFFFF PUSH2 0x556D AND JUMP JUMPDEST PUSH1 0x9 DUP4 ADD DUP2 SWAP1 SSTORE CALLER PUSH1 0x0 DUP2 DUP2 MSTORE PUSH1 0x13 PUSH1 0x20 MSTORE PUSH1 0x40 DUP2 KECCAK256 SLOAD PUSH1 0x2 DUP7 ADD DUP1 SLOAD PUSH20 0xFFFFFFFFFFFFFFFFFFFFFFFFFFFFFFFFFFFFFFFF NOT AND PUSH1 0x1 PUSH1 0xA0 PUSH1 0x2 EXP SUB SWAP1 SWAP3 AND SWAP2 DUP3 OR SWAP1 SSTORE PUSH1 0xC DUP7 ADD DUP1 SLOAD PUSH1 0xFF NOT AND PUSH1 0x1 SWAP1 DUP2 OR SWAP1 SWAP2 SSTORE PUSH1 0x16 DUP1 SLOAD DUP1 DUP4 ADD DUP3 SSTORE SWAP4 DUP2 SWAP1 MSTORE PUSH32 0xD833147D7DC355BA459FC788F669E58CFAF9DC25DDCD0702E87D69C7B5124289 SWAP1 SWAP4 ADD DUP9 SWAP1 SSTORE SWAP2 SLOAD SWAP4 SWAP5 POP SWAP3 DUP4 SWAP3 SWAP2 PUSH32 0x2A383A979381335E3EB401AC01DD8083E024FF0256BF5338456FFC0063390BBD SWAP2 DUP9 SWAP2 PUSH2 0x2A50 SWAP2 SWAP1 PUSH2 0x465E JUMP JUMPDEST PUSH1 0x40 DUP1 MLOAD SWAP3 DUP4 MSTORE PUSH1 0x20 DUP4 ADD SWAP2 SWAP1 SWAP2 MSTORE DUP2 DUP2 ADD DUP8 SWAP1 MSTORE MLOAD SWAP1 DUP2 SWAP1 SUB PUSH1 0x60 ADD SWAP1 LOG3 POP POP PUSH1 0x1 PUSH1 0x0 SSTORE POP POP JUMP JUMPDEST PUSH1 0x0 SLOAD PUSH1 0x2 EQ ISZERO PUSH2 0x2AC3 JUMPI PUSH1 0x40 DUP1 MLOAD PUSH1 0xE5 PUSH1 0x2 EXP PUSH3 0x461BCD MUL DUP2 MSTORE PUSH1 0x20 PUSH1 0x4 DUP3 ADD MSTORE PUSH1 0x1F PUSH1 0x24 DUP3 ADD MSTORE PUSH1 0x0 DUP1 MLOAD PUSH1 0x20 PUSH2 0x5977 DUP4 CODECOPY DUP2 MLOAD SWAP2 MSTORE PUSH1 0x44 DUP3 ADD MSTORE SWAP1 MLOAD SWAP1 DUP2 SWAP1 SUB PUSH1 0x64 ADD SWAP1 REVERT JUMPDEST PUSH1 0x2 PUSH1 0x0 SWAP1 DUP2 SSTORE CALLER DUP2 MSTORE PUSH1 0x13 PUSH1 0x20 SWAP1 DUP2 MSTORE PUSH1 0x40 DUP1 DUP4 KECCAK256 SLOAD PUSH1 0x1 PUSH1 0xA0 PUSH1 0x2 EXP SUB AND DUP4 MSTORE PUSH1 0x12 SWAP1 SWAP2 MSTORE DUP2 KECCAK256 PUSH1 0x1 ADD SLOAD GT PUSH2 0x2B45 JUMPI PUSH1 0x40 DUP1 MLOAD PUSH1 0xE5 PUSH1 0x2 EXP PUSH3 0x461BCD MUL DUP2 MSTORE PUSH1 0x20 PUSH1 0x4 DUP3 ADD MSTORE PUSH1 0xE PUSH1 0x24 DUP3 ADD MSTORE PUSH32 0x6E6F7420612064656C6567617465000000000000000000000000000000000000 PUSH1 0x44 DUP3 ADD MSTORE SWAP1 MLOAD SWAP1 DUP2 SWAP1 SUB PUSH1 0x64 ADD SWAP1 REVERT JUMPDEST CALLER PUSH1 0x0 SWAP1 DUP2 MSTORE PUSH1 0x13 PUSH1 0x20 SWAP1 DUP2 MSTORE PUSH1 0x40 DUP1 DUP4 KECCAK256 SLOAD PUSH1 0x1 PUSH1 0xA0 PUSH1 0x2 EXP SUB AND DUP1 DUP5 MSTORE PUSH1 0x12 SWAP1 SWAP3 MSTORE SWAP1 SWAP2 KECCAK256 PUSH1 0x16 SLOAD DUP5 LT PUSH2 0x2BC5 JUMPI PUSH1 0x40 DUP1 MLOAD PUSH1 0xE5 PUSH1 0x2 EXP PUSH3 0x461BCD MUL DUP2 MSTORE PUSH1 0x20 PUSH1 0x4 DUP3 ADD MSTORE PUSH1 0x17 PUSH1 0x24 DUP3 ADD MSTORE PUSH32 0x70726F706F73616C20646F6573206E6F74206578697374000000000000000000 PUSH1 0x44 DUP3 ADD MSTORE SWAP1 MLOAD SWAP1 DUP2 SWAP1 SUB PUSH1 0x64 ADD SWAP1 REVERT JUMPDEST PUSH1 0x0 PUSH1 0x15 PUSH1 0x0 PUSH1 0x16 DUP8 DUP2 SLOAD DUP2 LT ISZERO ISZERO PUSH2 0x2BDA JUMPI INVALID JUMPDEST SWAP1 PUSH1 0x0 MSTORE PUSH1 0x20 PUSH1 0x0 KECCAK256 ADD SLOAD DUP2 MSTORE PUSH1 0x20 ADD SWAP1 DUP2 MSTORE PUSH1 0x20 ADD PUSH1 0x0 KECCAK256 SWAP1 POP PUSH1 0x3 DUP5 PUSH1 0xFF AND LT ISZERO ISZERO PUSH2 0x2C52 JUMPI PUSH1 0x40 DUP1 MLOAD PUSH1 0xE5 PUSH1 0x2 EXP PUSH3 0x461BCD MUL DUP2 MSTORE PUSH1 0x20 PUSH1 0x4 DUP3 ADD MSTORE PUSH1 0x13 PUSH1 0x24 DUP3 ADD MSTORE PUSH32 0x6D757374206265206C657373207468616E203300000000000000000000000000 PUSH1 0x44 DUP3 ADD MSTORE SWAP1 MLOAD SWAP1 DUP2 SWAP1 SUB PUSH1 0x64 ADD SWAP1 REVERT JUMPDEST PUSH1 0x0 DUP5 PUSH1 0xFF AND PUSH1 0x2 DUP2 GT ISZERO PUSH2 0x2C63 JUMPI INVALID JUMPDEST SWAP1 POP DUP2 PUSH1 0x9 ADD SLOAD PUSH2 0x2C72 PUSH2 0x10A7 JUMP JUMPDEST LT ISZERO PUSH2 0x2CC8 JUMPI PUSH1 0x40 DUP1 MLOAD PUSH1 0xE5 PUSH1 0x2 EXP PUSH3 0x461BCD MUL DUP2 MSTORE PUSH1 0x20 PUSH1 0x4 DUP3 ADD MSTORE PUSH1 0x1D PUSH1 0x24 DUP3 ADD MSTORE PUSH32 0x766F74696E6720706572696F6420686173206E6F742073746172746564000000 PUSH1 0x44 DUP3 ADD MSTORE SWAP1 MLOAD SWAP1 DUP2 SWAP1 SUB PUSH1 0x64 ADD SWAP1 REVERT JUMPDEST PUSH2 0x2CD5 DUP3 PUSH1 0x9 ADD SLOAD PUSH2 0x2305 JUMP JUMPDEST ISZERO PUSH2 0x2D14 JUMPI PUSH1 0x40 MLOAD PUSH1 0xE5 PUSH1 0x2 EXP PUSH3 0x461BCD MUL DUP2 MSTORE PUSH1 0x4 ADD DUP1 DUP1 PUSH1 0x20 ADD DUP3 DUP2 SUB DUP3 MSTORE PUSH1 0x22 DUP2 MSTORE PUSH1 0x20 ADD DUP1 PUSH2 0x5CE1 PUSH1 0x22 SWAP2 CODECOPY PUSH1 0x40 ADD SWAP2 POP POP PUSH1 0x40 MLOAD DUP1 SWAP2 SUB SWAP1 REVERT JUMPDEST PUSH1 0x1 PUSH1 0xA0 PUSH1 0x2 EXP SUB DUP5 AND PUSH1 0x0 SWAP1 DUP2 MSTORE PUSH1 0xF DUP4 ADD PUSH1 0x20 MSTORE PUSH1 0x40 DUP2 KECCAK256 SLOAD PUSH1 0xFF AND PUSH1 0x2 DUP2 GT ISZERO PUSH2 0x2D3D JUMPI INVALID JUMPDEST EQ PUSH2 0x2D92 JUMPI PUSH1 0x40 DUP1 MLOAD PUSH1 0xE5 PUSH1 0x2 EXP PUSH3 0x461BCD MUL DUP2 MSTORE PUSH1 0x20 PUSH1 0x4 DUP3 ADD MSTORE PUSH1 0x18 PUSH1 0x24 DUP3 ADD MSTORE PUSH32 0x6D656D6265722068617320616C726561647920766F7465640000000000000000 PUSH1 0x44 DUP3 ADD MSTORE SWAP1 MLOAD SWAP1 DUP2 SWAP1 SUB PUSH1 0x64 ADD SWAP1 REVERT JUMPDEST PUSH1 0x1 DUP2 PUSH1 0x2 DUP2 GT ISZERO PUSH2 0x2DA0 JUMPI INVALID JUMPDEST EQ DUP1 PUSH2 0x2DB7 JUMPI POP PUSH1 0x2 DUP2 PUSH1 0x2 DUP2 GT ISZERO PUSH2 0x2DB5 JUMPI INVALID JUMPDEST EQ JUMPDEST ISZERO ISZERO PUSH2 0x2E0D JUMPI PUSH1 0x40 DUP1 MLOAD PUSH1 0xE5 PUSH1 0x2 EXP PUSH3 0x461BCD MUL DUP2 MSTORE PUSH1 0x20 PUSH1 0x4 DUP3 ADD MSTORE PUSH1 0x1D PUSH1 0x24 DUP3 ADD MSTORE PUSH32 0x766F7465206D7573742062652065697468657220596573206F72204E6F000000 PUSH1 0x44 DUP3 ADD MSTORE SWAP1 MLOAD SWAP1 DUP2 SWAP1 SUB PUSH1 0x64 ADD SWAP1 REVERT JUMPDEST PUSH1 0x1 PUSH1 0xA0 PUSH1 0x2 EXP SUB DUP5 AND PUSH1 0x0 SWAP1 DUP2 MSTORE PUSH1 0xF DUP4 ADD PUSH1 0x20 MSTORE PUSH1 0x40 SWAP1 KECCAK256 DUP1 SLOAD DUP3 SWAP2 SWAP1 PUSH1 0xFF NOT AND PUSH1 0x1 DUP4 PUSH1 0x2 DUP2 GT ISZERO PUSH2 0x2E3E JUMPI INVALID JUMPDEST MUL OR SWAP1 SSTORE POP PUSH1 0x1 DUP2 PUSH1 0x2 DUP2 GT ISZERO PUSH2 0x2E51 JUMPI INVALID JUMPDEST EQ ISZERO PUSH2 0x2EC9 JUMPI PUSH1 0x1 DUP4 ADD SLOAD PUSH1 0xA DUP4 ADD SLOAD PUSH2 0x2E70 SWAP2 PUSH4 0xFFFFFFFF PUSH2 0x556D AND JUMP JUMPDEST PUSH1 0xA DUP4 ADD SSTORE PUSH1 0x4 DUP4 ADD SLOAD DUP7 GT ISZERO PUSH2 0x2E89 JUMPI PUSH1 0x4 DUP4 ADD DUP7 SWAP1 SSTORE JUMPDEST PUSH1 0xE DUP3 ADD SLOAD PUSH1 0xB SLOAD PUSH1 0xA SLOAD PUSH2 0x2EA3 SWAP2 PUSH4 0xFFFFFFFF PUSH2 0x556D AND JUMP JUMPDEST GT ISZERO PUSH2 0x2EC4 JUMPI PUSH1 0xB SLOAD PUSH1 0xA SLOAD PUSH2 0x2EBE SWAP2 PUSH4 0xFFFFFFFF PUSH2 0x556D AND JUMP JUMPDEST PUSH1 0xE DUP4 ADD SSTORE JUMPDEST PUSH2 0x2EFC JUMP JUMPDEST PUSH1 0x2 DUP2 PUSH1 0x2 DUP2 GT ISZERO PUSH2 0x2ED7 JUMPI INVALID JUMPDEST EQ ISZERO PUSH2 0x2EFC JUMPI PUSH1 0x1 DUP4 ADD SLOAD PUSH1 0xB DUP4 ADD SLOAD PUSH2 0x2EF6 SWAP2 PUSH4 0xFFFFFFFF PUSH2 0x556D AND JUMP JUMPDEST PUSH1 0xB DUP4 ADD SSTORE JUMPDEST DUP4 PUSH1 0x1 PUSH1 0xA0 PUSH1 0x2 EXP SUB AND CALLER PUSH1 0x1 PUSH1 0xA0 PUSH1 0x2 EXP SUB AND DUP8 PUSH32 0x804F03797630BF8B8A46B9371608ABBF7D78A20DF720E477BAB641957CA68A20 PUSH1 0x16 DUP11 DUP2 SLOAD DUP2 LT ISZERO ISZERO PUSH2 0x2F41 JUMPI INVALID JUMPDEST SWAP1 PUSH1 0x0 MSTORE PUSH1 0x20 PUSH1 0x0 KECCAK256 ADD SLOAD DUP10 PUSH1 0x40 MLOAD DUP1 DUP4 DUP2 MSTORE PUSH1 0x20 ADD DUP3 PUSH1 0xFF AND PUSH1 0xFF AND DUP2 MSTORE PUSH1 0x20 ADD SWAP3 POP POP POP PUSH1 0x40 MLOAD DUP1 SWAP2 SUB SWAP1 LOG4 POP POP PUSH1 0x1 PUSH1 0x0 SSTORE POP POP POP POP JUMP JUMPDEST PUSH1 0xC SLOAD DUP2 JUMP JUMPDEST PUSH1 0x16 SLOAD PUSH1 0x0 SWAP1 DUP3 LT PUSH2 0x2FDE JUMPI PUSH1 0x40 DUP1 MLOAD PUSH1 0xE5 PUSH1 0x2 EXP PUSH3 0x461BCD MUL DUP2 MSTORE PUSH1 0x20 PUSH1 0x4 DUP3 ADD MSTORE PUSH1 0x17 PUSH1 0x24 DUP3 ADD MSTORE PUSH32 0x70726F706F73616C20646F6573206E6F74206578697374000000000000000000 PUSH1 0x44 DUP3 ADD MSTORE SWAP1 MLOAD SWAP1 DUP2 SWAP1 SUB PUSH1 0x64 ADD SWAP1 REVERT JUMPDEST PUSH1 0x15 PUSH1 0x0 PUSH1 0x16 DUP5 DUP2 SLOAD DUP2 LT ISZERO ISZERO PUSH2 0x2FF1 JUMPI INVALID JUMPDEST SWAP1 PUSH1 0x0 MSTORE PUSH1 0x20 PUSH1 0x0 KECCAK256 ADD SLOAD DUP2 MSTORE PUSH1 0x20 ADD SWAP1 DUP2 MSTORE PUSH1 0x20 ADD PUSH1 0x0 KECCAK256 PUSH1 0xC ADD PUSH1 0x1 PUSH1 0x6 DUP2 LT ISZERO ISZERO PUSH2 0x301B JUMPI INVALID JUMPDEST PUSH1 0x20 DUP2 DIV SWAP1 SWAP2 ADD SLOAD PUSH1 0xFF PUSH1 0x1F SWAP1 SWAP3 AND PUSH2 0x100 EXP SWAP1 DIV AND SWAP1 POP SWAP2 SWAP1 POP JUMP JUMPDEST PUSH1 0x8 SLOAD PUSH1 0xFF AND ISZERO PUSH2 0x3093 JUMPI PUSH1 0x40 DUP1 MLOAD PUSH1 0xE5 PUSH1 0x2 EXP PUSH3 0x461BCD MUL DUP2 MSTORE PUSH1 0x20 PUSH1 0x4 DUP3 ADD MSTORE PUSH1 0xB PUSH1 0x24 DUP3 ADD MSTORE PUSH32 0x696E697469616C697A6564000000000000000000000000000000000000000000 PUSH1 0x44 DUP3 ADD MSTORE SWAP1 MLOAD SWAP1 DUP2 SWAP1 SUB PUSH1 0x64 ADD SWAP1 REVERT JUMPDEST DUP11 DUP2 EQ PUSH2 0x30D4 JUMPI PUSH1 0x40 MLOAD PUSH1 0xE5 PUSH1 0x2 EXP PUSH3 0x461BCD MUL DUP2 MSTORE PUSH1 0x4 ADD DUP1 DUP1 PUSH1 0x20 ADD DUP3 DUP2 SUB DUP3 MSTORE PUSH1 0x29 DUP2 MSTORE PUSH1 0x20 ADD DUP1 PUSH2 0x5B03 PUSH1 0x29 SWAP2 CODECOPY PUSH1 0x40 ADD SWAP2 POP POP PUSH1 0x40 MLOAD DUP1 SWAP2 SUB SWAP1 REVERT JUMPDEST PUSH1 0x0 DUP9 GT PUSH2 0x312C JUMPI PUSH1 0x40 DUP1 MLOAD PUSH1 0xE5 PUSH1 0x2 EXP PUSH3 0x461BCD MUL DUP2 MSTORE PUSH1 0x20 PUSH1 0x4 DUP3 ADD MSTORE PUSH1 0x1B PUSH1 0x24 DUP3 ADD MSTORE PUSH32 0x5F706572696F644475726174696F6E2063616E6E6F7420626520300000000000 PUSH1 0x44 DUP3 ADD MSTORE SWAP1 MLOAD SWAP1 DUP2 SWAP1 SUB PUSH1 0x64 ADD SWAP1 REVERT JUMPDEST PUSH1 0x0 DUP8 GT PUSH2 0x3184 JUMPI PUSH1 0x40 DUP1 MLOAD PUSH1 0xE5 PUSH1 0x2 EXP PUSH3 0x461BCD MUL DUP2 MSTORE PUSH1 0x20 PUSH1 0x4 DUP3 ADD MSTORE PUSH1 0x1F PUSH1 0x24 DUP3 ADD MSTORE PUSH32 0x5F766F74696E67506572696F644C656E6774682063616E6E6F74206265203000 PUSH1 0x44 DUP3 ADD MSTORE SWAP1 MLOAD SWAP1 DUP2 SWAP1 SUB PUSH1 0x64 ADD SWAP1 REVERT JUMPDEST PUSH8 0xDE0B6B3A7640000 DUP8 GT ISZERO PUSH2 0x31CE JUMPI PUSH1 0x40 MLOAD PUSH1 0xE5 PUSH1 0x2 EXP PUSH3 0x461BCD MUL DUP2 MSTORE PUSH1 0x4 ADD DUP1 DUP1 PUSH1 0x20 ADD DUP3 DUP2 SUB DUP3 MSTORE PUSH1 0x21 DUP2 MSTORE PUSH1 0x20 ADD DUP1 PUSH2 0x5BE8 PUSH1 0x21 SWAP2 CODECOPY PUSH1 0x40 ADD SWAP2 POP POP PUSH1 0x40 MLOAD DUP1 SWAP2 SUB SWAP1 REVERT JUMPDEST PUSH8 0xDE0B6B3A7640000 DUP7 GT ISZERO PUSH2 0x322E JUMPI PUSH1 0x40 DUP1 MLOAD PUSH1 0xE5 PUSH1 0x2 EXP PUSH3 0x461BCD MUL DUP2 MSTORE PUSH1 0x20 PUSH1 0x4 DUP3 ADD DUP2 SWAP1 MSTORE PUSH1 0x24 DUP3 ADD MSTORE PUSH32 0x5F6772616365506572696F644C656E6774682065786365656473206C696D6974 PUSH1 0x44 DUP3 ADD MSTORE SWAP1 MLOAD SWAP1 DUP2 SWAP1 SUB PUSH1 0x64 ADD SWAP1 REVERT JUMPDEST PUSH1 0x0 DUP5 GT PUSH2 0x3286 JUMPI PUSH1 0x40 DUP1 MLOAD PUSH1 0xE5 PUSH1 0x2 EXP PUSH3 0x461BCD MUL DUP2 MSTORE PUSH1 0x20 PUSH1 0x4 DUP3 ADD MSTORE PUSH1 0x1A PUSH1 0x24 DUP3 ADD MSTORE PUSH32 0x5F64696C7574696F6E426F756E642063616E6E6F742062652030000000000000 PUSH1 0x44 DUP3 ADD MSTORE SWAP1 MLOAD SWAP1 DUP2 SWAP1 SUB PUSH1 0x64 ADD SWAP1 REVERT JUMPDEST PUSH8 0xDE0B6B3A7640000 DUP5 GT ISZERO PUSH2 0x32E6 JUMPI PUSH1 0x40 DUP1 MLOAD PUSH1 0xE5 PUSH1 0x2 EXP PUSH3 0x461BCD MUL DUP2 MSTORE PUSH1 0x20 PUSH1 0x4 DUP3 ADD MSTORE PUSH1 0x1C PUSH1 0x24 DUP3 ADD MSTORE PUSH32 0x5F64696C7574696F6E426F756E642065786365656473206C696D697400000000 PUSH1 0x44 DUP3 ADD MSTORE SWAP1 MLOAD SWAP1 DUP2 SWAP1 SUB PUSH1 0x64 ADD SWAP1 REVERT JUMPDEST PUSH1 0x0 DUP10 GT PUSH2 0x333E JUMPI PUSH1 0x40 DUP1 MLOAD PUSH1 0xE5 PUSH1 0x2 EXP PUSH3 0x461BCD MUL DUP2 MSTORE PUSH1 0x20 PUSH1 0x4 DUP3 ADD DUP2 SWAP1 MSTORE PUSH1 0x24 DUP3 ADD MSTORE PUSH32 0x6E656564206174206C65617374206F6E6520617070726F76656420746F6B656E PUSH1 0x44 DUP3 ADD MSTORE SWAP1 MLOAD SWAP1 DUP2 SWAP1 SUB PUSH1 0x64 ADD SWAP1 REVERT JUMPDEST PUSH2 0x190 DUP10 GT ISZERO PUSH2 0x3398 JUMPI PUSH1 0x40 DUP1 MLOAD PUSH1 0xE5 PUSH1 0x2 EXP PUSH3 0x461BCD MUL DUP2 MSTORE PUSH1 0x20 PUSH1 0x4 DUP3 ADD MSTORE PUSH1 0xF PUSH1 0x24 DUP3 ADD MSTORE PUSH32 0x746F6F206D616E7920746F6B656E730000000000000000000000000000000000 PUSH1 0x44 DUP3 ADD MSTORE SWAP1 MLOAD SWAP1 DUP2 SWAP1 SUB PUSH1 0x64 ADD SWAP1 REVERT JUMPDEST DUP3 DUP6 LT ISZERO PUSH2 0x33DA JUMPI PUSH1 0x40 MLOAD PUSH1 0xE5 PUSH1 0x2 EXP PUSH3 0x461BCD MUL DUP2 MSTORE PUSH1 0x4 ADD DUP1 DUP1 PUSH1 0x20 ADD DUP3 DUP2 SUB DUP3 MSTORE PUSH1 0x39 DUP2 MSTORE PUSH1 0x20 ADD DUP1 PUSH2 0x5D4F PUSH1 0x39 SWAP2 CODECOPY PUSH1 0x40 ADD SWAP2 POP POP PUSH1 0x40 MLOAD DUP1 SWAP2 SUB SWAP1 REVERT JUMPDEST DUP10 DUP10 PUSH1 0x0 DUP2 DUP2 LT PUSH2 0x33E7 JUMPI INVALID JUMPDEST SWAP1 POP PUSH1 0x20 MUL ADD CALLDATALOAD PUSH1 0x1 PUSH1 0xA0 PUSH1 0x2 EXP SUB AND PUSH1 0x8 PUSH1 0x1 PUSH2 0x100 EXP DUP2 SLOAD DUP2 PUSH1 0x1 PUSH1 0xA0 PUSH1 0x2 EXP SUB MUL NOT AND SWAP1 DUP4 PUSH1 0x1 PUSH1 0xA0 PUSH1 0x2 EXP SUB AND MUL OR SWAP1 SSTORE POP PUSH1 0x0 DUP1 SWAP1 POP JUMPDEST DUP12 DUP2 LT ISZERO PUSH2 0x3666 JUMPI PUSH1 0x0 DUP14 DUP14 DUP4 DUP2 DUP2 LT PUSH2 0x3439 JUMPI INVALID JUMPDEST SWAP1 POP PUSH1 0x20 MUL ADD CALLDATALOAD PUSH1 0x1 PUSH1 0xA0 PUSH1 0x2 EXP SUB AND PUSH1 0x1 PUSH1 0xA0 PUSH1 0x2 EXP SUB AND EQ ISZERO ISZERO ISZERO PUSH2 0x34AA JUMPI PUSH1 0x40 DUP1 MLOAD PUSH1 0xE5 PUSH1 0x2 EXP PUSH3 0x461BCD MUL DUP2 MSTORE PUSH1 0x20 PUSH1 0x4 DUP3 ADD MSTORE PUSH1 0x14 PUSH1 0x24 DUP3 ADD MSTORE PUSH32 0x73756D6D6F6E65722063616E6E6F742062652030000000000000000000000000 PUSH1 0x44 DUP3 ADD MSTORE SWAP1 MLOAD SWAP1 DUP2 SWAP1 SUB PUSH1 0x64 ADD SWAP1 REVERT JUMPDEST PUSH1 0x40 DUP1 MLOAD PUSH1 0xC0 DUP2 ADD SWAP1 SWAP2 MSTORE DUP1 DUP15 DUP15 DUP5 DUP2 DUP2 LT PUSH2 0x34C2 JUMPI INVALID JUMPDEST SWAP1 POP PUSH1 0x20 MUL ADD CALLDATALOAD PUSH1 0x1 PUSH1 0xA0 PUSH1 0x2 EXP SUB AND PUSH1 0x1 PUSH1 0xA0 PUSH1 0x2 EXP SUB AND DUP2 MSTORE PUSH1 0x20 ADD DUP5 DUP5 DUP5 DUP2 DUP2 LT ISZERO ISZERO PUSH2 0x34EE JUMPI INVALID JUMPDEST SWAP1 POP PUSH1 0x20 MUL ADD CALLDATALOAD DUP2 MSTORE PUSH1 0x20 ADD PUSH1 0x0 DUP2 MSTORE PUSH1 0x20 ADD PUSH1 0x1 ISZERO ISZERO DUP2 MSTORE PUSH1 0x20 ADD PUSH1 0x0 DUP2 MSTORE PUSH1 0x20 ADD PUSH1 0x0 DUP2 MSTORE POP PUSH1 0x12 PUSH1 0x0 DUP16 DUP16 DUP6 DUP2 DUP2 LT ISZERO ISZERO PUSH2 0x3528 JUMPI INVALID JUMPDEST PUSH1 0x20 SWAP1 DUP2 MUL SWAP3 SWAP1 SWAP3 ADD CALLDATALOAD PUSH1 0x1 PUSH1 0xA0 PUSH1 0x2 EXP SUB SWAP1 DUP2 AND DUP5 MSTORE DUP4 DUP4 ADD SWAP5 SWAP1 SWAP5 MSTORE POP PUSH1 0x40 SWAP2 DUP3 ADD PUSH1 0x0 KECCAK256 DUP5 MLOAD DUP2 SLOAD PUSH20 0xFFFFFFFFFFFFFFFFFFFFFFFFFFFFFFFFFFFFFFFF NOT AND SWAP5 AND SWAP4 SWAP1 SWAP4 OR DUP4 SSTORE DUP4 ADD MLOAD PUSH1 0x1 DUP4 ADD SSTORE DUP3 ADD MLOAD PUSH1 0x2 DUP3 ADD SSTORE PUSH1 0x60 DUP3 ADD MLOAD PUSH1 0x3 DUP3 ADD DUP1 SLOAD PUSH1 0xFF NOT AND SWAP2 ISZERO ISZERO SWAP2 SWAP1 SWAP2 OR SWAP1 SSTORE PUSH1 0x80 DUP3 ADD MLOAD PUSH1 0x4 DUP3 ADD SSTORE PUSH1 0xA0 SWAP1 SWAP2 ADD MLOAD PUSH1 0x5 SWAP1 SWAP2 ADD SSTORE DUP13 DUP13 DUP3 DUP2 DUP2 LT PUSH2 0x35BC JUMPI INVALID JUMPDEST SWAP1 POP PUSH1 0x20 MUL ADD CALLDATALOAD PUSH1 0x1 PUSH1 0xA0 PUSH1 0x2 EXP SUB AND PUSH1 0x13 PUSH1 0x0 DUP16 DUP16 DUP6 DUP2 DUP2 LT ISZERO ISZERO PUSH2 0x35DE JUMPI INVALID JUMPDEST SWAP1 POP PUSH1 0x20 MUL ADD CALLDATALOAD PUSH1 0x1 PUSH1 0xA0 PUSH1 0x2 EXP SUB AND PUSH1 0x1 PUSH1 0xA0 PUSH1 0x2 EXP SUB AND PUSH1 0x1 PUSH1 0xA0 PUSH1 0x2 EXP SUB AND DUP2 MSTORE PUSH1 0x20 ADD SWAP1 DUP2 MSTORE PUSH1 0x20 ADD PUSH1 0x0 KECCAK256 PUSH1 0x0 PUSH2 0x100 EXP DUP2 SLOAD DUP2 PUSH1 0x1 PUSH1 0xA0 PUSH1 0x2 EXP SUB MUL NOT AND SWAP1 DUP4 PUSH1 0x1 PUSH1 0xA0 PUSH1 0x2 EXP SUB AND MUL OR SWAP1 SSTORE POP PUSH2 0x365B DUP4 DUP4 DUP4 DUP2 DUP2 LT ISZERO ISZERO PUSH2 0x3643 JUMPI INVALID JUMPDEST SWAP1 POP PUSH1 0x20 MUL ADD CALLDATALOAD PUSH1 0xA SLOAD PUSH2 0x556D SWAP1 SWAP2 SWAP1 PUSH4 0xFFFFFFFF AND JUMP JUMPDEST PUSH1 0xA SSTORE PUSH1 0x1 ADD PUSH2 0x3423 JUMP JUMPDEST POP PUSH1 0xA SLOAD PUSH8 0xDE0B6B3A7640000 LT ISZERO PUSH2 0x36C9 JUMPI PUSH1 0x40 DUP1 MLOAD PUSH1 0xE5 PUSH1 0x2 EXP PUSH3 0x461BCD MUL DUP2 MSTORE PUSH1 0x20 PUSH1 0x4 DUP3 ADD MSTORE PUSH1 0x19 PUSH1 0x24 DUP3 ADD MSTORE PUSH32 0x746F6F206D616E79207368617265732072657175657374656400000000000000 PUSH1 0x44 DUP3 ADD MSTORE SWAP1 MLOAD SWAP1 DUP2 SWAP1 SUB PUSH1 0x64 ADD SWAP1 REVERT JUMPDEST PUSH1 0x0 JUMPDEST DUP10 DUP2 LT ISZERO PUSH2 0x387F JUMPI PUSH1 0x0 DUP12 DUP12 DUP4 DUP2 DUP2 LT PUSH2 0x36E2 JUMPI INVALID JUMPDEST SWAP1 POP PUSH1 0x20 MUL ADD CALLDATALOAD PUSH1 0x1 PUSH1 0xA0 PUSH1 0x2 EXP SUB AND PUSH1 0x1 PUSH1 0xA0 PUSH1 0x2 EXP SUB AND EQ ISZERO ISZERO ISZERO PUSH2 0x3753 JUMPI PUSH1 0x40 DUP1 MLOAD PUSH1 0xE5 PUSH1 0x2 EXP PUSH3 0x461BCD MUL DUP2 MSTORE PUSH1 0x20 PUSH1 0x4 DUP3 ADD MSTORE PUSH1 0x1A PUSH1 0x24 DUP3 ADD MSTORE PUSH32 0x5F617070726F766564546F6B656E2063616E6E6F742062652030000000000000 PUSH1 0x44 DUP3 ADD MSTORE SWAP1 MLOAD SWAP1 DUP2 SWAP1 SUB PUSH1 0x64 ADD SWAP1 REVERT JUMPDEST PUSH1 0xE PUSH1 0x0 DUP13 DUP13 DUP5 DUP2 DUP2 LT PUSH2 0x3763 JUMPI INVALID JUMPDEST PUSH1 0x20 SWAP1 DUP2 MUL SWAP3 SWAP1 SWAP3 ADD CALLDATALOAD PUSH1 0x1 PUSH1 0xA0 PUSH1 0x2 EXP SUB AND DUP4 MSTORE POP DUP2 ADD SWAP2 SWAP1 SWAP2 MSTORE PUSH1 0x40 ADD PUSH1 0x0 KECCAK256 SLOAD PUSH1 0xFF AND ISZERO PUSH2 0x37DE JUMPI PUSH1 0x40 DUP1 MLOAD PUSH1 0xE5 PUSH1 0x2 EXP PUSH3 0x461BCD MUL DUP2 MSTORE PUSH1 0x20 PUSH1 0x4 DUP3 ADD MSTORE PUSH1 0x18 PUSH1 0x24 DUP3 ADD MSTORE PUSH32 0x6475706C696361746520617070726F76656420746F6B656E0000000000000000 PUSH1 0x44 DUP3 ADD MSTORE SWAP1 MLOAD SWAP1 DUP2 SWAP1 SUB PUSH1 0x64 ADD SWAP1 REVERT JUMPDEST PUSH1 0x1 PUSH1 0xE PUSH1 0x0 DUP14 DUP14 DUP6 DUP2 DUP2 LT PUSH2 0x37F0 JUMPI INVALID JUMPDEST PUSH1 0x20 SWAP1 DUP2 MUL SWAP3 SWAP1 SWAP3 ADD CALLDATALOAD PUSH1 0x1 PUSH1 0xA0 PUSH1 0x2 EXP SUB AND DUP4 MSTORE POP DUP2 ADD SWAP2 SWAP1 SWAP2 MSTORE PUSH1 0x40 ADD PUSH1 0x0 KECCAK256 DUP1 SLOAD PUSH1 0xFF NOT AND SWAP2 ISZERO ISZERO SWAP2 SWAP1 SWAP2 OR SWAP1 SSTORE PUSH1 0xF DUP12 DUP12 DUP4 DUP2 DUP2 LT PUSH2 0x382F JUMPI INVALID JUMPDEST DUP4 SLOAD PUSH1 0x1 DUP2 DUP2 ADD DUP7 SSTORE PUSH1 0x0 SWAP6 DUP7 MSTORE PUSH1 0x20 SWAP6 DUP7 SWAP1 KECCAK256 SWAP1 SWAP2 ADD DUP1 SLOAD PUSH20 0xFFFFFFFFFFFFFFFFFFFFFFFFFFFFFFFFFFFFFFFF NOT AND PUSH1 0x1 PUSH1 0xA0 PUSH1 0x2 EXP SUB SWAP7 SWAP1 SWAP4 MUL SWAP5 SWAP1 SWAP5 ADD CALLDATALOAD SWAP5 SWAP1 SWAP5 AND OR SWAP1 SWAP2 SSTORE POP ADD PUSH2 0x36CC JUMP JUMPDEST POP POP POP PUSH1 0x1 SWAP6 DUP7 SSTORE PUSH1 0x2 SWAP5 SWAP1 SWAP5 SSTORE PUSH1 0x3 SWAP3 SWAP1 SWAP3 SSTORE PUSH1 0x4 SSTORE PUSH1 0x5 SSTORE PUSH1 0x6 SSTORE TIMESTAMP PUSH1 0x7 SSTORE PUSH1 0x8 DUP1 SLOAD PUSH1 0xFF NOT AND SWAP1 SWAP2 OR SWAP1 SSTORE POP POP POP POP JUMP JUMPDEST PUSH1 0x5 SLOAD DUP2 JUMP JUMPDEST PUSH2 0x38C1 PUSH2 0x5742 JUMP JUMPDEST PUSH1 0x0 DUP3 DUP2 MSTORE PUSH1 0x15 PUSH1 0x20 MSTORE PUSH1 0x40 DUP1 DUP3 KECCAK256 DUP2 MLOAD PUSH1 0xC0 DUP2 ADD SWAP3 DUP4 SWAP1 MSTORE SWAP3 PUSH1 0xC SWAP1 SWAP2 ADD SWAP2 PUSH1 0x6 SWAP2 DUP4 SWAP1 DUP6 JUMPDEST DUP3 SLOAD PUSH2 0x100 DUP4 SWAP1 EXP SWAP1 DIV PUSH1 0xFF AND ISZERO ISZERO DUP2 MSTORE PUSH1 0x20 PUSH1 0x1 SWAP3 DUP4 ADD DUP2 DUP2 DIV SWAP5 DUP6 ADD SWAP5 SWAP1 SWAP4 SUB SWAP1 SWAP3 MUL SWAP2 ADD DUP1 DUP5 GT PUSH2 0x38E8 JUMPI POP SWAP5 SWAP8 SWAP7 POP POP POP POP POP POP POP JUMP JUMPDEST PUSH1 0x14 DUP1 SLOAD DUP3 SWAP1 DUP2 LT PUSH2 0x1402 JUMPI INVALID JUMPDEST PUSH1 0x1 SLOAD DUP2 JUMP JUMPDEST PUSH1 0x8 SLOAD PUSH2 0x100 SWAP1 DIV PUSH1 0x1 PUSH1 0xA0 PUSH1 0x2 EXP SUB AND DUP2 JUMP JUMPDEST PUSH1 0x9 SLOAD DUP2 JUMP JUMPDEST PUSH1 0x0 SLOAD PUSH1 0x2 EQ ISZERO PUSH2 0x399A JUMPI PUSH1 0x40 DUP1 MLOAD PUSH1 0xE5 PUSH1 0x2 EXP PUSH3 0x461BCD MUL DUP2 MSTORE PUSH1 0x20 PUSH1 0x4 DUP3 ADD MSTORE PUSH1 0x1F PUSH1 0x24 DUP3 ADD MSTORE PUSH1 0x0 DUP1 MLOAD PUSH1 0x20 PUSH2 0x5977 DUP4 CODECOPY DUP2 MLOAD SWAP2 MSTORE PUSH1 0x44 DUP3 ADD MSTORE SWAP1 MLOAD SWAP1 DUP2 SWAP1 SUB PUSH1 0x64 ADD SWAP1 REVERT JUMPDEST PUSH1 0x2 PUSH1 0x0 SWAP1 DUP2 SSTORE PUSH1 0x1 PUSH1 0xA0 PUSH1 0x2 EXP SUB DUP3 AND DUP2 MSTORE PUSH1 0x12 PUSH1 0x20 MSTORE PUSH1 0x40 SWAP1 KECCAK256 PUSH1 0x5 DUP2 ADD SLOAD ISZERO ISZERO PUSH2 0x3A11 JUMPI PUSH1 0x40 DUP1 MLOAD PUSH1 0xE5 PUSH1 0x2 EXP PUSH3 0x461BCD MUL DUP2 MSTORE PUSH1 0x20 PUSH1 0x4 DUP3 ADD MSTORE PUSH1 0x16 PUSH1 0x24 DUP3 ADD MSTORE PUSH32 0x6D656D626572206D75737420626520696E206A61696C00000000000000000000 PUSH1 0x44 DUP3 ADD MSTORE SWAP1 MLOAD SWAP1 DUP2 SWAP1 SUB PUSH1 0x64 ADD SWAP1 REVERT JUMPDEST PUSH1 0x2 DUP2 ADD SLOAD PUSH1 0x0 LT PUSH2 0x3A6D JUMPI PUSH1 0x40 DUP1 MLOAD PUSH1 0xE5 PUSH1 0x2 EXP PUSH3 0x461BCD MUL DUP2 MSTORE PUSH1 0x20 PUSH1 0x4 DUP3 ADD MSTORE PUSH1 0x1A PUSH1 0x24 DUP3 ADD MSTORE PUSH32 0x6D656D626572206D757374206861766520736F6D65206C6F6F74000000000000 PUSH1 0x44 DUP3 ADD MSTORE SWAP1 MLOAD SWAP1 DUP2 SWAP1 SUB PUSH1 0x64 ADD SWAP1 REVERT JUMPDEST PUSH2 0x3A7A DUP2 PUSH1 0x4 ADD SLOAD PUSH2 0x2F82 JUMP JUMPDEST ISZERO ISZERO PUSH2 0x3ABA JUMPI PUSH1 0x40 MLOAD PUSH1 0xE5 PUSH1 0x2 EXP PUSH3 0x461BCD MUL DUP2 MSTORE PUSH1 0x4 ADD DUP1 DUP1 PUSH1 0x20 ADD DUP3 DUP2 SUB DUP3 MSTORE PUSH1 0x4D DUP2 MSTORE PUSH1 0x20 ADD DUP1 PUSH2 0x5997 PUSH1 0x4D SWAP2 CODECOPY PUSH1 0x60 ADD SWAP2 POP POP PUSH1 0x40 MLOAD DUP1 SWAP2 SUB SWAP1 REVERT JUMPDEST PUSH2 0x1171 DUP3 PUSH1 0x0 DUP4 PUSH1 0x2 ADD SLOAD PUSH2 0x4C09 JUMP JUMPDEST PUSH1 0x0 SLOAD PUSH1 0x2 EQ ISZERO PUSH2 0x3B13 JUMPI PUSH1 0x40 DUP1 MLOAD PUSH1 0xE5 PUSH1 0x2 EXP PUSH3 0x461BCD MUL DUP2 MSTORE PUSH1 0x20 PUSH1 0x4 DUP3 ADD MSTORE PUSH1 0x1F PUSH1 0x24 DUP3 ADD MSTORE PUSH1 0x0 DUP1 MLOAD PUSH1 0x20 PUSH2 0x5977 DUP4 CODECOPY DUP2 MLOAD SWAP2 MSTORE PUSH1 0x44 DUP3 ADD MSTORE SWAP1 MLOAD SWAP1 DUP2 SWAP1 SUB PUSH1 0x64 ADD SWAP1 REVERT JUMPDEST PUSH1 0x2 PUSH1 0x0 SWAP1 DUP2 SSTORE DUP2 DUP2 MSTORE PUSH1 0x15 PUSH1 0x20 MSTORE PUSH1 0x40 SWAP1 KECCAK256 PUSH1 0xC DUP2 ADD SLOAD PUSH1 0xFF AND ISZERO PUSH2 0x3B6D JUMPI PUSH1 0x40 MLOAD PUSH1 0xE5 PUSH1 0x2 EXP PUSH3 0x461BCD MUL DUP2 MSTORE PUSH1 0x4 ADD DUP1 DUP1 PUSH1 0x20 ADD DUP3 DUP2 SUB DUP3 MSTORE PUSH1 0x23 DUP2 MSTORE PUSH1 0x20 ADD DUP1 PUSH2 0x5C09 PUSH1 0x23 SWAP2 CODECOPY PUSH1 0x40 ADD SWAP2 POP POP PUSH1 0x40 MLOAD DUP1 SWAP2 SUB SWAP1 REVERT JUMPDEST PUSH1 0xC DUP2 ADD SLOAD PUSH4 0x1000000 SWAP1 DIV PUSH1 0xFF AND ISZERO PUSH2 0x3BBB JUMPI PUSH1 0x40 MLOAD PUSH1 0xE5 PUSH1 0x2 EXP PUSH3 0x461BCD MUL DUP2 MSTORE PUSH1 0x4 ADD DUP1 DUP1 PUSH1 0x20 ADD DUP3 DUP2 SUB DUP3 MSTORE PUSH1 0x23 DUP2 MSTORE PUSH1 0x20 ADD DUP1 PUSH2 0x5D03 PUSH1 0x23 SWAP2 CODECOPY PUSH1 0x40 ADD SWAP2 POP POP PUSH1 0x40 MLOAD DUP1 SWAP2 SUB SWAP1 REVERT JUMPDEST PUSH1 0x1 DUP2 ADD SLOAD PUSH1 0x1 PUSH1 0xA0 PUSH1 0x2 EXP SUB AND CALLER EQ PUSH2 0x3C1F JUMPI PUSH1 0x40 DUP1 MLOAD PUSH1 0xE5 PUSH1 0x2 EXP PUSH3 0x461BCD MUL DUP2 MSTORE PUSH1 0x20 PUSH1 0x4 DUP3 ADD MSTORE PUSH1 0x1E PUSH1 0x24 DUP3 ADD MSTORE PUSH32 0x736F6C656C79207468652070726F706F7365722063616E2063616E63656C0000 PUSH1 0x44 DUP3 ADD MSTORE SWAP1 MLOAD SWAP1 DUP2 SWAP1 SUB PUSH1 0x64 ADD SWAP1 REVERT JUMPDEST PUSH1 0xC DUP2 ADD DUP1 SLOAD PUSH4 0xFF000000 NOT AND PUSH4 0x1000000 OR SWAP1 SSTORE PUSH1 0x1 DUP2 ADD SLOAD PUSH1 0x6 DUP3 ADD SLOAD PUSH1 0x5 DUP4 ADD SLOAD PUSH2 0x3C5F SWAP3 PUSH2 0xBEEF SWAP3 PUSH1 0x1 PUSH1 0xA0 PUSH1 0x2 EXP SUB SWAP2 DUP3 AND SWAP3 SWAP2 AND SWAP1 PUSH2 0x55FB JUMP JUMPDEST PUSH1 0x40 DUP1 MLOAD CALLER DUP2 MSTORE SWAP1 MLOAD DUP4 SWAP2 PUSH32 0xC215FED6680BB02D323DC3F8B8F85241572607538426059C9232601BD293C3BE SWAP2 SWAP1 DUP2 SWAP1 SUB PUSH1 0x20 ADD SWAP1 LOG2 POP POP PUSH1 0x1 PUSH1 0x0 SSTORE JUMP JUMPDEST PUSH1 0x10 PUSH1 0x20 MSTORE PUSH1 0x0 SWAP1 DUP2 MSTORE PUSH1 0x40 SWAP1 KECCAK256 SLOAD PUSH1 0xFF AND DUP2 JUMP JUMPDEST PUSH1 0x0 SLOAD PUSH1 0x2 EQ ISZERO PUSH2 0x3CFC JUMPI PUSH1 0x40 DUP1 MLOAD PUSH1 0xE5 PUSH1 0x2 EXP PUSH3 0x461BCD MUL DUP2 MSTORE PUSH1 0x20 PUSH1 0x4 DUP3 ADD MSTORE PUSH1 0x1F PUSH1 0x24 DUP3 ADD MSTORE PUSH1 0x0 DUP1 MLOAD PUSH1 0x20 PUSH2 0x5977 DUP4 CODECOPY DUP2 MLOAD SWAP2 MSTORE PUSH1 0x44 DUP3 ADD MSTORE SWAP1 MLOAD SWAP1 DUP2 SWAP1 SUB PUSH1 0x64 ADD SWAP1 REVERT JUMPDEST PUSH1 0x2 PUSH1 0x0 SSTORE PUSH2 0x3D0A DUP2 PUSH2 0x4F4A JUMP JUMPDEST PUSH1 0x0 PUSH1 0x16 DUP3 DUP2 SLOAD DUP2 LT ISZERO ISZERO PUSH2 0x3D1B JUMPI INVALID JUMPDEST PUSH1 0x0 SWAP2 DUP3 MSTORE PUSH1 0x20 DUP1 DUP4 KECCAK256 SWAP2 SWAP1 SWAP2 ADD SLOAD DUP1 DUP4 MSTORE PUSH1 0x15 SWAP1 SWAP2 MSTORE PUSH1 0x40 SWAP1 SWAP2 KECCAK256 PUSH1 0xC DUP2 ADD SLOAD SWAP2 SWAP3 POP SWAP1 PUSH6 0x10000000000 SWAP1 DIV PUSH1 0xFF AND ISZERO ISZERO PUSH2 0x3DA2 JUMPI PUSH1 0x40 DUP1 MLOAD PUSH1 0xE5 PUSH1 0x2 EXP PUSH3 0x461BCD MUL DUP2 MSTORE PUSH1 0x20 PUSH1 0x4 DUP3 ADD MSTORE PUSH1 0x1D PUSH1 0x24 DUP3 ADD MSTORE PUSH32 0x6D7573742062652061206775696C64206B69636B2070726F706F73616C000000 PUSH1 0x44 DUP3 ADD MSTORE SWAP1 MLOAD SWAP1 DUP2 SWAP1 SUB PUSH1 0x64 ADD SWAP1 REVERT JUMPDEST PUSH1 0xC DUP2 ADD DUP1 SLOAD PUSH2 0xFF00 NOT AND PUSH2 0x100 OR SWAP1 SSTORE PUSH1 0x0 PUSH2 0x3DBE DUP5 PUSH2 0x52CB JUMP JUMPDEST SWAP1 POP DUP1 ISZERO PUSH2 0x3E4E JUMPI PUSH1 0xC DUP3 ADD DUP1 SLOAD PUSH3 0xFF0000 NOT AND PUSH3 0x10000 OR SWAP1 SSTORE DUP2 SLOAD PUSH1 0x1 PUSH1 0xA0 PUSH1 0x2 EXP SUB AND PUSH1 0x0 SWAP1 DUP2 MSTORE PUSH1 0x12 PUSH1 0x20 MSTORE PUSH1 0x40 SWAP1 KECCAK256 PUSH1 0x5 DUP2 ADD DUP6 SWAP1 SSTORE PUSH1 0x1 DUP2 ADD SLOAD PUSH1 0x2 DUP3 ADD SLOAD PUSH2 0x3E0C SWAP2 PUSH2 0x556D JUMP JUMPDEST PUSH1 0x2 DUP3 ADD SSTORE PUSH1 0x1 DUP2 ADD SLOAD PUSH1 0xA SLOAD PUSH2 0x3E28 SWAP2 PUSH4 0xFFFFFFFF PUSH2 0x465E AND JUMP JUMPDEST PUSH1 0xA SSTORE PUSH1 0x1 DUP2 ADD SLOAD PUSH1 0xB SLOAD PUSH2 0x3E42 SWAP2 PUSH4 0xFFFFFFFF PUSH2 0x556D AND JUMP JUMPDEST PUSH1 0xB SSTORE PUSH1 0x0 PUSH1 0x1 SWAP1 SWAP2 ADD SSTORE JUMPDEST DUP2 SLOAD PUSH1 0x1 PUSH1 0xA0 PUSH1 0x2 EXP SUB SWAP1 DUP2 AND PUSH1 0x0 SWAP1 DUP2 MSTORE PUSH1 0x11 PUSH1 0x20 MSTORE PUSH1 0x40 SWAP1 KECCAK256 DUP1 SLOAD PUSH1 0xFF NOT AND SWAP1 SSTORE PUSH1 0x2 DUP4 ADD SLOAD PUSH2 0x3E80 SWAP2 AND PUSH2 0x550C JUMP JUMPDEST PUSH1 0x40 DUP1 MLOAD DUP3 ISZERO ISZERO DUP2 MSTORE SWAP1 MLOAD DUP5 SWAP2 DUP7 SWAP2 PUSH32 0xE347D00D3E9E6CDFF9E6C09092C9FF1BD448F9B3DFB7091B30939EC5E7A3C73 SWAP2 DUP2 SWAP1 SUB PUSH1 0x20 ADD SWAP1 LOG3 POP POP PUSH1 0x1 PUSH1 0x0 SSTORE POP POP JUMP JUMPDEST PUSH1 0x0 SLOAD PUSH1 0x2 EQ ISZERO PUSH2 0x3F0D JUMPI PUSH1 0x40 DUP1 MLOAD PUSH1 0xE5 PUSH1 0x2 EXP PUSH3 0x461BCD MUL DUP2 MSTORE PUSH1 0x20 PUSH1 0x4 DUP3 ADD MSTORE PUSH1 0x1F PUSH1 0x24 DUP3 ADD MSTORE PUSH1 0x0 DUP1 MLOAD PUSH1 0x20 PUSH2 0x5977 DUP4 CODECOPY DUP2 MLOAD SWAP2 MSTORE PUSH1 0x44 DUP3 ADD MSTORE SWAP1 MLOAD SWAP1 DUP2 SWAP1 SUB PUSH1 0x64 ADD SWAP1 REVERT JUMPDEST PUSH1 0x2 PUSH1 0x0 SSTORE PUSH2 0x3F1B DUP2 PUSH2 0x4F4A JUMP JUMPDEST PUSH1 0x0 PUSH1 0x16 DUP3 DUP2 SLOAD DUP2 LT ISZERO ISZERO PUSH2 0x3F2C JUMPI INVALID JUMPDEST PUSH1 0x0 SWAP2 DUP3 MSTORE PUSH1 0x20 DUP1 DUP4 KECCAK256 SWAP2 SWAP1 SWAP2 ADD SLOAD DUP1 DUP4 MSTORE PUSH1 0x15 SWAP1 SWAP2 MSTORE PUSH1 0x40 SWAP1 SWAP2 KECCAK256 PUSH1 0xC DUP2 ADD SLOAD SWAP2 SWAP3 POP SWAP1 PUSH5 0x100000000 SWAP1 DIV PUSH1 0xFF AND ISZERO DUP1 ISZERO PUSH2 0x3F77 JUMPI POP PUSH1 0xC DUP2 ADD SLOAD PUSH6 0x10000000000 SWAP1 DIV PUSH1 0xFF AND ISZERO JUMPDEST ISZERO ISZERO PUSH2 0x3FCD JUMPI PUSH1 0x40 DUP1 MLOAD PUSH1 0xE5 PUSH1 0x2 EXP PUSH3 0x461BCD MUL DUP2 MSTORE PUSH1 0x20 PUSH1 0x4 DUP3 ADD MSTORE PUSH1 0x1B PUSH1 0x24 DUP3 ADD MSTORE PUSH32 0x6D7573742062652061207374616E646172642070726F706F73616C0000000000 PUSH1 0x44 DUP3 ADD MSTORE SWAP1 MLOAD SWAP1 DUP2 SWAP1 SUB PUSH1 0x64 ADD SWAP1 REVERT JUMPDEST PUSH1 0xC DUP2 ADD DUP1 SLOAD PUSH2 0xFF00 NOT AND PUSH2 0x100 OR SWAP1 SSTORE PUSH1 0x0 PUSH2 0x3FE9 DUP5 PUSH2 0x52CB JUMP JUMPDEST SWAP1 POP PUSH8 0xDE0B6B3A7640000 PUSH2 0x401B DUP4 PUSH1 0x4 ADD SLOAD PUSH2 0x2983 DUP6 PUSH1 0x3 ADD SLOAD PUSH2 0x2983 PUSH1 0xB SLOAD PUSH1 0xA SLOAD PUSH2 0x556D SWAP1 SWAP2 SWAP1 PUSH4 0xFFFFFFFF AND JUMP JUMPDEST GT ISZERO PUSH2 0x4025 JUMPI POP PUSH1 0x0 JUMPDEST PUSH1 0x8 DUP3 ADD SLOAD PUSH1 0x1 PUSH1 0xA0 PUSH1 0x2 EXP SUB AND PUSH1 0x0 SWAP1 DUP2 MSTORE PUSH32 0xDC7FAFDC41998A74ECACB8F8BD877011ABA1F1D03A3A0D37A2E7879A393B1D6A PUSH1 0x20 MSTORE PUSH1 0x40 SWAP1 KECCAK256 SLOAD PUSH1 0x7 DUP4 ADD SLOAD GT ISZERO PUSH2 0x4070 JUMPI POP PUSH1 0x0 JUMPDEST PUSH1 0x0 DUP3 PUSH1 0x5 ADD SLOAD GT DUP1 ISZERO PUSH2 0x40BD JUMPI POP PUSH1 0x6 DUP3 ADD SLOAD PUSH1 0x1 PUSH1 0xA0 PUSH1 0x2 EXP SUB AND PUSH1 0x0 SWAP1 DUP2 MSTORE PUSH32 0xDC7FAFDC41998A74ECACB8F8BD877011ABA1F1D03A3A0D37A2E7879A393B1D6A PUSH1 0x20 MSTORE PUSH1 0x40 SWAP1 KECCAK256 SLOAD ISZERO JUMPDEST DUP1 ISZERO PUSH2 0x40CC JUMPI POP PUSH1 0xC8 PUSH1 0xC SLOAD LT ISZERO JUMPDEST ISZERO PUSH2 0x40D5 JUMPI POP PUSH1 0x0 JUMPDEST DUP1 ISZERO PUSH2 0x4448 JUMPI PUSH1 0xC DUP3 ADD DUP1 SLOAD PUSH3 0xFF0000 NOT AND PUSH3 0x10000 OR SWAP1 SSTORE DUP2 SLOAD PUSH1 0x1 PUSH1 0xA0 PUSH1 0x2 EXP SUB AND PUSH1 0x0 SWAP1 DUP2 MSTORE PUSH1 0x12 PUSH1 0x20 MSTORE PUSH1 0x40 SWAP1 KECCAK256 PUSH1 0x3 ADD SLOAD PUSH1 0xFF AND ISZERO PUSH2 0x41AC JUMPI PUSH1 0x3 DUP3 ADD SLOAD DUP3 SLOAD PUSH1 0x1 PUSH1 0xA0 PUSH1 0x2 EXP SUB AND PUSH1 0x0 SWAP1 DUP2 MSTORE PUSH1 0x12 PUSH1 0x20 MSTORE PUSH1 0x40 SWAP1 KECCAK256 PUSH1 0x1 ADD SLOAD PUSH2 0x4144 SWAP2 PUSH4 0xFFFFFFFF PUSH2 0x556D AND JUMP JUMPDEST DUP3 SLOAD PUSH1 0x1 PUSH1 0xA0 PUSH1 0x2 EXP SUB SWAP1 DUP2 AND PUSH1 0x0 SWAP1 DUP2 MSTORE PUSH1 0x12 PUSH1 0x20 MSTORE PUSH1 0x40 DUP1 DUP3 KECCAK256 PUSH1 0x1 ADD SWAP4 SWAP1 SWAP4 SSTORE PUSH1 0x4 DUP6 ADD SLOAD DUP6 SLOAD SWAP1 SWAP3 AND DUP2 MSTORE SWAP2 SWAP1 SWAP2 KECCAK256 PUSH1 0x2 ADD SLOAD PUSH2 0x418A SWAP2 PUSH4 0xFFFFFFFF PUSH2 0x556D AND JUMP JUMPDEST DUP3 SLOAD PUSH1 0x1 PUSH1 0xA0 PUSH1 0x2 EXP SUB AND PUSH1 0x0 SWAP1 DUP2 MSTORE PUSH1 0x12 PUSH1 0x20 MSTORE PUSH1 0x40 SWAP1 KECCAK256 PUSH1 0x2 ADD SSTORE PUSH2 0x4309 JUMP JUMPDEST DUP2 SLOAD PUSH1 0x1 PUSH1 0xA0 PUSH1 0x2 EXP SUB SWAP1 DUP2 AND PUSH1 0x0 SWAP1 DUP2 MSTORE PUSH1 0x13 PUSH1 0x20 SWAP1 DUP2 MSTORE PUSH1 0x40 DUP1 DUP4 KECCAK256 SLOAD SWAP1 SWAP4 AND DUP3 MSTORE PUSH1 0x12 SWAP1 MSTORE KECCAK256 PUSH1 0x3 ADD SLOAD PUSH1 0xFF AND ISZERO PUSH2 0x423D JUMPI DUP2 SLOAD PUSH1 0x1 PUSH1 0xA0 PUSH1 0x2 EXP SUB SWAP1 DUP2 AND PUSH1 0x0 SWAP1 DUP2 MSTORE PUSH1 0x13 PUSH1 0x20 SWAP1 DUP2 MSTORE PUSH1 0x40 DUP1 DUP4 KECCAK256 SLOAD SWAP1 SWAP4 AND DUP1 DUP4 MSTORE DUP4 DUP4 KECCAK256 DUP1 SLOAD PUSH20 0xFFFFFFFFFFFFFFFFFFFFFFFFFFFFFFFFFFFFFFFF NOT SWAP1 DUP2 AND DUP4 OR SWAP1 SWAP2 SSTORE PUSH1 0x12 SWAP1 SWAP3 MSTORE SWAP3 SWAP1 SWAP2 KECCAK256 DUP1 SLOAD SWAP1 SWAP2 AND SWAP1 SWAP2 OR SWAP1 SSTORE JUMPDEST PUSH1 0x40 DUP1 MLOAD PUSH1 0xC0 DUP2 ADD DUP3 MSTORE DUP4 SLOAD PUSH1 0x1 PUSH1 0xA0 PUSH1 0x2 EXP SUB SWAP1 DUP2 AND DUP1 DUP4 MSTORE PUSH1 0x3 DUP1 DUP8 ADD SLOAD PUSH1 0x20 DUP1 DUP7 ADD SWAP2 DUP3 MSTORE PUSH1 0x4 DUP1 DUP11 ADD SLOAD DUP8 DUP10 ADD SWAP1 DUP2 MSTORE PUSH1 0x1 PUSH1 0x60 DUP10 ADD DUP2 DUP2 MSTORE PUSH1 0x0 PUSH1 0x80 DUP12 ADD DUP2 DUP2 MSTORE PUSH1 0xA0 DUP13 ADD DUP3 DUP2 MSTORE SWAP10 DUP3 MSTORE PUSH1 0x12 DUP8 MSTORE DUP13 DUP3 KECCAK256 SWAP12 MLOAD DUP13 SLOAD SWAP1 DUP13 AND PUSH20 0xFFFFFFFFFFFFFFFFFFFFFFFFFFFFFFFFFFFFFFFF NOT SWAP2 DUP3 AND OR DUP14 SSTORE SWAP8 MLOAD SWAP4 DUP13 ADD SWAP4 SWAP1 SWAP4 SSTORE SWAP3 MLOAD PUSH1 0x2 DUP12 ADD SSTORE MLOAD SWAP6 DUP10 ADD DUP1 SLOAD SWAP7 ISZERO ISZERO PUSH1 0xFF NOT SWAP1 SWAP8 AND SWAP7 SWAP1 SWAP7 OR SWAP1 SWAP6 SSTORE SWAP4 MLOAD SWAP1 DUP8 ADD SSTORE SWAP3 MLOAD PUSH1 0x5 SWAP1 SWAP6 ADD SWAP5 SWAP1 SWAP5 SSTORE DUP7 SLOAD SWAP1 SWAP3 AND DUP1 DUP4 MSTORE PUSH1 0x13 SWAP1 SWAP2 MSTORE SWAP3 SWAP1 KECCAK256 DUP1 SLOAD SWAP1 SWAP2 AND SWAP1 SWAP2 OR SWAP1 SSTORE JUMPDEST PUSH1 0x3 DUP3 ADD SLOAD PUSH1 0xA SLOAD PUSH2 0x4320 SWAP2 PUSH4 0xFFFFFFFF PUSH2 0x556D AND JUMP JUMPDEST PUSH1 0xA SSTORE PUSH1 0x4 DUP3 ADD SLOAD PUSH1 0xB SLOAD PUSH2 0x433A SWAP2 PUSH4 0xFFFFFFFF PUSH2 0x556D AND JUMP JUMPDEST PUSH1 0xB SSTORE PUSH1 0x6 DUP3 ADD SLOAD PUSH1 0x1 PUSH1 0xA0 PUSH1 0x2 EXP SUB AND PUSH1 0x0 SWAP1 DUP2 MSTORE PUSH32 0xDC7FAFDC41998A74ECACB8F8BD877011ABA1F1D03A3A0D37A2E7879A393B1D6A PUSH1 0x20 MSTORE PUSH1 0x40 SWAP1 KECCAK256 SLOAD ISZERO DUP1 ISZERO PUSH2 0x438A JUMPI POP PUSH1 0x0 DUP3 PUSH1 0x5 ADD SLOAD GT JUMPDEST ISZERO PUSH2 0x4399 JUMPI PUSH1 0xC DUP1 SLOAD PUSH1 0x1 ADD SWAP1 SSTORE JUMPDEST PUSH1 0x6 DUP3 ADD SLOAD PUSH1 0x5 DUP4 ADD SLOAD PUSH2 0x43BE SWAP2 PUSH2 0xBEEF SWAP2 PUSH2 0xDEAD SWAP2 PUSH1 0x1 PUSH1 0xA0 PUSH1 0x2 EXP SUB AND SWAP1 PUSH2 0x55FB JUMP JUMPDEST DUP2 SLOAD PUSH1 0x8 DUP4 ADD SLOAD PUSH1 0x7 DUP5 ADD SLOAD PUSH2 0x43E6 SWAP3 PUSH2 0xDEAD SWAP3 PUSH1 0x1 PUSH1 0xA0 PUSH1 0x2 EXP SUB SWAP2 DUP3 AND SWAP3 SWAP2 AND SWAP1 PUSH2 0x55FB JUMP JUMPDEST PUSH1 0x8 DUP3 ADD SLOAD PUSH1 0x1 PUSH1 0xA0 PUSH1 0x2 EXP SUB AND PUSH1 0x0 SWAP1 DUP2 MSTORE PUSH32 0xDC7FAFDC41998A74ECACB8F8BD877011ABA1F1D03A3A0D37A2E7879A393B1D6A PUSH1 0x20 MSTORE PUSH1 0x40 SWAP1 KECCAK256 SLOAD ISZERO DUP1 ISZERO PUSH2 0x4433 JUMPI POP PUSH1 0x0 DUP3 PUSH1 0x7 ADD SLOAD GT JUMPDEST ISZERO PUSH2 0x4443 JUMPI PUSH1 0xC DUP1 SLOAD PUSH1 0x0 NOT ADD SWAP1 SSTORE JUMPDEST PUSH2 0x4473 JUMP JUMPDEST PUSH1 0x1 DUP3 ADD SLOAD PUSH1 0x6 DUP4 ADD SLOAD PUSH1 0x5 DUP5 ADD SLOAD PUSH2 0x4473 SWAP3 PUSH2 0xBEEF SWAP3 PUSH1 0x1 PUSH1 0xA0 PUSH1 0x2 EXP SUB SWAP2 DUP3 AND SWAP3 SWAP2 AND SWAP1 PUSH2 0x55FB JUMP JUMPDEST PUSH1 0x2 DUP3 ADD SLOAD PUSH2 0x448A SWAP1 PUSH1 0x1 PUSH1 0xA0 PUSH1 0x2 EXP SUB AND PUSH2 0x550C JUMP JUMPDEST PUSH1 0x40 DUP1 MLOAD DUP3 ISZERO ISZERO DUP2 MSTORE SWAP1 MLOAD DUP5 SWAP2 DUP7 SWAP2 PUSH32 0x86F74240ECEE9E4230D26FF92E17FEE978460D9C0F78F5C88B2864C9E7A49427 SWAP2 DUP2 SWAP1 SUB PUSH1 0x20 ADD SWAP1 LOG3 POP POP PUSH1 0x1 PUSH1 0x0 SSTORE POP POP JUMP JUMPDEST PUSH2 0xBEEF DUP2 JUMP JUMPDEST PUSH2 0xDEAD DUP2 JUMP JUMPDEST PUSH1 0x0 DUP1 SLOAD PUSH1 0x2 EQ ISZERO PUSH2 0x4524 JUMPI PUSH1 0x40 DUP1 MLOAD PUSH1 0xE5 PUSH1 0x2 EXP PUSH3 0x461BCD MUL DUP2 MSTORE PUSH1 0x20 PUSH1 0x4 DUP3 ADD MSTORE PUSH1 0x1F PUSH1 0x24 DUP3 ADD MSTORE PUSH1 0x0 DUP1 MLOAD PUSH1 0x20 PUSH2 0x5977 DUP4 CODECOPY DUP2 MLOAD SWAP2 MSTORE PUSH1 0x44 DUP3 ADD MSTORE SWAP1 MLOAD SWAP1 DUP2 SWAP1 SUB PUSH1 0x64 ADD SWAP1 REVERT JUMPDEST PUSH1 0x2 PUSH1 0x0 SSTORE PUSH1 0x1 PUSH1 0xA0 PUSH1 0x2 EXP SUB DUP4 AND ISZERO ISZERO PUSH2 0x4589 JUMPI PUSH1 0x40 DUP1 MLOAD PUSH1 0xE5 PUSH1 0x2 EXP PUSH3 0x461BCD MUL DUP2 MSTORE PUSH1 0x20 PUSH1 0x4 DUP3 ADD MSTORE PUSH1 0x1A PUSH1 0x24 DUP3 ADD MSTORE PUSH32 0x6D7573742070726F7669646520746F6B656E2061646472657373000000000000 PUSH1 0x44 DUP3 ADD MSTORE SWAP1 MLOAD SWAP1 DUP2 SWAP1 SUB PUSH1 0x64 ADD SWAP1 REVERT JUMPDEST PUSH1 0x1 PUSH1 0xA0 PUSH1 0x2 EXP SUB DUP4 AND PUSH1 0x0 SWAP1 DUP2 MSTORE PUSH1 0xE PUSH1 0x20 MSTORE PUSH1 0x40 SWAP1 KECCAK256 SLOAD PUSH1 0xFF AND ISZERO PUSH2 0x45E4 JUMPI PUSH1 0x40 MLOAD PUSH1 0xE5 PUSH1 0x2 EXP PUSH3 0x461BCD MUL DUP2 MSTORE PUSH1 0x4 ADD DUP1 DUP1 PUSH1 0x20 ADD DUP3 DUP2 SUB DUP3 MSTORE PUSH1 0x29 DUP2 MSTORE PUSH1 0x20 ADD DUP1 PUSH2 0x5D26 PUSH1 0x29 SWAP2 CODECOPY PUSH1 0x40 ADD SWAP2 POP POP PUSH1 0x40 MLOAD DUP1 SWAP2 SUB SWAP1 REVERT JUMPDEST PUSH1 0xF SLOAD PUSH2 0x190 GT PUSH2 0x4629 JUMPI PUSH1 0x40 MLOAD PUSH1 0xE5 PUSH1 0x2 EXP PUSH3 0x461BCD MUL DUP2 MSTORE PUSH1 0x4 ADD DUP1 DUP1 PUSH1 0x20 ADD DUP3 DUP2 SUB DUP3 MSTORE PUSH1 0x26 DUP2 MSTORE PUSH1 0x20 ADD DUP1 PUSH2 0x5C4D PUSH1 0x26 SWAP2 CODECOPY PUSH1 0x40 ADD SWAP2 POP POP PUSH1 0x40 MLOAD DUP1 SWAP2 SUB SWAP1 REVERT JUMPDEST PUSH2 0x4631 PUSH2 0x5742 JUMP JUMPDEST PUSH1 0x1 PUSH1 0x80 DUP3 ADD MSTORE PUSH2 0x464A PUSH1 0x0 DUP1 DUP1 DUP1 DUP9 DUP2 DUP1 DUP11 DUP10 PUSH2 0x484E JUMP JUMPDEST POP POP PUSH1 0x9 SLOAD PUSH1 0x0 NOT ADD PUSH1 0x1 PUSH1 0x0 SSTORE SWAP3 SWAP2 POP POP JUMP JUMPDEST PUSH1 0x0 DUP3 DUP3 GT ISZERO PUSH2 0x466D JUMPI PUSH1 0x0 DUP1 REVERT JUMPDEST POP SWAP1 SUB SWAP1 JUMP JUMPDEST PUSH1 0x0 DUP1 DUP3 GT PUSH2 0x4681 JUMPI PUSH1 0x0 DUP1 REVERT JUMPDEST PUSH1 0x0 DUP3 DUP5 DUP2 ISZERO ISZERO PUSH2 0x468E JUMPI INVALID JUMPDEST DIV SWAP5 SWAP4 POP POP POP POP JUMP JUMPDEST CALLER PUSH1 0x0 SWAP1 DUP2 MSTORE PUSH1 0xD PUSH1 0x20 SWAP1 DUP2 MSTORE PUSH1 0x40 DUP1 DUP4 KECCAK256 PUSH1 0x1 PUSH1 0xA0 PUSH1 0x2 EXP SUB DUP7 AND DUP5 MSTORE SWAP1 SWAP2 MSTORE SWAP1 KECCAK256 SLOAD DUP2 GT ISZERO PUSH2 0x4712 JUMPI PUSH1 0x40 DUP1 MLOAD PUSH1 0xE5 PUSH1 0x2 EXP PUSH3 0x461BCD MUL DUP2 MSTORE PUSH1 0x20 PUSH1 0x4 DUP3 ADD MSTORE PUSH1 0x14 PUSH1 0x24 DUP3 ADD MSTORE PUSH32 0x696E73756666696369656E742062616C616E6365000000000000000000000000 PUSH1 0x44 DUP3 ADD MSTORE SWAP1 MLOAD SWAP1 DUP2 SWAP1 SUB PUSH1 0x64 ADD SWAP1 REVERT JUMPDEST PUSH2 0x471D CALLER DUP4 DUP4 PUSH2 0x5617 JUMP JUMPDEST PUSH1 0x40 DUP1 MLOAD PUSH32 0xA9059CBB00000000000000000000000000000000000000000000000000000000 DUP2 MSTORE CALLER PUSH1 0x4 DUP3 ADD MSTORE PUSH1 0x24 DUP2 ADD DUP4 SWAP1 MSTORE SWAP1 MLOAD PUSH1 0x1 PUSH1 0xA0 PUSH1 0x2 EXP SUB DUP5 AND SWAP2 PUSH4 0xA9059CBB SWAP2 PUSH1 0x44 DUP1 DUP4 ADD SWAP3 PUSH1 0x20 SWAP3 SWAP2 SWAP1 DUP3 SWAP1 SUB ADD DUP2 PUSH1 0x0 DUP8 DUP1 EXTCODESIZE ISZERO DUP1 ISZERO PUSH2 0x4785 JUMPI PUSH1 0x0 DUP1 REVERT JUMPDEST POP GAS CALL ISZERO DUP1 ISZERO PUSH2 0x4799 JUMPI RETURNDATASIZE PUSH1 0x0 DUP1 RETURNDATACOPY RETURNDATASIZE PUSH1 0x0 REVERT JUMPDEST POP POP POP POP PUSH1 0x40 MLOAD RETURNDATASIZE PUSH1 0x20 DUP2 LT ISZERO PUSH2 0x47AF JUMPI PUSH1 0x0 DUP1 REVERT JUMPDEST POP MLOAD ISZERO ISZERO PUSH2 0x4807 JUMPI PUSH1 0x40 DUP1 MLOAD PUSH1 0xE5 PUSH1 0x2 EXP PUSH3 0x461BCD MUL DUP2 MSTORE PUSH1 0x20 PUSH1 0x4 DUP3 ADD MSTORE PUSH1 0xF PUSH1 0x24 DUP3 ADD MSTORE PUSH32 0x7472616E73666572206661696C65640000000000000000000000000000000000 PUSH1 0x44 DUP3 ADD MSTORE SWAP1 MLOAD SWAP1 DUP2 SWAP1 SUB PUSH1 0x64 ADD SWAP1 REVERT JUMPDEST PUSH1 0x40 DUP1 MLOAD PUSH1 0x1 PUSH1 0xA0 PUSH1 0x2 EXP SUB DUP5 AND DUP2 MSTORE PUSH1 0x20 DUP2 ADD DUP4 SWAP1 MSTORE DUP2 MLOAD CALLER SWAP3 PUSH32 0x9B1BFA7FA9EE420A16E124F794C35AC9F90472ACC99140EB2F6447C714CAD8EB SWAP3 DUP3 SWAP1 SUB ADD SWAP1 LOG2 POP POP JUMP JUMPDEST PUSH2 0x4856 PUSH2 0x5761 JUMP JUMPDEST PUSH2 0x1E0 PUSH1 0x40 MLOAD SWAP1 DUP2 ADD PUSH1 0x40 MSTORE DUP1 DUP12 PUSH1 0x1 PUSH1 0xA0 PUSH1 0x2 EXP SUB AND DUP2 MSTORE PUSH1 0x20 ADD CALLER PUSH1 0x1 PUSH1 0xA0 PUSH1 0x2 EXP SUB AND DUP2 MSTORE PUSH1 0x20 ADD PUSH1 0x0 PUSH1 0x1 PUSH1 0xA0 PUSH1 0x2 EXP SUB AND DUP2 MSTORE PUSH1 0x20 ADD DUP11 DUP2 MSTORE PUSH1 0x20 ADD DUP10 DUP2 MSTORE PUSH1 0x20 ADD DUP9 DUP2 MSTORE PUSH1 0x20 ADD DUP8 PUSH1 0x1 PUSH1 0xA0 PUSH1 0x2 EXP SUB AND DUP2 MSTORE PUSH1 0x20 ADD DUP7 DUP2 MSTORE PUSH1 0x20 ADD DUP6 PUSH1 0x1 PUSH1 0xA0 PUSH1 0x2 EXP SUB AND DUP2 MSTORE PUSH1 0x20 ADD PUSH1 0x0 DUP2 MSTORE PUSH1 0x20 ADD PUSH1 0x0 DUP2 MSTORE PUSH1 0x20 ADD PUSH1 0x0 DUP2 MSTORE PUSH1 0x20 ADD DUP4 DUP2 MSTORE PUSH1 0x20 ADD DUP5 DUP2 MSTORE PUSH1 0x20 ADD PUSH1 0x0 DUP2 MSTORE POP SWAP1 POP DUP1 PUSH1 0x15 PUSH1 0x0 PUSH1 0x9 SLOAD DUP2 MSTORE PUSH1 0x20 ADD SWAP1 DUP2 MSTORE PUSH1 0x20 ADD PUSH1 0x0 KECCAK256 PUSH1 0x0 DUP3 ADD MLOAD DUP2 PUSH1 0x0 ADD PUSH1 0x0 PUSH2 0x100 EXP DUP2 SLOAD DUP2 PUSH1 0x1 PUSH1 0xA0 PUSH1 0x2 EXP SUB MUL NOT AND SWAP1 DUP4 PUSH1 0x1 PUSH1 0xA0 PUSH1 0x2 EXP SUB AND MUL OR SWAP1 SSTORE POP PUSH1 0x20 DUP3 ADD MLOAD DUP2 PUSH1 0x1 ADD PUSH1 0x0 PUSH2 0x100 EXP DUP2 SLOAD DUP2 PUSH1 0x1 PUSH1 0xA0 PUSH1 0x2 EXP SUB MUL NOT AND SWAP1 DUP4 PUSH1 0x1 PUSH1 0xA0 PUSH1 0x2 EXP SUB AND MUL OR SWAP1 SSTORE POP PUSH1 0x40 DUP3 ADD MLOAD DUP2 PUSH1 0x2 ADD PUSH1 0x0 PUSH2 0x100 EXP DUP2 SLOAD DUP2 PUSH1 0x1 PUSH1 0xA0 PUSH1 0x2 EXP SUB MUL NOT AND SWAP1 DUP4 PUSH1 0x1 PUSH1 0xA0 PUSH1 0x2 EXP SUB AND MUL OR SWAP1 SSTORE POP PUSH1 0x60 DUP3 ADD MLOAD DUP2 PUSH1 0x3 ADD SSTORE PUSH1 0x80 DUP3 ADD MLOAD DUP2 PUSH1 0x4 ADD SSTORE PUSH1 0xA0 DUP3 ADD MLOAD DUP2 PUSH1 0x5 ADD SSTORE PUSH1 0xC0 DUP3 ADD MLOAD DUP2 PUSH1 0x6 ADD PUSH1 0x0 PUSH2 0x100 EXP DUP2 SLOAD DUP2 PUSH1 0x1 PUSH1 0xA0 PUSH1 0x2 EXP SUB MUL NOT AND SWAP1 DUP4 PUSH1 0x1 PUSH1 0xA0 PUSH1 0x2 EXP SUB AND MUL OR SWAP1 SSTORE POP PUSH1 0xE0 DUP3 ADD MLOAD DUP2 PUSH1 0x7 ADD SSTORE PUSH2 0x100 DUP3 ADD MLOAD DUP2 PUSH1 0x8 ADD PUSH1 0x0 PUSH2 0x100 EXP DUP2 SLOAD DUP2 PUSH1 0x1 PUSH1 0xA0 PUSH1 0x2 EXP SUB MUL NOT AND SWAP1 DUP4 PUSH1 0x1 PUSH1 0xA0 PUSH1 0x2 EXP SUB AND MUL OR SWAP1 SSTORE POP PUSH2 0x120 DUP3 ADD MLOAD DUP2 PUSH1 0x9 ADD SSTORE PUSH2 0x140 DUP3 ADD MLOAD DUP2 PUSH1 0xA ADD SSTORE PUSH2 0x160 DUP3 ADD MLOAD DUP2 PUSH1 0xB ADD SSTORE PUSH2 0x180 DUP3 ADD MLOAD DUP2 PUSH1 0xC ADD SWAP1 PUSH1 0x6 PUSH2 0x4A48 SWAP3 SWAP2 SWAP1 PUSH2 0x580B JUMP JUMPDEST POP PUSH2 0x1A0 DUP3 ADD MLOAD DUP1 MLOAD PUSH2 0x4A65 SWAP2 PUSH1 0xD DUP5 ADD SWAP2 PUSH1 0x20 SWAP1 SWAP2 ADD SWAP1 PUSH2 0x589D JUMP JUMPDEST POP PUSH2 0x1C0 DUP3 ADD MLOAD DUP2 PUSH1 0xE ADD SSTORE SWAP1 POP POP PUSH1 0x0 PUSH1 0x13 PUSH1 0x0 CALLER PUSH1 0x1 PUSH1 0xA0 PUSH1 0x2 EXP SUB AND PUSH1 0x1 PUSH1 0xA0 PUSH1 0x2 EXP SUB AND DUP2 MSTORE PUSH1 0x20 ADD SWAP1 DUP2 MSTORE PUSH1 0x20 ADD PUSH1 0x0 KECCAK256 PUSH1 0x0 SWAP1 SLOAD SWAP1 PUSH2 0x100 EXP SWAP1 DIV PUSH1 0x1 PUSH1 0xA0 PUSH1 0x2 EXP SUB AND SWAP1 POP DUP1 PUSH1 0x1 PUSH1 0xA0 PUSH1 0x2 EXP SUB AND CALLER PUSH1 0x1 PUSH1 0xA0 PUSH1 0x2 EXP SUB AND DUP13 PUSH1 0x1 PUSH1 0xA0 PUSH1 0x2 EXP SUB AND PUSH32 0xA763E0F5E4F4E33A3397B4BA22677C9B6FD2075ED6504596333006FF2F3E3874 DUP14 DUP14 DUP14 DUP14 DUP14 DUP14 DUP14 DUP14 PUSH1 0x9 SLOAD PUSH1 0x40 MLOAD DUP1 DUP11 DUP2 MSTORE PUSH1 0x20 ADD DUP10 DUP2 MSTORE PUSH1 0x20 ADD DUP9 DUP2 MSTORE PUSH1 0x20 ADD DUP8 PUSH1 0x1 PUSH1 0xA0 PUSH1 0x2 EXP SUB AND PUSH1 0x1 PUSH1 0xA0 PUSH1 0x2 EXP SUB AND DUP2 MSTORE PUSH1 0x20 ADD DUP7 DUP2 MSTORE PUSH1 0x20 ADD DUP6 PUSH1 0x1 PUSH1 0xA0 PUSH1 0x2 EXP SUB AND PUSH1 0x1 PUSH1 0xA0 PUSH1 0x2 EXP SUB AND DUP2 MSTORE PUSH1 0x20 ADD DUP1 PUSH1 0x20 ADD DUP5 PUSH1 0x6 PUSH1 0x20 MUL DUP1 DUP4 DUP4 PUSH1 0x0 JUMPDEST DUP4 DUP2 LT ISZERO PUSH2 0x4B6F JUMPI DUP2 DUP2 ADD MLOAD DUP4 DUP3 ADD MSTORE PUSH1 0x20 ADD PUSH2 0x4B57 JUMP JUMPDEST POP POP POP POP SWAP1 POP ADD DUP4 DUP2 MSTORE PUSH1 0x20 ADD DUP3 DUP2 SUB DUP3 MSTORE DUP6 DUP2 DUP2 MLOAD DUP2 MSTORE PUSH1 0x20 ADD SWAP2 POP DUP1 MLOAD SWAP1 PUSH1 0x20 ADD SWAP1 DUP1 DUP4 DUP4 PUSH1 0x0 JUMPDEST DUP4 DUP2 LT ISZERO PUSH2 0x4BB1 JUMPI DUP2 DUP2 ADD MLOAD DUP4 DUP3 ADD MSTORE PUSH1 0x20 ADD PUSH2 0x4B99 JUMP JUMPDEST POP POP POP POP SWAP1 POP SWAP1 DUP2 ADD SWAP1 PUSH1 0x1F AND DUP1 ISZERO PUSH2 0x4BDE JUMPI DUP1 DUP3 SUB DUP1 MLOAD PUSH1 0x1 DUP4 PUSH1 0x20 SUB PUSH2 0x100 EXP SUB NOT AND DUP2 MSTORE PUSH1 0x20 ADD SWAP2 POP JUMPDEST POP SWAP11 POP POP POP POP POP POP POP POP POP POP POP PUSH1 0x40 MLOAD DUP1 SWAP2 SUB SWAP1 LOG4 POP POP PUSH1 0x9 DUP1 SLOAD PUSH1 0x1 ADD SWAP1 SSTORE POP POP POP POP POP POP POP POP POP JUMP JUMPDEST PUSH1 0x0 PUSH2 0x4C22 PUSH1 0xB SLOAD PUSH1 0xA SLOAD PUSH2 0x556D SWAP1 SWAP2 SWAP1 PUSH4 0xFFFFFFFF AND JUMP JUMPDEST PUSH1 0x1 PUSH1 0xA0 PUSH1 0x2 EXP SUB DUP6 AND PUSH1 0x0 SWAP1 DUP2 MSTORE PUSH1 0x12 PUSH1 0x20 MSTORE PUSH1 0x40 SWAP1 KECCAK256 PUSH1 0x1 DUP2 ADD SLOAD SWAP2 SWAP3 POP SWAP1 DUP5 GT ISZERO PUSH2 0x4C9A JUMPI PUSH1 0x40 DUP1 MLOAD PUSH1 0xE5 PUSH1 0x2 EXP PUSH3 0x461BCD MUL DUP2 MSTORE PUSH1 0x20 PUSH1 0x4 DUP3 ADD MSTORE PUSH1 0x13 PUSH1 0x24 DUP3 ADD MSTORE PUSH32 0x696E73756666696369656E742073686172657300000000000000000000000000 PUSH1 0x44 DUP3 ADD MSTORE SWAP1 MLOAD SWAP1 DUP2 SWAP1 SUB PUSH1 0x64 ADD SWAP1 REVERT JUMPDEST PUSH1 0x2 DUP2 ADD SLOAD DUP4 GT ISZERO PUSH2 0x4CF6 JUMPI PUSH1 0x40 DUP1 MLOAD PUSH1 0xE5 PUSH1 0x2 EXP PUSH3 0x461BCD MUL DUP2 MSTORE PUSH1 0x20 PUSH1 0x4 DUP3 ADD MSTORE PUSH1 0x11 PUSH1 0x24 DUP3 ADD MSTORE PUSH32 0x696E73756666696369656E74206C6F6F74000000000000000000000000000000 PUSH1 0x44 DUP3 ADD MSTORE SWAP1 MLOAD SWAP1 DUP2 SWAP1 SUB PUSH1 0x64 ADD SWAP1 REVERT JUMPDEST PUSH2 0x4D03 DUP2 PUSH1 0x4 ADD SLOAD PUSH2 0x2F82 JUMP JUMPDEST ISZERO ISZERO PUSH2 0x4D43 JUMPI PUSH1 0x40 MLOAD PUSH1 0xE5 PUSH1 0x2 EXP PUSH3 0x461BCD MUL DUP2 MSTORE PUSH1 0x4 ADD DUP1 DUP1 PUSH1 0x20 ADD DUP3 DUP2 SUB DUP3 MSTORE PUSH1 0x4D DUP2 MSTORE PUSH1 0x20 ADD DUP1 PUSH2 0x5997 PUSH1 0x4D SWAP2 CODECOPY PUSH1 0x60 ADD SWAP2 POP POP PUSH1 0x40 MLOAD DUP1 SWAP2 SUB SWAP1 REVERT JUMPDEST PUSH1 0x0 PUSH2 0x4D55 DUP6 DUP6 PUSH4 0xFFFFFFFF PUSH2 0x556D AND JUMP JUMPDEST PUSH1 0x1 DUP4 ADD SLOAD SWAP1 SWAP2 POP PUSH2 0x4D6D SWAP1 DUP7 PUSH4 0xFFFFFFFF PUSH2 0x465E AND JUMP JUMPDEST PUSH1 0x1 DUP4 ADD SSTORE PUSH1 0x2 DUP3 ADD SLOAD PUSH2 0x4D87 SWAP1 DUP6 PUSH4 0xFFFFFFFF PUSH2 0x465E AND JUMP JUMPDEST PUSH1 0x2 DUP4 ADD SSTORE PUSH1 0xA SLOAD PUSH2 0x4D9F SWAP1 DUP7 PUSH4 0xFFFFFFFF PUSH2 0x465E AND JUMP JUMPDEST PUSH1 0xA SSTORE PUSH1 0xB SLOAD PUSH2 0x4DB5 SWAP1 DUP6 PUSH4 0xFFFFFFFF PUSH2 0x465E AND JUMP JUMPDEST PUSH1 0xB SSTORE PUSH1 0x0 JUMPDEST PUSH1 0xF SLOAD DUP2 LT ISZERO PUSH2 0x4F07 JUMPI PUSH2 0xDEAD PUSH1 0x0 SWAP1 DUP2 MSTORE PUSH1 0xD PUSH1 0x20 MSTORE PUSH1 0xF DUP1 SLOAD PUSH2 0x4E35 SWAP2 PUSH32 0xDC7FAFDC41998A74ECACB8F8BD877011ABA1F1D03A3A0D37A2E7879A393B1D6A SWAP2 DUP5 SWAP2 SWAP1 DUP7 SWAP1 DUP2 LT PUSH2 0x4E09 JUMPI INVALID JUMPDEST PUSH1 0x0 SWAP2 DUP3 MSTORE PUSH1 0x20 DUP1 DUP4 KECCAK256 SWAP1 SWAP2 ADD SLOAD PUSH1 0x1 PUSH1 0xA0 PUSH1 0x2 EXP SUB AND DUP4 MSTORE DUP3 ADD SWAP3 SWAP1 SWAP3 MSTORE PUSH1 0x40 ADD SWAP1 KECCAK256 SLOAD DUP5 DUP8 PUSH2 0x5677 JUMP JUMPDEST SWAP1 POP PUSH1 0x0 DUP2 GT ISZERO PUSH2 0x4EFE JUMPI PUSH2 0xDEAD PUSH1 0x0 SWAP1 DUP2 MSTORE PUSH1 0xD PUSH1 0x20 MSTORE PUSH1 0xF DUP1 SLOAD DUP4 SWAP3 PUSH32 0xDC7FAFDC41998A74ECACB8F8BD877011ABA1F1D03A3A0D37A2E7879A393B1D6A SWAP3 SWAP1 SWAP2 DUP7 SWAP1 DUP2 LT PUSH2 0x4E81 JUMPI INVALID JUMPDEST PUSH1 0x0 SWAP2 DUP3 MSTORE PUSH1 0x20 DUP1 DUP4 KECCAK256 SWAP1 SWAP2 ADD SLOAD PUSH1 0x1 PUSH1 0xA0 PUSH1 0x2 EXP SUB SWAP1 DUP2 AND DUP5 MSTORE DUP4 DUP3 ADD SWAP5 SWAP1 SWAP5 MSTORE PUSH1 0x40 SWAP3 DUP4 ADD DUP3 KECCAK256 DUP1 SLOAD SWAP6 SWAP1 SWAP6 SUB SWAP1 SWAP5 SSTORE SWAP2 DUP12 AND DUP3 MSTORE PUSH1 0xD SWAP1 SWAP3 MSTORE SWAP1 DUP2 KECCAK256 PUSH1 0xF DUP1 SLOAD DUP5 SWAP4 SWAP2 SWAP1 DUP7 SWAP1 DUP2 LT PUSH2 0x4ED2 JUMPI INVALID JUMPDEST PUSH1 0x0 SWAP2 DUP3 MSTORE PUSH1 0x20 DUP1 DUP4 KECCAK256 SWAP1 SWAP2 ADD SLOAD PUSH1 0x1 PUSH1 0xA0 PUSH1 0x2 EXP SUB AND DUP4 MSTORE DUP3 ADD SWAP3 SWAP1 SWAP3 MSTORE PUSH1 0x40 ADD SWAP1 KECCAK256 DUP1 SLOAD SWAP1 SWAP2 ADD SWAP1 SSTORE JUMPDEST POP PUSH1 0x1 ADD PUSH2 0x4DBB JUMP JUMPDEST POP PUSH1 0x40 DUP1 MLOAD DUP7 DUP2 MSTORE PUSH1 0x20 DUP2 ADD DUP7 SWAP1 MSTORE DUP2 MLOAD CALLER SWAP3 PUSH32 0xCAD1A1C68982832D9ABC314DE8A1E5D5E8C81B0588961E360766736D10C3BE1A SWAP3 DUP3 SWAP1 SUB ADD SWAP1 LOG2 POP POP POP POP POP POP JUMP JUMPDEST PUSH1 0x16 SLOAD DUP2 LT PUSH2 0x4FA3 JUMPI PUSH1 0x40 DUP1 MLOAD PUSH1 0xE5 PUSH1 0x2 EXP PUSH3 0x461BCD MUL DUP2 MSTORE PUSH1 0x20 PUSH1 0x4 DUP3 ADD MSTORE PUSH1 0x17 PUSH1 0x24 DUP3 ADD MSTORE PUSH32 0x70726F706F73616C20646F6573206E6F74206578697374000000000000000000 PUSH1 0x44 DUP3 ADD MSTORE SWAP1 MLOAD SWAP1 DUP2 SWAP1 SUB PUSH1 0x64 ADD SWAP1 REVERT JUMPDEST PUSH2 0x4FAB PUSH2 0x5761 JUMP JUMPDEST PUSH1 0x15 PUSH1 0x0 PUSH1 0x16 DUP5 DUP2 SLOAD DUP2 LT ISZERO ISZERO PUSH2 0x4FBE JUMPI INVALID JUMPDEST PUSH1 0x0 SWAP2 DUP3 MSTORE PUSH1 0x20 DUP1 DUP4 KECCAK256 SWAP2 SWAP1 SWAP2 ADD SLOAD DUP4 MSTORE DUP3 DUP2 ADD SWAP4 SWAP1 SWAP4 MSTORE PUSH1 0x40 SWAP2 DUP3 ADD DUP2 KECCAK256 DUP3 MLOAD PUSH2 0x1E0 DUP2 ADD DUP5 MSTORE DUP2 SLOAD PUSH1 0x1 PUSH1 0xA0 PUSH1 0x2 EXP SUB SWAP1 DUP2 AND DUP3 MSTORE PUSH1 0x1 DUP4 ADD SLOAD DUP2 AND SWAP6 DUP3 ADD SWAP6 SWAP1 SWAP6 MSTORE PUSH1 0x2 DUP3 ADD SLOAD DUP6 AND DUP2 DUP6 ADD MSTORE PUSH1 0x3 DUP3 ADD SLOAD PUSH1 0x60 DUP3 ADD MSTORE PUSH1 0x4 DUP3 ADD SLOAD PUSH1 0x80 DUP3 ADD MSTORE PUSH1 0x5 DUP3 ADD SLOAD PUSH1 0xA0 DUP3 ADD MSTORE PUSH1 0x6 DUP1 DUP4 ADD SLOAD DUP7 AND PUSH1 0xC0 DUP1 DUP5 ADD SWAP2 SWAP1 SWAP2 MSTORE PUSH1 0x7 DUP5 ADD SLOAD PUSH1 0xE0 DUP5 ADD MSTORE PUSH1 0x8 DUP5 ADD SLOAD SWAP1 SWAP7 AND PUSH2 0x100 DUP4 ADD MSTORE PUSH1 0x9 DUP4 ADD SLOAD PUSH2 0x120 DUP4 ADD MSTORE PUSH1 0xA DUP4 ADD SLOAD PUSH2 0x140 DUP4 ADD MSTORE PUSH1 0xB DUP4 ADD SLOAD PUSH2 0x160 DUP4 ADD MSTORE DUP5 MLOAD SWAP6 DUP7 ADD SWAP5 DUP6 SWAP1 MSTORE SWAP1 SWAP5 SWAP2 SWAP4 PUSH2 0x180 DUP7 ADD SWAP4 PUSH1 0xC DUP7 ADD SWAP3 SWAP2 SWAP1 DUP4 SWAP1 DUP6 JUMPDEST DUP3 SLOAD PUSH2 0x100 DUP4 SWAP1 EXP SWAP1 DIV PUSH1 0xFF AND ISZERO ISZERO DUP2 MSTORE PUSH1 0x20 PUSH1 0x1 SWAP3 DUP4 ADD DUP2 DUP2 DIV SWAP5 DUP6 ADD SWAP5 SWAP1 SWAP4 SUB SWAP1 SWAP3 MUL SWAP2 ADD DUP1 DUP5 GT PUSH2 0x5094 JUMPI POP POP POP SWAP3 DUP5 MSTORE POP POP POP PUSH1 0xD DUP3 ADD DUP1 SLOAD PUSH1 0x40 DUP1 MLOAD PUSH1 0x20 PUSH1 0x2 PUSH1 0x1 DUP6 AND ISZERO PUSH2 0x100 MUL PUSH1 0x0 NOT ADD SWAP1 SWAP5 AND SWAP4 SWAP1 SWAP4 DIV PUSH1 0x1F DUP2 ADD DUP5 SWAP1 DIV DUP5 MUL DUP3 ADD DUP5 ADD SWAP1 SWAP3 MSTORE DUP2 DUP2 MSTORE SWAP4 DUP3 ADD SWAP4 SWAP3 SWAP2 DUP4 ADD DUP3 DUP3 DUP1 ISZERO PUSH2 0x5157 JUMPI DUP1 PUSH1 0x1F LT PUSH2 0x512C JUMPI PUSH2 0x100 DUP1 DUP4 SLOAD DIV MUL DUP4 MSTORE SWAP2 PUSH1 0x20 ADD SWAP2 PUSH2 0x5157 JUMP JUMPDEST DUP3 ADD SWAP2 SWAP1 PUSH1 0x0 MSTORE PUSH1 0x20 PUSH1 0x0 KECCAK256 SWAP1 JUMPDEST DUP2 SLOAD DUP2 MSTORE SWAP1 PUSH1 0x1 ADD SWAP1 PUSH1 0x20 ADD DUP1 DUP4 GT PUSH2 0x513A JUMPI DUP3 SWAP1 SUB PUSH1 0x1F AND DUP3 ADD SWAP2 JUMPDEST POP POP POP POP POP DUP2 MSTORE PUSH1 0x20 ADD PUSH1 0xE DUP3 ADD SLOAD DUP2 MSTORE POP POP SWAP1 POP PUSH2 0x518C PUSH1 0x3 SLOAD PUSH2 0x2983 PUSH1 0x2 SLOAD DUP5 PUSH2 0x120 ADD MLOAD PUSH2 0x556D SWAP1 SWAP2 SWAP1 PUSH4 0xFFFFFFFF AND JUMP JUMPDEST PUSH2 0x5194 PUSH2 0x10A7 JUMP JUMPDEST LT ISZERO PUSH2 0x51D4 JUMPI PUSH1 0x40 MLOAD PUSH1 0xE5 PUSH1 0x2 EXP PUSH3 0x461BCD MUL DUP2 MSTORE PUSH1 0x4 ADD DUP1 DUP1 PUSH1 0x20 ADD DUP3 DUP2 SUB DUP3 MSTORE PUSH1 0x25 DUP2 MSTORE PUSH1 0x20 ADD DUP1 PUSH2 0x59E4 PUSH1 0x25 SWAP2 CODECOPY PUSH1 0x40 ADD SWAP2 POP POP PUSH1 0x40 MLOAD DUP1 SWAP2 SUB SWAP1 REVERT JUMPDEST PUSH2 0x180 DUP2 ADD MLOAD PUSH1 0x20 ADD MLOAD ISZERO PUSH2 0x521D JUMPI PUSH1 0x40 MLOAD PUSH1 0xE5 PUSH1 0x2 EXP PUSH3 0x461BCD MUL DUP2 MSTORE PUSH1 0x4 ADD DUP1 DUP1 PUSH1 0x20 ADD DUP3 DUP2 SUB DUP3 MSTORE PUSH1 0x23 DUP2 MSTORE PUSH1 0x20 ADD DUP1 PUSH2 0x5D88 PUSH1 0x23 SWAP2 CODECOPY PUSH1 0x40 ADD SWAP2 POP POP PUSH1 0x40 MLOAD DUP1 SWAP2 SUB SWAP1 REVERT JUMPDEST DUP2 ISZERO DUP1 PUSH2 0x5287 JUMPI POP PUSH1 0x15 PUSH1 0x0 PUSH1 0x16 PUSH2 0x523C DUP6 PUSH1 0x1 PUSH4 0xFFFFFFFF PUSH2 0x465E AND JUMP JUMPDEST DUP2 SLOAD DUP2 LT PUSH2 0x5246 JUMPI INVALID JUMPDEST SWAP1 PUSH1 0x0 MSTORE PUSH1 0x20 PUSH1 0x0 KECCAK256 ADD SLOAD DUP2 MSTORE PUSH1 0x20 ADD SWAP1 DUP2 MSTORE PUSH1 0x20 ADD PUSH1 0x0 KECCAK256 PUSH1 0xC ADD PUSH1 0x1 PUSH1 0x6 DUP2 LT ISZERO ISZERO PUSH2 0x5270 JUMPI INVALID JUMPDEST PUSH1 0x20 DUP2 DIV SWAP1 SWAP2 ADD SLOAD PUSH1 0xFF PUSH1 0x1F SWAP1 SWAP3 AND PUSH2 0x100 EXP SWAP1 DIV AND JUMPDEST ISZERO ISZERO PUSH2 0x52C7 JUMPI PUSH1 0x40 MLOAD PUSH1 0xE5 PUSH1 0x2 EXP PUSH3 0x461BCD MUL DUP2 MSTORE PUSH1 0x4 ADD DUP1 DUP1 PUSH1 0x20 ADD DUP3 DUP2 SUB DUP3 MSTORE PUSH1 0x23 DUP2 MSTORE PUSH1 0x20 ADD DUP1 PUSH2 0x5A95 PUSH1 0x23 SWAP2 CODECOPY PUSH1 0x40 ADD SWAP2 POP POP PUSH1 0x40 MLOAD DUP1 SWAP2 SUB SWAP1 REVERT JUMPDEST POP POP JUMP JUMPDEST PUSH1 0x0 PUSH2 0x52D5 PUSH2 0x5761 JUMP JUMPDEST PUSH1 0x15 PUSH1 0x0 PUSH1 0x16 DUP6 DUP2 SLOAD DUP2 LT ISZERO ISZERO PUSH2 0x52E8 JUMPI INVALID JUMPDEST PUSH1 0x0 SWAP2 DUP3 MSTORE PUSH1 0x20 DUP1 DUP4 KECCAK256 SWAP2 SWAP1 SWAP2 ADD SLOAD DUP4 MSTORE DUP3 DUP2 ADD SWAP4 SWAP1 SWAP4 MSTORE PUSH1 0x40 SWAP2 DUP3 ADD DUP2 KECCAK256 DUP3 MLOAD PUSH2 0x1E0 DUP2 ADD DUP5 MSTORE DUP2 SLOAD PUSH1 0x1 PUSH1 0xA0 PUSH1 0x2 EXP SUB SWAP1 DUP2 AND DUP3 MSTORE PUSH1 0x1 DUP4 ADD SLOAD DUP2 AND SWAP6 DUP3 ADD SWAP6 SWAP1 SWAP6 MSTORE PUSH1 0x2 DUP3 ADD SLOAD DUP6 AND DUP2 DUP6 ADD MSTORE PUSH1 0x3 DUP3 ADD SLOAD PUSH1 0x60 DUP3 ADD MSTORE PUSH1 0x4 DUP3 ADD SLOAD PUSH1 0x80 DUP3 ADD MSTORE PUSH1 0x5 DUP3 ADD SLOAD PUSH1 0xA0 DUP3 ADD MSTORE PUSH1 0x6 DUP1 DUP4 ADD SLOAD DUP7 AND PUSH1 0xC0 DUP1 DUP5 ADD SWAP2 SWAP1 SWAP2 MSTORE PUSH1 0x7 DUP5 ADD SLOAD PUSH1 0xE0 DUP5 ADD MSTORE PUSH1 0x8 DUP5 ADD SLOAD SWAP1 SWAP7 AND PUSH2 0x100 DUP4 ADD MSTORE PUSH1 0x9 DUP4 ADD SLOAD PUSH2 0x120 DUP4 ADD MSTORE PUSH1 0xA DUP4 ADD SLOAD PUSH2 0x140 DUP4 ADD MSTORE PUSH1 0xB DUP4 ADD SLOAD PUSH2 0x160 DUP4 ADD MSTORE DUP5 MLOAD SWAP6 DUP7 ADD SWAP5 DUP6 SWAP1 MSTORE SWAP1 SWAP5 SWAP2 SWAP4 PUSH2 0x180 DUP7 ADD SWAP4 PUSH1 0xC DUP7 ADD SWAP3 SWAP2 SWAP1 DUP4 SWAP1 DUP6 JUMPDEST DUP3 SLOAD PUSH2 0x100 DUP4 SWAP1 EXP SWAP1 DIV PUSH1 0xFF AND ISZERO ISZERO DUP2 MSTORE PUSH1 0x20 PUSH1 0x1 SWAP3 DUP4 ADD DUP2 DUP2 DIV SWAP5 DUP6 ADD SWAP5 SWAP1 SWAP4 SUB SWAP1 SWAP3 MUL SWAP2 ADD DUP1 DUP5 GT PUSH2 0x53BE JUMPI POP POP POP SWAP3 DUP5 MSTORE POP POP POP PUSH1 0xD DUP3 ADD DUP1 SLOAD PUSH1 0x40 DUP1 MLOAD PUSH1 0x20 PUSH1 0x2 PUSH1 0x1 DUP6 AND ISZERO PUSH2 0x100 MUL PUSH1 0x0 NOT ADD SWAP1 SWAP5 AND SWAP4 SWAP1 SWAP4 DIV PUSH1 0x1F DUP2 ADD DUP5 SWAP1 DIV DUP5 MUL DUP3 ADD DUP5 ADD SWAP1 SWAP3 MSTORE DUP2 DUP2 MSTORE SWAP4 DUP3 ADD SWAP4 SWAP3 SWAP2 DUP4 ADD DUP3 DUP3 DUP1 ISZERO PUSH2 0x5481 JUMPI DUP1 PUSH1 0x1F LT PUSH2 0x5456 JUMPI PUSH2 0x100 DUP1 DUP4 SLOAD DIV MUL DUP4 MSTORE SWAP2 PUSH1 0x20 ADD SWAP2 PUSH2 0x5481 JUMP JUMPDEST DUP3 ADD SWAP2 SWAP1 PUSH1 0x0 MSTORE PUSH1 0x20 PUSH1 0x0 KECCAK256 SWAP1 JUMPDEST DUP2 SLOAD DUP2 MSTORE SWAP1 PUSH1 0x1 ADD SWAP1 PUSH1 0x20 ADD DUP1 DUP4 GT PUSH2 0x5464 JUMPI DUP3 SWAP1 SUB PUSH1 0x1F AND DUP3 ADD SWAP2 JUMPDEST POP POP POP POP POP DUP2 MSTORE PUSH1 0x20 ADD PUSH1 0xE DUP3 ADD SLOAD DUP2 MSTORE POP POP SWAP1 POP DUP1 PUSH2 0x160 ADD MLOAD DUP2 PUSH2 0x140 ADD MLOAD GT SWAP2 POP DUP1 PUSH2 0x1C0 ADD MLOAD PUSH2 0x54D4 PUSH1 0x5 SLOAD PUSH2 0x54C8 PUSH1 0xB SLOAD PUSH1 0xA SLOAD PUSH2 0x556D SWAP1 SWAP2 SWAP1 PUSH4 0xFFFFFFFF AND JUMP JUMPDEST SWAP1 PUSH4 0xFFFFFFFF PUSH2 0x56D5 AND JUMP JUMPDEST LT ISZERO PUSH2 0x54DF JUMPI PUSH1 0x0 SWAP2 POP JUMPDEST DUP1 MLOAD PUSH1 0x1 PUSH1 0xA0 PUSH1 0x2 EXP SUB AND PUSH1 0x0 SWAP1 DUP2 MSTORE PUSH1 0x12 PUSH1 0x20 MSTORE PUSH1 0x40 SWAP1 KECCAK256 PUSH1 0x5 ADD SLOAD ISZERO PUSH2 0x5506 JUMPI PUSH1 0x0 SWAP2 POP JUMPDEST POP SWAP2 SWAP1 POP JUMP JUMPDEST PUSH2 0x5531 PUSH2 0xBEEF CALLER PUSH1 0x8 PUSH1 0x1 SWAP1 SLOAD SWAP1 PUSH2 0x100 EXP SWAP1 DIV PUSH1 0x1 PUSH1 0xA0 PUSH1 0x2 EXP SUB AND PUSH1 0x6 SLOAD PUSH2 0x55FB JUMP JUMPDEST PUSH2 0x556A PUSH2 0xBEEF DUP3 PUSH1 0x8 PUSH1 0x1 SWAP1 SLOAD SWAP1 PUSH2 0x100 EXP SWAP1 DIV PUSH1 0x1 PUSH1 0xA0 PUSH1 0x2 EXP SUB AND PUSH2 0x5565 PUSH1 0x6 SLOAD PUSH1 0x4 SLOAD PUSH2 0x465E SWAP1 SWAP2 SWAP1 PUSH4 0xFFFFFFFF AND JUMP JUMPDEST PUSH2 0x55FB JUMP JUMPDEST POP JUMP JUMPDEST PUSH1 0x0 DUP3 DUP3 ADD DUP4 DUP2 LT ISZERO PUSH2 0x557F JUMPI PUSH1 0x0 DUP1 REVERT JUMPDEST SWAP4 SWAP3 POP POP POP JUMP JUMPDEST PUSH1 0x1 PUSH1 0xA0 PUSH1 0x2 EXP SUB SWAP3 DUP4 AND PUSH1 0x0 SWAP1 DUP2 MSTORE PUSH1 0xD PUSH1 0x20 SWAP1 DUP2 MSTORE PUSH1 0x40 DUP1 DUP4 KECCAK256 SWAP5 SWAP1 SWAP6 AND DUP3 MSTORE SWAP3 DUP4 MSTORE DUP4 DUP2 KECCAK256 DUP1 SLOAD DUP4 ADD SWAP1 SSTORE PUSH32 0xA30F7A7832BD8A7A8DAA3A3F5B7A6F7CEC6A2FBB1A121FA5B76520E44736771C SWAP1 SWAP3 MSTORE SWAP2 SWAP1 KECCAK256 DUP1 SLOAD SWAP1 SWAP2 ADD SWAP1 SSTORE JUMP JUMPDEST PUSH1 0x0 DUP2 DUP4 LT ISZERO PUSH2 0x55F4 JUMPI DUP2 PUSH2 0x557F JUMP JUMPDEST POP SWAP1 SWAP2 SWAP1 POP JUMP JUMPDEST PUSH2 0x5606 DUP5 DUP4 DUP4 PUSH2 0x5617 JUMP JUMPDEST PUSH2 0x5611 DUP4 DUP4 DUP4 PUSH2 0x5586 JUMP JUMPDEST POP POP POP POP JUMP JUMPDEST PUSH1 0x1 PUSH1 0xA0 PUSH1 0x2 EXP SUB SWAP3 DUP4 AND PUSH1 0x0 SWAP1 DUP2 MSTORE PUSH1 0xD PUSH1 0x20 SWAP1 DUP2 MSTORE PUSH1 0x40 DUP1 DUP4 KECCAK256 SWAP5 SWAP1 SWAP6 AND DUP3 MSTORE SWAP3 DUP4 MSTORE DUP4 DUP2 KECCAK256 DUP1 SLOAD DUP4 SWAP1 SUB SWAP1 SSTORE PUSH32 0xA30F7A7832BD8A7A8DAA3A3F5B7A6F7CEC6A2FBB1A121FA5B76520E44736771C SWAP1 SWAP3 MSTORE SWAP2 SWAP1 KECCAK256 DUP1 SLOAD SWAP2 SWAP1 SWAP2 SUB SWAP1 SSTORE JUMP JUMPDEST PUSH1 0x0 DUP2 ISZERO ISZERO PUSH2 0x5685 JUMPI PUSH1 0x0 DUP1 REVERT JUMPDEST DUP4 ISZERO ISZERO PUSH2 0x5694 JUMPI POP PUSH1 0x0 PUSH2 0x557F JUMP JUMPDEST DUP4 DUP4 MUL DUP4 DUP6 DUP3 DUP2 ISZERO ISZERO PUSH2 0x56A3 JUMPI INVALID JUMPDEST DIV EQ ISZERO PUSH2 0x56BE JUMPI DUP3 DUP2 DUP2 ISZERO ISZERO PUSH2 0x56B5 JUMPI INVALID JUMPDEST DIV SWAP2 POP POP PUSH2 0x557F JUMP JUMPDEST DUP4 DUP4 DUP7 DUP2 ISZERO ISZERO PUSH2 0x56CA JUMPI INVALID JUMPDEST DIV MUL SWAP6 SWAP5 POP POP POP POP POP JUMP JUMPDEST PUSH1 0x0 DUP3 ISZERO ISZERO PUSH2 0x56E6 JUMPI POP PUSH1 0x0 PUSH2 0x10A1 JUMP JUMPDEST DUP3 DUP3 MUL DUP3 DUP5 DUP3 DUP2 ISZERO ISZERO PUSH2 0x56F5 JUMPI INVALID JUMPDEST DIV EQ PUSH2 0x557F JUMPI PUSH1 0x0 DUP1 REVERT JUMPDEST PUSH1 0xC0 PUSH1 0x40 MLOAD SWAP1 DUP2 ADD PUSH1 0x40 MSTORE DUP1 PUSH1 0x0 PUSH1 0x1 PUSH1 0xA0 PUSH1 0x2 EXP SUB AND DUP2 MSTORE PUSH1 0x20 ADD PUSH1 0x0 DUP2 MSTORE PUSH1 0x20 ADD PUSH1 0x0 DUP2 MSTORE PUSH1 0x20 ADD PUSH1 0x0 ISZERO ISZERO DUP2 MSTORE PUSH1 0x20 ADD PUSH1 0x0 DUP2 MSTORE PUSH1 0x20 ADD PUSH1 0x0 DUP2 MSTORE POP SWAP1 JUMP JUMPDEST PUSH1 0xC0 PUSH1 0x40 MLOAD SWAP1 DUP2 ADD PUSH1 0x40 MSTORE DUP1 PUSH1 0x6 SWAP1 PUSH1 0x20 DUP3 MUL DUP1 CODESIZE DUP4 CODECOPY POP SWAP2 SWAP3 SWAP2 POP POP JUMP JUMPDEST PUSH2 0x280 PUSH1 0x40 MLOAD SWAP1 DUP2 ADD PUSH1 0x40 MSTORE DUP1 PUSH1 0x0 PUSH1 0x1 PUSH1 0xA0 PUSH1 0x2 EXP SUB AND DUP2 MSTORE PUSH1 0x20 ADD PUSH1 0x0 PUSH1 0x1 PUSH1 0xA0 PUSH1 0x2 EXP SUB AND DUP2 MSTORE PUSH1 0x20 ADD PUSH1 0x0 PUSH1 0x1 PUSH1 0xA0 PUSH1 0x2 EXP SUB AND DUP2 MSTORE PUSH1 0x20 ADD PUSH1 0x0 DUP2 MSTORE PUSH1 0x20 ADD PUSH1 0x0 DUP2 MSTORE PUSH1 0x20 ADD PUSH1 0x0 DUP2 MSTORE PUSH1 0x20 ADD PUSH1 0x0 PUSH1 0x1 PUSH1 0xA0 PUSH1 0x2 EXP SUB AND DUP2 MSTORE PUSH1 0x20 ADD PUSH1 0x0 DUP2 MSTORE PUSH1 0x20 ADD PUSH1 0x0 PUSH1 0x1 PUSH1 0xA0 PUSH1 0x2 EXP SUB AND DUP2 MSTORE PUSH1 0x20 ADD PUSH1 0x0 DUP2 MSTORE PUSH1 0x20 ADD PUSH1 0x0 DUP2 MSTORE PUSH1 0x20 ADD PUSH1 0x0 DUP2 MSTORE PUSH1 0x20 ADD PUSH2 0x57F7 PUSH2 0x5742 JUMP JUMPDEST DUP2 MSTORE PUSH1 0x20 ADD PUSH1 0x60 DUP2 MSTORE PUSH1 0x20 ADD PUSH1 0x0 DUP2 MSTORE POP SWAP1 JUMP JUMPDEST PUSH1 0x1 DUP4 ADD SWAP2 DUP4 SWAP1 DUP3 ISZERO PUSH2 0x588D JUMPI SWAP2 PUSH1 0x20 MUL DUP3 ADD PUSH1 0x0 JUMPDEST DUP4 DUP3 GT ISZERO PUSH2 0x585E JUMPI DUP4 MLOAD DUP4 DUP3 PUSH2 0x100 EXP DUP2 SLOAD DUP2 PUSH1 0xFF MUL NOT AND SWAP1 DUP4 ISZERO ISZERO MUL OR SWAP1 SSTORE POP SWAP3 PUSH1 0x20 ADD SWAP3 PUSH1 0x1 ADD PUSH1 0x20 DUP2 PUSH1 0x0 ADD DIV SWAP3 DUP4 ADD SWAP3 PUSH1 0x1 SUB MUL PUSH2 0x5821 JUMP JUMPDEST DUP1 ISZERO PUSH2 0x588B JUMPI DUP3 DUP2 PUSH2 0x100 EXP DUP2 SLOAD SWAP1 PUSH1 0xFF MUL NOT AND SWAP1 SSTORE PUSH1 0x1 ADD PUSH1 0x20 DUP2 PUSH1 0x0 ADD DIV SWAP3 DUP4 ADD SWAP3 PUSH1 0x1 SUB MUL PUSH2 0x585E JUMP JUMPDEST POP JUMPDEST POP PUSH2 0x5899 SWAP3 SWAP2 POP PUSH2 0x5917 JUMP JUMPDEST POP SWAP1 JUMP JUMPDEST DUP3 DUP1 SLOAD PUSH1 0x1 DUP2 PUSH1 0x1 AND ISZERO PUSH2 0x100 MUL SUB AND PUSH1 0x2 SWAP1 DIV SWAP1 PUSH1 0x0 MSTORE PUSH1 0x20 PUSH1 0x0 KECCAK256 SWAP1 PUSH1 0x1F ADD PUSH1 0x20 SWAP1 DIV DUP2 ADD SWAP3 DUP3 PUSH1 0x1F LT PUSH2 0x58DE JUMPI DUP1 MLOAD PUSH1 0xFF NOT AND DUP4 DUP1 ADD OR DUP6 SSTORE PUSH2 0x590B JUMP JUMPDEST DUP3 DUP1 ADD PUSH1 0x1 ADD DUP6 SSTORE DUP3 ISZERO PUSH2 0x590B JUMPI SWAP2 DUP3 ADD JUMPDEST DUP3 DUP2 GT ISZERO PUSH2 0x590B JUMPI DUP3 MLOAD DUP3 SSTORE SWAP2 PUSH1 0x20 ADD SWAP2 SWAP1 PUSH1 0x1 ADD SWAP1 PUSH2 0x58F0 JUMP JUMPDEST POP PUSH2 0x5899 SWAP3 SWAP2 POP PUSH2 0x5935 JUMP JUMPDEST PUSH2 0x10D3 SWAP2 SWAP1 JUMPDEST DUP1 DUP3 GT ISZERO PUSH2 0x5899 JUMPI DUP1 SLOAD PUSH1 0xFF NOT AND DUP2 SSTORE PUSH1 0x1 ADD PUSH2 0x591D JUMP JUMPDEST PUSH2 0x10D3 SWAP2 SWAP1 JUMPDEST DUP1 DUP3 GT ISZERO PUSH2 0x5899 JUMPI PUSH1 0x0 DUP2 SSTORE PUSH1 0x1 ADD PUSH2 0x593B JUMP INVALID PUSH4 0x616E6E6F PUSH21 0x206F7665727772697465206578697374696E672064 PUSH6 0x6C6567617465 KECCAK256 PUSH12 0x6579735265656E7472616E63 PUSH26 0x47756172643A207265656E7472616E742063616C6C0063616E6E PUSH16 0x7420726167657175697420756E74696C KECCAK256 PUSH9 0x69676865737420696E PUSH5 0x6578207072 PUSH16 0x706F73616C206D656D62657220766F74 PUSH6 0x642059455320 PUSH16 0x6E2069732070726F6365737365647072 PUSH16 0x706F73616C206973206E6F7420726561 PUSH5 0x7920746F20 PUSH3 0x652070 PUSH19 0x6F6365737365646170706C6963616E74206164 PUSH5 0x7265737320 PUSH4 0x616E6E6F PUSH21 0x20626520726573657276656463616E6E6F74207375 PUSH3 0x6D6974 KECCAK256 PUSH14 0x6F72652074726962757465207072 PUSH16 0x706F73616C7320666F72206E65772074 PUSH16 0x6B656E73202D206775696C6462616E6B KECCAK256 PUSH10 0x732066756C6C6D656D62 PUSH6 0x72206D757374 KECCAK256 PUSH15 0x6F7420616C7265616479206265206A PUSH2 0x696C PUSH6 0x647072657669 PUSH16 0x75732070726F706F73616C206D757374 KECCAK256 PUSH3 0x652070 PUSH19 0x6F636573736564746F6B656E20746F20636F6C PUSH13 0x656374206D7573742062652077 PUSH9 0x6974656C6973746564 PUSH4 0x616E6E6F PUSH21 0x2073706F6E736F72206D6F72652077686974656C69 PUSH20 0x742070726F706F73616C7373756D6D6F6E657220 PUSH13 0x656E677468206D69736D617463 PUSH9 0x65732073756D6D6F6E PUSH6 0x725368617265 PUSH20 0x6D656D626572206D757374206861766520617420 PUSH13 0x65617374206F6E652073686172 PUSH6 0x206F72206F6E PUSH6 0x206C6F6F7474 PUSH16 0x6B656E7320616E6420616D6F756E7473 KECCAK256 PUSH2 0x7272 PUSH2 0x7973 KECCAK256 PUSH14 0x757374206265206D61746368696E PUSH8 0x206C656E67746873 PUSH21 0x6F6B656E20746F20636F6C6C656374206D75737420 PUSH9 0x617665206E6F6E2D7A PUSH6 0x726F20677569 PUSH13 0x642062616E6B2062616C616E63 PUSH6 0x70726F706F73 PUSH2 0x6C20 PUSH2 0x7070 PUSH13 0x6963616E74206D757374206E6F PUSH21 0x206265206A61696C65645F766F74696E6750657269 PUSH16 0x644C656E677468206578636565647320 PUSH13 0x696D697470726F706F73616C20 PUSH9 0x617320616C72656164 PUSH26 0x206265656E2073706F6E736F72656463616E6E6F74206F766572 PUSH24 0x72697465206578697374696E67206D656D6265727363616E PUSH15 0x6F74207375626D6974206D6F726520 PUSH24 0x686974656C6973742070726F706F73616C7363616E6E6F74 KECCAK256 PUSH20 0x706F6E736F72206D6F7265207472696275746520 PUSH17 0x726F706F73616C7320666F72206E657720 PUSH21 0x6F6B656E73202D206775696C6462616E6B20697320 PUSH7 0x756C6C70726F70 PUSH16 0x73616C206465706F73697420746F6B65 PUSH15 0x207472616E73666572206661696C65 PUSH5 0x70726F706F PUSH20 0x616C20766F74696E6720706572696F6420686173 KECCAK256 PUSH6 0x787069726564 PUSH17 0x726F706F73616C2068617320616C726561 PUSH5 0x7920626565 PUSH15 0x2063616E63656C6C656463616E6E6F PUSH21 0x20616C726561647920686176652077686974656C69 PUSH20 0x7465642074686520746F6B656E5F70726F706F73 PUSH2 0x6C44 PUSH6 0x706F73697420 PUSH4 0x616E6E6F PUSH21 0x20626520736D616C6C6572207468616E205F70726F PUSH4 0x65737369 PUSH15 0x6752657761726470726F706F73616C KECCAK256 PUSH9 0x617320616C72656164 PUSH26 0x206265656E2070726F636573736564A165627A7A7230582071EC 0xb4 SAR CALLDATACOPY SDIV MLOAD STOP 0xd8 RETURNDATACOPY DIV 0x26 0xaa 0xb7 CALLER 0xe7 SWAP1 0x2f 0x2a SWAP7 0xd9 DUP8 CALLCODE DUP16 SWAP5 0xd0 0xba 0xcb DIFFICULTY PUSH19 0x9E740029000000000000000000000000000000 "
        },
        "methodIdentifiers": {
          "ESCROW()": "e681c4aa",
          "GUILD()": "f5d54c77",
          "TOTAL()": "27efc086",
          "approvedTokens(uint256)": "1dafede0",
          "canRagequit(uint256)": "a3dc3800",
          "cancelProposal(uint256)": "e0a8f6f5",
          "collectTokens(address)": "59999b41",
          "depositToken()": "c89039c5",
          "dilutionBound()": "afe5475f",
          "getCurrentPeriod()": "086146d2",
          "getMemberProposalVote(address,uint256)": "044a0ca8",
          "getProposalFlags(uint256)": "b2643aab",
          "getProposalQueueLength()": "797daf70",
          "getTokenCount()": "78a89567",
          "getUserTokenBalance(address,address)": "73f8fd4b",
          "gracePeriodLength()": "63858f2d",
          "hasVotingPeriodExpired(uint256)": "9425a476",
          "init(address[],address[],uint256,uint256,uint256,uint256,uint256,uint256,uint256[])": "a9162619",
          "memberAddressByDelegateKey(address)": "402c1794",
          "memberList(uint256)": "b307fc6d",
          "members(address)": "08ae4b0c",
          "periodDuration()": "b470aade",
          "processGuildKickProposal(uint256)": "e1a0e3fa",
          "processProposal(uint256)": "e63bc62d",
          "processWhitelistProposal(uint256)": "3793ab3c",
          "processingReward()": "03e32fa1",
          "proposalCount()": "da35c664",
          "proposalDeposit()": "8b15a605",
          "proposalQueue(uint256)": "3b214a74",
          "proposals(uint256)": "013cf08b",
          "proposedToKick(address)": "3fc24bba",
          "proposedToWhitelist(address)": "e1780345",
          "ragekick(address)": "dfdd369e",
          "ragequit(uint256,uint256)": "15eb349e",
          "sponsorProposal(uint256)": "9746d940",
          "submitGuildKickProposal(address,string)": "115b2d18",
          "submitProposal(address,uint256,uint256,uint256,address,uint256,address,string)": "590f940b",
          "submitVote(uint256,uint8)": "99653fbe",
          "submitWhitelistProposal(address,string)": "feb7ea1d",
          "summoningTime()": "7d5b6c72",
          "tokenWhitelist(address)": "753d7563",
          "totalGuildBankTokens()": "9d1722cb",
          "totalLoot()": "635e99aa",
          "totalShares()": "3a98ef39",
          "updateDelegateKey(address)": "2582bf2a",
          "userTokenBalances(address,address)": "45f2d105",
          "votingPeriodLength()": "8340bbce",
          "withdrawBalance(address,uint256)": "0cf20cc9",
          "withdrawBalances(address[],uint256[],bool)": "4482394b"
        }
      }
    }
  }
}