{
  "_format": "hh-sol-artifact-1",
  "contractName": "Moloch",
  "sourceName": "contracts/test-helper/Molochv21.sol",
  "abi": [
    {
      "constant": true,
      "inputs": [
        {
          "name": "",
          "type": "uint256"
        }
      ],
      "name": "proposals",
      "outputs": [
        {
          "name": "applicant",
          "type": "address"
        },
        {
          "name": "proposer",
          "type": "address"
        },
        {
          "name": "sponsor",
          "type": "address"
        },
        {
          "name": "sharesRequested",
          "type": "uint256"
        },
        {
          "name": "lootRequested",
          "type": "uint256"
        },
        {
          "name": "tributeOffered",
          "type": "uint256"
        },
        {
          "name": "tributeToken",
          "type": "address"
        },
        {
          "name": "paymentRequested",
          "type": "uint256"
        },
        {
          "name": "paymentToken",
          "type": "address"
        },
        {
          "name": "startingPeriod",
          "type": "uint256"
        },
        {
          "name": "yesVotes",
          "type": "uint256"
        },
        {
          "name": "noVotes",
          "type": "uint256"
        },
        {
          "name": "details",
          "type": "string"
        },
        {
          "name": "maxTotalSharesAndLootAtYesVote",
          "type": "uint256"
        }
      ],
      "payable": false,
      "stateMutability": "view",
      "type": "function"
    },
    {
      "constant": true,
      "inputs": [],
      "name": "processingReward",
      "outputs": [
        {
          "name": "",
          "type": "uint256"
        }
      ],
      "payable": false,
      "stateMutability": "view",
      "type": "function"
    },
    {
      "constant": true,
      "inputs": [
        {
          "name": "memberAddress",
          "type": "address"
        },
        {
          "name": "proposalIndex",
          "type": "uint256"
        }
      ],
      "name": "getMemberProposalVote",
      "outputs": [
        {
          "name": "",
          "type": "uint8"
        }
      ],
      "payable": false,
      "stateMutability": "view",
      "type": "function"
    },
    {
      "constant": true,
      "inputs": [],
      "name": "getCurrentPeriod",
      "outputs": [
        {
          "name": "",
          "type": "uint256"
        }
      ],
      "payable": false,
      "stateMutability": "view",
      "type": "function"
    },
    {
      "constant": true,
      "inputs": [
        {
          "name": "",
          "type": "address"
        }
      ],
      "name": "members",
      "outputs": [
        {
          "name": "delegateKey",
          "type": "address"
        },
        {
          "name": "shares",
          "type": "uint256"
        },
        {
          "name": "loot",
          "type": "uint256"
        },
        {
          "name": "exists",
          "type": "bool"
        },
        {
          "name": "highestIndexYesVote",
          "type": "uint256"
        },
        {
          "name": "jailed",
          "type": "uint256"
        }
      ],
      "payable": false,
      "stateMutability": "view",
      "type": "function"
    },
    {
      "constant": false,
      "inputs": [
        {
          "name": "token",
          "type": "address"
        },
        {
          "name": "amount",
          "type": "uint256"
        }
      ],
      "name": "withdrawBalance",
      "outputs": [],
      "payable": false,
      "stateMutability": "nonpayable",
      "type": "function"
    },
    {
      "constant": false,
      "inputs": [
        {
          "name": "memberToKick",
          "type": "address"
        },
        {
          "name": "details",
          "type": "string"
        }
      ],
      "name": "submitGuildKickProposal",
      "outputs": [
        {
          "name": "proposalId",
          "type": "uint256"
        }
      ],
      "payable": false,
      "stateMutability": "nonpayable",
      "type": "function"
    },
    {
      "constant": false,
      "inputs": [
        {
          "name": "sharesToBurn",
          "type": "uint256"
        },
        {
          "name": "lootToBurn",
          "type": "uint256"
        }
      ],
      "name": "ragequit",
      "outputs": [],
      "payable": false,
      "stateMutability": "nonpayable",
      "type": "function"
    },
    {
      "constant": true,
      "inputs": [
        {
          "name": "",
          "type": "uint256"
        }
      ],
      "name": "approvedTokens",
      "outputs": [
        {
          "name": "",
          "type": "address"
        }
      ],
      "payable": false,
      "stateMutability": "view",
      "type": "function"
    },
    {
      "constant": false,
      "inputs": [
        {
          "name": "newDelegateKey",
          "type": "address"
        }
      ],
      "name": "updateDelegateKey",
      "outputs": [],
      "payable": false,
      "stateMutability": "nonpayable",
      "type": "function"
    },
    {
      "constant": true,
      "inputs": [],
      "name": "TOTAL",
      "outputs": [
        {
          "name": "",
          "type": "address"
        }
      ],
      "payable": false,
      "stateMutability": "view",
      "type": "function"
    },
    {
      "constant": false,
      "inputs": [
        {
          "name": "proposalIndex",
          "type": "uint256"
        }
      ],
      "name": "processWhitelistProposal",
      "outputs": [],
      "payable": false,
      "stateMutability": "nonpayable",
      "type": "function"
    },
    {
      "constant": true,
      "inputs": [],
      "name": "totalShares",
      "outputs": [
        {
          "name": "",
          "type": "uint256"
        }
      ],
      "payable": false,
      "stateMutability": "view",
      "type": "function"
    },
    {
      "constant": true,
      "inputs": [
        {
          "name": "",
          "type": "uint256"
        }
      ],
      "name": "proposalQueue",
      "outputs": [
        {
          "name": "",
          "type": "uint256"
        }
      ],
      "payable": false,
      "stateMutability": "view",
      "type": "function"
    },
    {
      "constant": true,
      "inputs": [
        {
          "name": "",
          "type": "address"
        }
      ],
      "name": "proposedToKick",
      "outputs": [
        {
          "name": "",
          "type": "bool"
        }
      ],
      "payable": false,
      "stateMutability": "view",
      "type": "function"
    },
    {
      "constant": true,
      "inputs": [
        {
          "name": "",
          "type": "address"
        }
      ],
      "name": "memberAddressByDelegateKey",
      "outputs": [
        {
          "name": "",
          "type": "address"
        }
      ],
      "payable": false,
      "stateMutability": "view",
      "type": "function"
    },
    {
      "constant": false,
      "inputs": [
        {
          "name": "tokens",
          "type": "address[]"
        },
        {
          "name": "amounts",
          "type": "uint256[]"
        },
        {
          "name": "max",
          "type": "bool"
        }
      ],
      "name": "withdrawBalances",
      "outputs": [],
      "payable": false,
      "stateMutability": "nonpayable",
      "type": "function"
    },
    {
      "constant": true,
      "inputs": [
        {
          "name": "",
          "type": "address"
        },
        {
          "name": "",
          "type": "address"
        }
      ],
      "name": "userTokenBalances",
      "outputs": [
        {
          "name": "",
          "type": "uint256"
        }
      ],
      "payable": false,
      "stateMutability": "view",
      "type": "function"
    },
    {
      "constant": false,
      "inputs": [
        {
          "name": "applicant",
          "type": "address"
        },
        {
          "name": "sharesRequested",
          "type": "uint256"
        },
        {
          "name": "lootRequested",
          "type": "uint256"
        },
        {
          "name": "tributeOffered",
          "type": "uint256"
        },
        {
          "name": "tributeToken",
          "type": "address"
        },
        {
          "name": "paymentRequested",
          "type": "uint256"
        },
        {
          "name": "paymentToken",
          "type": "address"
        },
        {
          "name": "details",
          "type": "string"
        }
      ],
      "name": "submitProposal",
      "outputs": [
        {
          "name": "proposalId",
          "type": "uint256"
        }
      ],
      "payable": false,
      "stateMutability": "nonpayable",
      "type": "function"
    },
    {
      "constant": false,
      "inputs": [
        {
          "name": "token",
          "type": "address"
        }
      ],
      "name": "collectTokens",
      "outputs": [],
      "payable": false,
      "stateMutability": "nonpayable",
      "type": "function"
    },
    {
      "constant": true,
      "inputs": [],
      "name": "totalLoot",
      "outputs": [
        {
          "name": "",
          "type": "uint256"
        }
      ],
      "payable": false,
      "stateMutability": "view",
      "type": "function"
    },
    {
      "constant": true,
      "inputs": [],
      "name": "gracePeriodLength",
      "outputs": [
        {
          "name": "",
          "type": "uint256"
        }
      ],
      "payable": false,
      "stateMutability": "view",
      "type": "function"
    },
    {
      "constant": true,
      "inputs": [
        {
          "name": "user",
          "type": "address"
        },
        {
          "name": "token",
          "type": "address"
        }
      ],
      "name": "getUserTokenBalance",
      "outputs": [
        {
          "name": "",
          "type": "uint256"
        }
      ],
      "payable": false,
      "stateMutability": "view",
      "type": "function"
    },
    {
      "constant": true,
      "inputs": [
        {
          "name": "",
          "type": "address"
        }
      ],
      "name": "tokenWhitelist",
      "outputs": [
        {
          "name": "",
          "type": "bool"
        }
      ],
      "payable": false,
      "stateMutability": "view",
      "type": "function"
    },
    {
      "constant": true,
      "inputs": [],
      "name": "getTokenCount",
      "outputs": [
        {
          "name": "",
          "type": "uint256"
        }
      ],
      "payable": false,
      "stateMutability": "view",
      "type": "function"
    },
    {
      "constant": true,
      "inputs": [],
      "name": "getProposalQueueLength",
      "outputs": [
        {
          "name": "",
          "type": "uint256"
        }
      ],
      "payable": false,
      "stateMutability": "view",
      "type": "function"
    },
    {
      "constant": true,
      "inputs": [],
      "name": "summoningTime",
      "outputs": [
        {
          "name": "",
          "type": "uint256"
        }
      ],
      "payable": false,
      "stateMutability": "view",
      "type": "function"
    },
    {
      "constant": true,
      "inputs": [],
      "name": "votingPeriodLength",
      "outputs": [
        {
          "name": "",
          "type": "uint256"
        }
      ],
      "payable": false,
      "stateMutability": "view",
      "type": "function"
    },
    {
      "constant": true,
      "inputs": [],
      "name": "proposalDeposit",
      "outputs": [
        {
          "name": "",
          "type": "uint256"
        }
      ],
      "payable": false,
      "stateMutability": "view",
      "type": "function"
    },
    {
      "constant": true,
      "inputs": [
        {
          "name": "startingPeriod",
          "type": "uint256"
        }
      ],
      "name": "hasVotingPeriodExpired",
      "outputs": [
        {
          "name": "",
          "type": "bool"
        }
      ],
      "payable": false,
      "stateMutability": "view",
      "type": "function"
    },
    {
      "constant": false,
      "inputs": [
        {
          "name": "proposalId",
          "type": "uint256"
        }
      ],
      "name": "sponsorProposal",
      "outputs": [],
      "payable": false,
      "stateMutability": "nonpayable",
      "type": "function"
    },
    {
      "constant": false,
      "inputs": [
        {
          "name": "proposalIndex",
          "type": "uint256"
        },
        {
          "name": "uintVote",
          "type": "uint8"
        }
      ],
      "name": "submitVote",
      "outputs": [],
      "payable": false,
      "stateMutability": "nonpayable",
      "type": "function"
    },
    {
      "constant": true,
      "inputs": [],
      "name": "totalGuildBankTokens",
      "outputs": [
        {
          "name": "",
          "type": "uint256"
        }
      ],
      "payable": false,
      "stateMutability": "view",
      "type": "function"
    },
    {
      "constant": true,
      "inputs": [
        {
          "name": "highestIndexYesVote",
          "type": "uint256"
        }
      ],
      "name": "canRagequit",
      "outputs": [
        {
          "name": "",
          "type": "bool"
        }
      ],
      "payable": false,
      "stateMutability": "view",
      "type": "function"
    },
    {
      "constant": false,
      "inputs": [
        {
          "name": "_summoner",
          "type": "address[]"
        },
        {
          "name": "_approvedTokens",
          "type": "address[]"
        },
        {
          "name": "_periodDuration",
          "type": "uint256"
        },
        {
          "name": "_votingPeriodLength",
          "type": "uint256"
        },
        {
          "name": "_gracePeriodLength",
          "type": "uint256"
        },
        {
          "name": "_proposalDeposit",
          "type": "uint256"
        },
        {
          "name": "_dilutionBound",
          "type": "uint256"
        },
        {
          "name": "_processingReward",
          "type": "uint256"
        },
        {
          "name": "_summonerShares",
          "type": "uint256[]"
        }
      ],
      "name": "init",
      "outputs": [],
      "payable": false,
      "stateMutability": "nonpayable",
      "type": "function"
    },
    {
      "constant": true,
      "inputs": [],
      "name": "dilutionBound",
      "outputs": [
        {
          "name": "",
          "type": "uint256"
        }
      ],
      "payable": false,
      "stateMutability": "view",
      "type": "function"
    },
    {
      "constant": true,
      "inputs": [
        {
          "name": "proposalId",
          "type": "uint256"
        }
      ],
      "name": "getProposalFlags",
      "outputs": [
        {
          "name": "",
          "type": "bool[6]"
        }
      ],
      "payable": false,
      "stateMutability": "view",
      "type": "function"
    },
    {
      "constant": true,
      "inputs": [
        {
          "name": "",
          "type": "uint256"
        }
      ],
      "name": "memberList",
      "outputs": [
        {
          "name": "",
          "type": "address"
        }
      ],
      "payable": false,
      "stateMutability": "view",
      "type": "function"
    },
    {
      "constant": true,
      "inputs": [],
      "name": "periodDuration",
      "outputs": [
        {
          "name": "",
          "type": "uint256"
        }
      ],
      "payable": false,
      "stateMutability": "view",
      "type": "function"
    },
    {
      "constant": true,
      "inputs": [],
      "name": "depositToken",
      "outputs": [
        {
          "name": "",
          "type": "address"
        }
      ],
      "payable": false,
      "stateMutability": "view",
      "type": "function"
    },
    {
      "constant": true,
      "inputs": [],
      "name": "proposalCount",
      "outputs": [
        {
          "name": "",
          "type": "uint256"
        }
      ],
      "payable": false,
      "stateMutability": "view",
      "type": "function"
    },
    {
      "constant": false,
      "inputs": [
        {
          "name": "memberToKick",
          "type": "address"
        }
      ],
      "name": "ragekick",
      "outputs": [],
      "payable": false,
      "stateMutability": "nonpayable",
      "type": "function"
    },
    {
      "constant": false,
      "inputs": [
        {
          "name": "proposalId",
          "type": "uint256"
        }
      ],
      "name": "cancelProposal",
      "outputs": [],
      "payable": false,
      "stateMutability": "nonpayable",
      "type": "function"
    },
    {
      "constant": true,
      "inputs": [
        {
          "name": "",
          "type": "address"
        }
      ],
      "name": "proposedToWhitelist",
      "outputs": [
        {
          "name": "",
          "type": "bool"
        }
      ],
      "payable": false,
      "stateMutability": "view",
      "type": "function"
    },
    {
      "constant": false,
      "inputs": [
        {
          "name": "proposalIndex",
          "type": "uint256"
        }
      ],
      "name": "processGuildKickProposal",
      "outputs": [],
      "payable": false,
      "stateMutability": "nonpayable",
      "type": "function"
    },
    {
      "constant": false,
      "inputs": [
        {
          "name": "proposalIndex",
          "type": "uint256"
        }
      ],
      "name": "processProposal",
      "outputs": [],
      "payable": false,
      "stateMutability": "nonpayable",
      "type": "function"
    },
    {
      "constant": true,
      "inputs": [],
      "name": "ESCROW",
      "outputs": [
        {
          "name": "",
          "type": "address"
        }
      ],
      "payable": false,
      "stateMutability": "view",
      "type": "function"
    },
    {
      "constant": true,
      "inputs": [],
      "name": "GUILD",
      "outputs": [
        {
          "name": "",
          "type": "address"
        }
      ],
      "payable": false,
      "stateMutability": "view",
      "type": "function"
    },
    {
      "constant": false,
      "inputs": [
        {
          "name": "tokenToWhitelist",
          "type": "address"
        },
        {
          "name": "details",
          "type": "string"
        }
      ],
      "name": "submitWhitelistProposal",
      "outputs": [
        {
          "name": "proposalId",
          "type": "uint256"
        }
      ],
      "payable": false,
      "stateMutability": "nonpayable",
      "type": "function"
    },
    {
      "anonymous": false,
      "inputs": [
        {
          "indexed": true,
          "name": "summoner",
          "type": "address"
        },
        {
          "indexed": false,
          "name": "tokens",
          "type": "address[]"
        },
        {
          "indexed": false,
          "name": "summoningTime",
          "type": "uint256"
        },
        {
          "indexed": false,
          "name": "periodDuration",
          "type": "uint256"
        },
        {
          "indexed": false,
          "name": "votingPeriodLength",
          "type": "uint256"
        },
        {
          "indexed": false,
          "name": "gracePeriodLength",
          "type": "uint256"
        },
        {
          "indexed": false,
          "name": "proposalDeposit",
          "type": "uint256"
        },
        {
          "indexed": false,
          "name": "dilutionBound",
          "type": "uint256"
        },
        {
          "indexed": false,
          "name": "processingReward",
          "type": "uint256"
        }
      ],
      "name": "SummonComplete",
      "type": "event"
    },
    {
      "anonymous": false,
      "inputs": [
        {
          "indexed": true,
          "name": "applicant",
          "type": "address"
        },
        {
          "indexed": false,
          "name": "sharesRequested",
          "type": "uint256"
        },
        {
          "indexed": false,
          "name": "lootRequested",
          "type": "uint256"
        },
        {
          "indexed": false,
          "name": "tributeOffered",
          "type": "uint256"
        },
        {
          "indexed": false,
          "name": "tributeToken",
          "type": "address"
        },
        {
          "indexed": false,
          "name": "paymentRequested",
          "type": "uint256"
        },
        {
          "indexed": false,
          "name": "paymentToken",
          "type": "address"
        },
        {
          "indexed": false,
          "name": "details",
          "type": "string"
        },
        {
          "indexed": false,
          "name": "flags",
          "type": "bool[6]"
        },
        {
          "indexed": false,
          "name": "proposalId",
          "type": "uint256"
        },
        {
          "indexed": true,
          "name": "delegateKey",
          "type": "address"
        },
        {
          "indexed": true,
          "name": "memberAddress",
          "type": "address"
        }
      ],
      "name": "SubmitProposal",
      "type": "event"
    },
    {
      "anonymous": false,
      "inputs": [
        {
          "indexed": true,
          "name": "delegateKey",
          "type": "address"
        },
        {
          "indexed": true,
          "name": "memberAddress",
          "type": "address"
        },
        {
          "indexed": false,
          "name": "proposalId",
          "type": "uint256"
        },
        {
          "indexed": false,
          "name": "proposalIndex",
          "type": "uint256"
        },
        {
          "indexed": false,
          "name": "startingPeriod",
          "type": "uint256"
        }
      ],
      "name": "SponsorProposal",
      "type": "event"
    },
    {
      "anonymous": false,
      "inputs": [
        {
          "indexed": false,
          "name": "proposalId",
          "type": "uint256"
        },
        {
          "indexed": true,
          "name": "proposalIndex",
          "type": "uint256"
        },
        {
          "indexed": true,
          "name": "delegateKey",
          "type": "address"
        },
        {
          "indexed": true,
          "name": "memberAddress",
          "type": "address"
        },
        {
          "indexed": false,
          "name": "uintVote",
          "type": "uint8"
        }
      ],
      "name": "SubmitVote",
      "type": "event"
    },
    {
      "anonymous": false,
      "inputs": [
        {
          "indexed": true,
          "name": "proposalIndex",
          "type": "uint256"
        },
        {
          "indexed": true,
          "name": "proposalId",
          "type": "uint256"
        },
        {
          "indexed": false,
          "name": "didPass",
          "type": "bool"
        }
      ],
      "name": "ProcessProposal",
      "type": "event"
    },
    {
      "anonymous": false,
      "inputs": [
        {
          "indexed": true,
          "name": "proposalIndex",
          "type": "uint256"
        },
        {
          "indexed": true,
          "name": "proposalId",
          "type": "uint256"
        },
        {
          "indexed": false,
          "name": "didPass",
          "type": "bool"
        }
      ],
      "name": "ProcessWhitelistProposal",
      "type": "event"
    },
    {
      "anonymous": false,
      "inputs": [
        {
          "indexed": true,
          "name": "proposalIndex",
          "type": "uint256"
        },
        {
          "indexed": true,
          "name": "proposalId",
          "type": "uint256"
        },
        {
          "indexed": false,
          "name": "didPass",
          "type": "bool"
        }
      ],
      "name": "ProcessGuildKickProposal",
      "type": "event"
    },
    {
      "anonymous": false,
      "inputs": [
        {
          "indexed": true,
          "name": "memberAddress",
          "type": "address"
        },
        {
          "indexed": false,
          "name": "sharesToBurn",
          "type": "uint256"
        },
        {
          "indexed": false,
          "name": "lootToBurn",
          "type": "uint256"
        }
      ],
      "name": "Ragequit",
      "type": "event"
    },
    {
      "anonymous": false,
      "inputs": [
        {
          "indexed": true,
          "name": "token",
          "type": "address"
        },
        {
          "indexed": false,
          "name": "amountToCollect",
          "type": "uint256"
        }
      ],
      "name": "TokensCollected",
      "type": "event"
    },
    {
      "anonymous": false,
      "inputs": [
        {
          "indexed": true,
          "name": "proposalId",
          "type": "uint256"
        },
        {
          "indexed": false,
          "name": "applicantAddress",
          "type": "address"
        }
      ],
      "name": "CancelProposal",
      "type": "event"
    },
    {
      "anonymous": false,
      "inputs": [
        {
          "indexed": true,
          "name": "memberAddress",
          "type": "address"
        },
        {
          "indexed": false,
          "name": "newDelegateKey",
          "type": "address"
        }
      ],
      "name": "UpdateDelegateKey",
      "type": "event"
    },
    {
      "anonymous": false,
      "inputs": [
        {
          "indexed": true,
          "name": "memberAddress",
          "type": "address"
        },
        {
          "indexed": false,
          "name": "token",
          "type": "address"
        },
        {
          "indexed": false,
          "name": "amount",
          "type": "uint256"
        }
      ],
      "name": "Withdraw",
      "type": "event"
    }
  ],
  "bytecode": "0x608060405260006009556000600a556000600b556000600c556001600081905550615dd68061002f6000396000f3fe608060405234801561001057600080fd5b5060043610610348576000357c01000000000000000000000000000000000000000000000000000000009004806378a89567116101cf578063b2643aab11610116578063e0a8f6f5116100bf578063e63bc62d11610099578063e63bc62d14610d3b578063e681c4aa14610d58578063f5d54c7714610d60578063feb7ea1d14610d6857610348565b8063e0a8f6f514610cdb578063e178034514610cf8578063e1a0e3fa14610d1e57610348565b8063c89039c5116100f0578063c89039c514610ca5578063da35c66414610cad578063dfdd369e14610cb557610348565b8063b2643aab14610c2b578063b307fc6d14610c80578063b470aade14610c9d57610348565b80639746d94011610178578063a3dc380011610152578063a3dc380014610acd578063a916261914610aea578063afe5475f14610c2357610348565b80639746d94014610a8257806399653fbe14610a9f5780639d1722cb14610ac557610348565b80638340bbce116101a95780638340bbce14610a555780638b15a60514610a5d5780639425a47614610a6557610348565b806378a8956714610a3d578063797daf7014610a455780637d5b6c7214610a4d57610348565b80633a98ef3911610293578063590f940b1161023c57806363858f2d1161021657806363858f2d146109e157806373f8fd4b146109e9578063753d756314610a1757610348565b8063590f940b146108d357806359999b41146109b3578063635e99aa146109d957610348565b8063402c17941161026d578063402c1794146107565780634482394b1461077c57806345f2d105146108a557610348565b80633a98ef39146106f75780633b214a74146106ff5780633fc24bba1461071c57610348565b8063115b2d18116102f55780632582bf2a116102cf5780632582bf2a146106ac57806327efc086146106d25780633793ab3c146106da57610348565b8063115b2d181461059a57806315eb349e146106505780631dafede01461067357610348565b8063086146d211610326578063086146d21461050157806308ae4b0c146105095780630cf20cc91461056c57610348565b8063013cf08b1461034d57806303e32fa114610497578063044a0ca8146104b1575b600080fd5b61036a6004803603602081101561036357600080fd5b5035610e1e565b604051808f600160a060020a0316600160a060020a031681526020018e600160a060020a0316600160a060020a031681526020018d600160a060020a0316600160a060020a031681526020018c81526020018b81526020018a815260200189600160a060020a0316600160a060020a0316815260200188815260200187600160a060020a0316600160a060020a0316815260200186815260200185815260200184815260200180602001838152602001828103825284818151815260200191508051906020019080838360005b8381101561044f578181015183820152602001610437565b50505050905090810190601f16801561047c5780820380516001836020036101000a031916815260200191505b509f5050505050505050505050505050505060405180910390f35b61049f610f81565b60408051918252519081900360200190f35b6104dd600480360360408110156104c757600080fd5b50600160a060020a038135169060200135610f87565b604051808260028111156104ed57fe5b60ff16815260200191505060405180910390f35b61049f6110a7565b61052f6004803603602081101561051f57600080fd5b5035600160a060020a03166110d6565b60408051600160a060020a0390971687526020870195909552858501939093529015156060850152608084015260a0830152519081900360c00190f35b6105986004803603604081101561058257600080fd5b50600160a060020a038135169060200135611119565b005b61049f600480360360408110156105b057600080fd5b600160a060020a0382351691908101906040810160208201356401000000008111156105db57600080fd5b8201836020820111156105ed57600080fd5b8035906020019184600183028401116401000000008311171561060f57600080fd5b91908080601f01602080910402602001604051908101604052809392919081815260200183838082843760009201919091525092955061117a945050505050565b6105986004803603604081101561066657600080fd5b5080359060200135611317565b6106906004803603602081101561068957600080fd5b50356113f4565b60408051600160a060020a039092168252519081900360200190f35b610598600480360360208110156106c257600080fd5b5035600160a060020a031661141c565b6106906116a7565b610598600480360360208110156106f057600080fd5b50356116ad565b61049f6118e0565b61049f6004803603602081101561071557600080fd5b50356118e6565b6107426004803603602081101561073257600080fd5b5035600160a060020a0316611905565b604080519115158252519081900360200190f35b6106906004803603602081101561076c57600080fd5b5035600160a060020a031661191a565b6105986004803603606081101561079257600080fd5b8101906020810181356401000000008111156107ad57600080fd5b8201836020820111156107bf57600080fd5b803590602001918460208302840111640100000000831117156107e157600080fd5b919080806020026020016040519081016040528093929190818152602001838360200280828437600092019190915250929594936020810193503591505064010000000081111561083157600080fd5b82018360208201111561084357600080fd5b8035906020019184602083028401116401000000008311171561086557600080fd5b9190808060200260200160405190810160405280939291908181526020018383602002808284376000920191909152509295505050503515159050611935565b61049f600480360360408110156108bb57600080fd5b50600160a060020a0381358116916020013516611a77565b61049f60048036036101008110156108ea57600080fd5b600160a060020a038235811692602081013592604082013592606083013592608081013582169260a08201359260c0830135169190810190610100810160e082013564010000000081111561093e57600080fd5b82018360208201111561095057600080fd5b8035906020019184600183028401116401000000008311171561097257600080fd5b91908080601f016020809104026020016040519081016040528093929190818152602001838380828437600092019190915250929550611a94945050505050565b610598600480360360208110156109c957600080fd5b5035600160a060020a0316611f2c565b61049f61229b565b61049f6122a1565b61049f600480360360408110156109ff57600080fd5b50600160a060020a03813581169160200135166122a7565b61074260048036036020811015610a2d57600080fd5b5035600160a060020a03166122d2565b61049f6122e7565b61049f6122ed565b61049f6122f3565b61049f6122f9565b61049f6122ff565b61074260048036036020811015610a7b57600080fd5b5035612305565b61059860048036036020811015610a9857600080fd5b503561232c565b61059860048036036040811015610ab557600080fd5b508035906020013560ff16612a7a565b61049f612f7c565b61074260048036036020811015610ae357600080fd5b5035612f82565b6105986004803603610120811015610b0157600080fd5b810190602081018135640100000000811115610b1c57600080fd5b820183602082011115610b2e57600080fd5b80359060200191846020830284011164010000000083111715610b5057600080fd5b919390929091602081019035640100000000811115610b6e57600080fd5b820183602082011115610b8057600080fd5b80359060200191846020830284011164010000000083111715610ba257600080fd5b9193909282359260208101359260408201359260608301359260808101359260a082013592909160e081019060c00135640100000000811115610be457600080fd5b820183602082011115610bf657600080fd5b80359060200191846020830284011164010000000083111715610c1857600080fd5b509092509050613038565b61049f6138b3565b610c4860048036036020811015610c4157600080fd5b50356138b9565b604051808260c080838360005b83811015610c6d578181015183820152602001610c55565b5050505090500191505060405180910390f35b61069060048036036020811015610c9657600080fd5b5035613923565b61049f613931565b610690613937565b61049f61394b565b61059860048036036020811015610ccb57600080fd5b5035600160a060020a0316613951565b61059860048036036020811015610cf157600080fd5b5035613aca565b61074260048036036020811015610d0e57600080fd5b5035600160a060020a0316613c9e565b61059860048036036020811015610d3457600080fd5b5035613cb3565b61059860048036036020811015610d5157600080fd5b5035613ec4565b6106906144ce565b6106906144d4565b61049f60048036036040811015610d7e57600080fd5b600160a060020a038235169190810190604081016020820135640100000000811115610da957600080fd5b820183602082011115610dbb57600080fd5b80359060200191846001830284011164010000000083111715610ddd57600080fd5b91908080601f0160208091040260200160405190810160405280939291908181526020018383808284376000920191909152509295506144da945050505050565b60156020528060005260406000206000915090508060000160009054906101000a9004600160a060020a0316908060010160009054906101000a9004600160a060020a0316908060020160009054906101000a9004600160a060020a0316908060030154908060040154908060050154908060060160009054906101000a9004600160a060020a0316908060070154908060080160009054906101000a9004600160a060020a03169080600901549080600a01549080600b01549080600d018054600181600116156101000203166002900480601f016020809104026020016040519081016040528092919081815260200182805460018160011615610100020316600290048015610f715780601f10610f4657610100808354040283529160200191610f71565b820191906000526020600020905b815481529060010190602001808311610f5457829003601f168201915b50505050509080600e015490508e565b60065481565b600160a060020a03821660009081526012602052604081206003015460ff161515610ffc576040805160e560020a62461bcd02815260206004820152601560248201527f6d656d62657220646f6573206e6f742065786973740000000000000000000000604482015290519081900360640190fd5b6016548210611055576040805160e560020a62461bcd02815260206004820152601760248201527f70726f706f73616c20646f6573206e6f74206578697374000000000000000000604482015290519081900360640190fd5b6015600060168481548110151561106857fe5b600091825260208083209091015483528281019390935260409182018120600160a060020a0387168252600f0190925290205460ff1690505b92915050565b60006110d06001546110c46007544261465e90919063ffffffff16565b9063ffffffff61467316565b90505b90565b601260205260009081526040902080546001820154600283015460038401546004850154600590950154600160a060020a03909416949293919260ff9091169186565b60005460021415611162576040805160e560020a62461bcd02815260206004820152601f6024820152600080516020615977833981519152604482015290519081900360640190fd5b60026000556111718282614697565b50506001600055565b60008054600214156111c4576040805160e560020a62461bcd02815260206004820152601f6024820152600080516020615977833981519152604482015290519081900360640190fd5b60026000556111d1615700565b50600160a060020a038084166000908152601260209081526040808320815160c081018352815490951685526001810154928501839052600281015491850191909152600381015460ff1615156060850152600481015460808501526005015460a08401521180611246575060008160400151115b15156112865760405160e560020a62461bcd02815260040180806020018281038252602f815260200180615b2c602f913960400191505060405180910390fd5b600160a060020a038416600090815260126020526040902060050154156112e15760405160e560020a62461bcd028152600401808060200182810382526021815260200180615a746021913960400191505060405180910390fd5b6112e9615742565b600160a082015261130285600080808080808b8961484e565b50506009546001600055600019019392505050565b60005460021415611360576040805160e560020a62461bcd02815260206004820152601f6024820152600080516020615977833981519152604482015290519081900360640190fd5b60026000908155338152601260205260408120600101541180611393575033600090815260126020526040812060020154115b15156113e9576040805160e560020a62461bcd02815260206004820152600c60248201527f6e6f742061206d656d6265720000000000000000000000000000000000000000604482015290519081900360640190fd5b611171338383614c09565b600f80548290811061140257fe5b600091825260209091200154600160a060020a0316905081565b60005460021415611465576040805160e560020a62461bcd02815260206004820152601f6024820152600080516020615977833981519152604482015290519081900360640190fd5b6002600090815533815260126020526040812060010154116114d1576040805160e560020a62461bcd02815260206004820152601160248201527f6e6f742061207368617265686f6c646572000000000000000000000000000000604482015290519081900360640190fd5b600160a060020a0381161515611531576040805160e560020a62461bcd02815260206004820152601a60248201527f6e657744656c65676174654b65792063616e6e6f742062652030000000000000604482015290519081900360640190fd5b600160a060020a038116331461160c57600160a060020a03811660009081526012602052604090206003015460ff161561159f5760405160e560020a62461bcd028152600401808060200182810382526021815260200180615c2c6021913960400191505060405180910390fd5b600160a060020a03808216600090815260136020908152604080832054909316825260129052206003015460ff161561160c5760405160e560020a62461bcd0281526004018080602001828103825260278152602001806159506027913960400191505060405180910390fd5b3360008181526012602090815260408083208054600160a060020a03908116855260138452828520805473ffffffffffffffffffffffffffffffffffffffff1990811690915590871680865294839020805482168717905581541684178155815193845290519093927fde7b64a369e10562cc2e71f0f1f944eaf144b75fead6ecb51fac9c4dd693488592908290030190a250506001600055565b61babe81565b600054600214156116f6576040805160e560020a62461bcd02815260206004820152601f6024820152600080516020615977833981519152604482015290519081900360640190fd5b600260005561170481614f4a565b600060168281548110151561171557fe5b60009182526020808320919091015480835260159091526040909120600c81015491925090640100000000900460ff16151561179b576040805160e560020a62461bcd02815260206004820152601c60248201527f6d75737420626520612077686974656c6973742070726f706f73616c00000000604482015290519081900360640190fd5b600c8101805461ff00191661010017905560006117b7846152cb565b600f54909150610190116117c9575060005b801561186757600c8201805462ff0000191662010000179055600682018054600160a060020a039081166000908152600e60205260408120805460ff191660019081179091559254600f805494850181559091527f8d1108e10bcb7c27dddfc02ed9d693a074039d026cf4ea4240b40f7d581ac80290920180549290911673ffffffffffffffffffffffffffffffffffffffff199092169190911790555b6006820154600160a060020a039081166000908152601060205260409020805460ff19169055600283015461189c911661550c565b6040805182151581529051849186917f2094fc13d2ecb0acd6861e82bd006c7e5ab6f312ec0c6cdfe3d1a01ee54d885a9181900360200190a3505060016000555050565b600a5481565b60168054829081106118f457fe5b600091825260209091200154905081565b60116020526000908152604090205460ff1681565b601360205260009081526040902054600160a060020a031681565b6000546002141561197e576040805160e560020a62461bcd02815260206004820152601f6024820152600080516020615977833981519152604482015290519081900360640190fd5b600260005581518351146119c65760405160e560020a62461bcd028152600401808060200182810382526032815260200180615b5b6032913960400191505060405180910390fd5b60005b8351811015611a6c57600083828151811015156119e257fe5b9060200190602002015190508215611a4257336000908152600d602052604081208651909190879085908110611a1457fe5b90602001906020020151600160a060020a0316600160a060020a031681526020019081526020016000205490505b611a638583815181101515611a5357fe5b9060200190602002015182614697565b506001016119c9565b505060016000555050565b600d60209081526000928352604080842090915290825290205481565b6000805460021415611ade576040805160e560020a62461bcd02815260206004820152601f6024820152600080516020615977833981519152604482015290519081900360640190fd5b6002600055670de0b6b3a7640000611afc898963ffffffff61556d16565b1115611b52576040805160e560020a62461bcd02815260206004820152601960248201527f746f6f206d616e79207368617265732072657175657374656400000000000000604482015290519081900360640190fd5b600160a060020a0385166000908152600e602052604090205460ff161515611bc4576040805160e560020a62461bcd02815260206004820152601f60248201527f74726962757465546f6b656e206973206e6f742077686974656c697374656400604482015290519081900360640190fd5b600160a060020a0383166000908152600e602052604090205460ff161515611c36576040805160e560020a62461bcd02815260206004820152601a60248201527f7061796d656e74206973206e6f742077686974656c6973746564000000000000604482015290519081900360640190fd5b600160a060020a0389161515611c96576040805160e560020a62461bcd02815260206004820152601560248201527f6170706c6963616e742063616e6e6f7420626520300000000000000000000000604482015290519081900360640190fd5b600160a060020a03891661dead14801590611cbc5750600160a060020a03891661beef14155b8015611cd35750600160a060020a03891661babe14155b1515611d135760405160e560020a62461bcd028152600401808060200182810382526024815260200180615a096024913960400191505060405180910390fd5b600160a060020a03891660009081526012602052604090206005015415611d6e5760405160e560020a62461bcd028152600401808060200182810382526025815260200180615bc36025913960400191505060405180910390fd5b600086118015611db35750600160a060020a03851660009081527fdc7fafdc41998a74ecacb8f8bd877011aba1f1d03a3a0d37a2e7879a393b1d6a6020526040902054155b15611dfc57600c5460c811611dfc5760405160e560020a62461bcd028152600401808060200182810382526047815260200180615a2d6047913960600191505060405180910390fd5b604080517f23b872dd000000000000000000000000000000000000000000000000000000008152336004820152306024820152604481018890529051600160a060020a038716916323b872dd9160648083019260209291908290030181600087803b158015611e6a57600080fd5b505af1158015611e7e573d6000803e3d6000fd5b505050506040513d6020811015611e9457600080fd5b50511515611eec576040805160e560020a62461bcd02815260206004820152601d60248201527f7472696275746520746f6b656e207472616e73666572206661696c6564000000604482015290519081900360640190fd5b611ef961beef8688615586565b611f01615742565b611f128a8a8a8a8a8a8a8a8961484e565b505060095460001901600160005598975050505050505050565b33600090815260136020908152604080832054600160a060020a03168352601290915281206001015411611faa576040805160e560020a62461bcd02815260206004820152600e60248201527f6e6f7420612064656c6567617465000000000000000000000000000000000000604482015290519081900360640190fd5b60005460021415611ff3576040805160e560020a62461bcd02815260206004820152601f6024820152600080516020615977833981519152604482015290519081900360640190fd5b60026000908155600160a060020a0382168082527fa30f7a7832bd8a7a8daa3a3f5b7a6f7cec6a2fbb1a121fa5b76520e44736771c602090815260408084205481517f70a0823100000000000000000000000000000000000000000000000000000000815230600482015291516120c294919391926370a08231926024808301939192829003018186803b15801561208a57600080fd5b505afa15801561209e573d6000803e3d6000fd5b505050506040513d60208110156120b457600080fd5b50519063ffffffff61465e16565b90506000811161211c576040805160e560020a62461bcd02815260206004820152601460248201527f6e6f20746f6b656e7320746f20636f6c6c656374000000000000000000000000604482015290519081900360640190fd5b600160a060020a0382166000908152600e602052604090205460ff1615156121785760405160e560020a62461bcd028152600401808060200182810382526024815260200180615ab86024913960400191505060405180910390fd5b600160a060020a03821660009081527fdc7fafdc41998a74ecacb8f8bd877011aba1f1d03a3a0d37a2e7879a393b1d6a602052604081205411806121be575060c8600c54105b15156121fe5760405160e560020a62461bcd028152600401808060200182810382526036815260200180615b8d6036913960400191505060405180910390fd5b600160a060020a03821660009081527fdc7fafdc41998a74ecacb8f8bd877011aba1f1d03a3a0d37a2e7879a393b1d6a6020526040902054151561224657600c805460010190555b61225361dead8383615586565b604080518281529051600160a060020a038416917f9381e53ffdc9733a6783a6f8665be3f89c231bb81a6771996ed553b4e75c0fe3919081900360200190a250506001600055565b600b5481565b60035481565b600160a060020a039182166000908152600d6020908152604080832093909416825291909152205490565b600e6020526000908152604090205460ff1681565b600f5490565b60165490565b60075481565b60025481565b60045481565b600061231c6002548361556d90919063ffffffff16565b6123246110a7565b101592915050565b60005460021415612375576040805160e560020a62461bcd02815260206004820152601f6024820152600080516020615977833981519152604482015290519081900360640190fd5b6002600090815533815260136020908152604080832054600160a060020a031683526012909152812060010154116123f7576040805160e560020a62461bcd02815260206004820152600e60248201527f6e6f7420612064656c6567617465000000000000000000000000000000000000604482015290519081900360640190fd5b60085460048054604080517f23b872dd0000000000000000000000000000000000000000000000000000000081523393810193909352306024840152604483019190915251610100909204600160a060020a0316916323b872dd916064808201926020929091908290030181600087803b15801561247457600080fd5b505af1158015612488573d6000803e3d6000fd5b505050506040513d602081101561249e57600080fd5b505115156124e05760405160e560020a62461bcd028152600401808060200182810382526026815260200180615cbb6026913960400191505060405180910390fd5b61250461beef600860019054906101000a9004600160a060020a0316600454615586565b60008181526015602052604090206001810154600160a060020a03161515612576576040805160e560020a62461bcd02815260206004820181905260248201527f70726f706f73616c206d7573742068617665206265656e2070726f706f736564604482015290519081900360640190fd5b600c81015460ff16156125bd5760405160e560020a62461bcd028152600401808060200182810382526023815260200180615c096023913960400191505060405180910390fd5b600c8101546301000000900460ff1615612621576040805160e560020a62461bcd02815260206004820152601b60248201527f70726f706f73616c20686173206265656e2063616e63656c6c65640000000000604482015290519081900360640190fd5b8054600160a060020a03166000908152601260205260409020600501541561267d5760405160e560020a62461bcd028152600401808060200182810382526025815260200180615bc36025913960400191505060405180910390fd5b600081600501541180156126ca57506006810154600160a060020a031660009081527fdc7fafdc41998a74ecacb8f8bd877011aba1f1d03a3a0d37a2e7879a393b1d6a6020526040902054155b1561271357600c5460c8116127135760405160e560020a62461bcd028152600401808060200182810382526048815260200180615c736048913960600191505060405180910390fd5b600c810154640100000000900460ff161561286d576006810154600160a060020a03166000908152600e602052604090205460ff16156127875760405160e560020a62461bcd028152600401808060200182810382526029815260200180615d266029913960400191505060405180910390fd5b6006810154600160a060020a031660009081526010602052604090205460ff16156127fc576040805160e560020a62461bcd02815260206004820152601d60248201527f616c72656164792070726f706f73656420746f2077686974656c697374000000604482015290519081900360640190fd5b600f54610190116128415760405160e560020a62461bcd028152600401808060200182810382526027815260200180615adc6027913960400191505060405180910390fd5b6006810154600160a060020a03166000908152601060205260409020805460ff1916600117905561291a565b600c81015465010000000000900460ff161561291a578054600160a060020a031660009081526011602052604090205460ff16156128f5576040805160e560020a62461bcd02815260206004820152601860248201527f616c72656164792070726f706f73656420746f206b69636b0000000000000000604482015290519081900360640190fd5b8054600160a060020a03166000908152601160205260409020805460ff191660011790555b600061298f600161298361292c6110a7565b6016541561297b576016805460159160009161294f90600163ffffffff61465e16565b8154811061295957fe5b906000526020600020015481526020019081526020016000206009015461297e565b60005b6155e4565b9063ffffffff61556d16565b600983018190553360008181526013602052604081205460028601805473ffffffffffffffffffffffffffffffffffffffff1916600160a060020a039092169182179055600c8601805460ff19166001908117909155601680548083018255938190527fd833147d7dc355ba459fc788f669e58cfaf9dc25ddcd0702e87d69c7b51242899093018890559154939450928392917f2a383a979381335e3eb401ac01dd8083e024ff0256bf5338456ffc0063390bbd918891612a50919061465e565b604080519283526020830191909152818101879052519081900360600190a3505060016000555050565b60005460021415612ac3576040805160e560020a62461bcd02815260206004820152601f6024820152600080516020615977833981519152604482015290519081900360640190fd5b6002600090815533815260136020908152604080832054600160a060020a03168352601290915281206001015411612b45576040805160e560020a62461bcd02815260206004820152600e60248201527f6e6f7420612064656c6567617465000000000000000000000000000000000000604482015290519081900360640190fd5b33600090815260136020908152604080832054600160a060020a031680845260129092529091206016548410612bc5576040805160e560020a62461bcd02815260206004820152601760248201527f70726f706f73616c20646f6573206e6f74206578697374000000000000000000604482015290519081900360640190fd5b600060156000601687815481101515612bda57fe5b90600052602060002001548152602001908152602001600020905060038460ff16101515612c52576040805160e560020a62461bcd02815260206004820152601360248201527f6d757374206265206c657373207468616e203300000000000000000000000000604482015290519081900360640190fd5b60008460ff166002811115612c6357fe5b90508160090154612c726110a7565b1015612cc8576040805160e560020a62461bcd02815260206004820152601d60248201527f766f74696e6720706572696f6420686173206e6f742073746172746564000000604482015290519081900360640190fd5b612cd58260090154612305565b15612d145760405160e560020a62461bcd028152600401808060200182810382526022815260200180615ce16022913960400191505060405180910390fd5b600160a060020a0384166000908152600f8301602052604081205460ff166002811115612d3d57fe5b14612d92576040805160e560020a62461bcd02815260206004820152601860248201527f6d656d6265722068617320616c726561647920766f7465640000000000000000604482015290519081900360640190fd5b6001816002811115612da057fe5b1480612db757506002816002811115612db557fe5b145b1515612e0d576040805160e560020a62461bcd02815260206004820152601d60248201527f766f7465206d7573742062652065697468657220596573206f72204e6f000000604482015290519081900360640190fd5b600160a060020a0384166000908152600f830160205260409020805482919060ff19166001836002811115612e3e57fe5b02179055506001816002811115612e5157fe5b1415612ec9576001830154600a830154612e709163ffffffff61556d16565b600a8301556004830154861115612e8957600483018690555b600e820154600b54600a54612ea39163ffffffff61556d16565b1115612ec457600b54600a54612ebe9163ffffffff61556d16565b600e8301555b612efc565b6002816002811115612ed757fe5b1415612efc576001830154600b830154612ef69163ffffffff61556d16565b600b8301555b83600160a060020a031633600160a060020a0316877f804f03797630bf8b8a46b9371608abbf7d78a20df720e477bab641957ca68a2060168a815481101515612f4157fe5b906000526020600020015489604051808381526020018260ff1660ff1681526020019250505060405180910390a45050600160005550505050565b600c5481565b6016546000908210612fde576040805160e560020a62461bcd02815260206004820152601760248201527f70726f706f73616c20646f6573206e6f74206578697374000000000000000000604482015290519081900360640190fd5b60156000601684815481101515612ff157fe5b90600052602060002001548152602001908152602001600020600c01600160068110151561301b57fe5b602081049091015460ff601f9092166101000a9004169050919050565b60085460ff1615613093576040805160e560020a62461bcd02815260206004820152600b60248201527f696e697469616c697a6564000000000000000000000000000000000000000000604482015290519081900360640190fd5b8a81146130d45760405160e560020a62461bcd028152600401808060200182810382526029815260200180615b036029913960400191505060405180910390fd5b6000881161312c576040805160e560020a62461bcd02815260206004820152601b60248201527f5f706572696f644475726174696f6e2063616e6e6f7420626520300000000000604482015290519081900360640190fd5b60008711613184576040805160e560020a62461bcd02815260206004820152601f60248201527f5f766f74696e67506572696f644c656e6774682063616e6e6f74206265203000604482015290519081900360640190fd5b670de0b6b3a76400008711156131ce5760405160e560020a62461bcd028152600401808060200182810382526021815260200180615be86021913960400191505060405180910390fd5b670de0b6b3a764000086111561322e576040805160e560020a62461bcd02815260206004820181905260248201527f5f6772616365506572696f644c656e6774682065786365656473206c696d6974604482015290519081900360640190fd5b60008411613286576040805160e560020a62461bcd02815260206004820152601a60248201527f5f64696c7574696f6e426f756e642063616e6e6f742062652030000000000000604482015290519081900360640190fd5b670de0b6b3a76400008411156132e6576040805160e560020a62461bcd02815260206004820152601c60248201527f5f64696c7574696f6e426f756e642065786365656473206c696d697400000000604482015290519081900360640190fd5b6000891161333e576040805160e560020a62461bcd02815260206004820181905260248201527f6e656564206174206c65617374206f6e6520617070726f76656420746f6b656e604482015290519081900360640190fd5b610190891115613398576040805160e560020a62461bcd02815260206004820152600f60248201527f746f6f206d616e7920746f6b656e730000000000000000000000000000000000604482015290519081900360640190fd5b828510156133da5760405160e560020a62461bcd028152600401808060200182810382526039815260200180615d4f6039913960400191505060405180910390fd5b898960008181106133e757fe5b90506020020135600160a060020a0316600860016101000a815481600160a060020a030219169083600160a060020a0316021790555060008090505b8b8110156136665760008d8d8381811061343957fe5b90506020020135600160a060020a0316600160a060020a0316141515156134aa576040805160e560020a62461bcd02815260206004820152601460248201527f73756d6d6f6e65722063616e6e6f742062652030000000000000000000000000604482015290519081900360640190fd5b6040805160c08101909152808e8e848181106134c257fe5b90506020020135600160a060020a0316600160a060020a0316815260200184848481811015156134ee57fe5b90506020020135815260200160008152602001600115158152602001600081526020016000815250601260008f8f85818110151561352857fe5b60209081029290920135600160a060020a039081168452838301949094525060409182016000208451815473ffffffffffffffffffffffffffffffffffffffff1916941693909317835583015160018301558201516002820155606082015160038201805460ff19169115159190911790556080820151600482015560a0909101516005909101558c8c828181106135bc57fe5b90506020020135600160a060020a0316601360008f8f8581811015156135de57fe5b90506020020135600160a060020a0316600160a060020a0316600160a060020a0316815260200190815260200160002060006101000a815481600160a060020a030219169083600160a060020a0316021790555061365b838383818110151561364357fe5b90506020020135600a5461556d90919063ffffffff16565b600a55600101613423565b50600a54670de0b6b3a764000010156136c9576040805160e560020a62461bcd02815260206004820152601960248201527f746f6f206d616e79207368617265732072657175657374656400000000000000604482015290519081900360640190fd5b60005b8981101561387f5760008b8b838181106136e257fe5b90506020020135600160a060020a0316600160a060020a031614151515613753576040805160e560020a62461bcd02815260206004820152601a60248201527f5f617070726f766564546f6b656e2063616e6e6f742062652030000000000000604482015290519081900360640190fd5b600e60008c8c8481811061376357fe5b60209081029290920135600160a060020a03168352508101919091526040016000205460ff16156137de576040805160e560020a62461bcd02815260206004820152601860248201527f6475706c696361746520617070726f76656420746f6b656e0000000000000000604482015290519081900360640190fd5b6001600e60008d8d858181106137f057fe5b60209081029290920135600160a060020a0316835250810191909152604001600020805460ff1916911515919091179055600f8b8b8381811061382f57fe5b8354600181810186556000958652602095869020909101805473ffffffffffffffffffffffffffffffffffffffff1916600160a060020a03969093029490940135949094161790915550016136cc565b5050506001958655600294909455600392909255600455600555600655426007556008805460ff1916909117905550505050565b60055481565b6138c1615742565b600082815260156020526040808220815160c081019283905292600c909101916006918390855b825461010083900a900460ff1615158152602060019283018181049485019490930390920291018084116138e8575094979650505050505050565b601480548290811061140257fe5b60015481565b6008546101009004600160a060020a031681565b60095481565b6000546002141561399a576040805160e560020a62461bcd02815260206004820152601f6024820152600080516020615977833981519152604482015290519081900360640190fd5b60026000908155600160a060020a038216815260126020526040902060058101541515613a11576040805160e560020a62461bcd02815260206004820152601660248201527f6d656d626572206d75737420626520696e206a61696c00000000000000000000604482015290519081900360640190fd5b6002810154600010613a6d576040805160e560020a62461bcd02815260206004820152601a60248201527f6d656d626572206d757374206861766520736f6d65206c6f6f74000000000000604482015290519081900360640190fd5b613a7a8160040154612f82565b1515613aba5760405160e560020a62461bcd02815260040180806020018281038252604d815260200180615997604d913960600191505060405180910390fd5b6111718260008360020154614c09565b60005460021415613b13576040805160e560020a62461bcd02815260206004820152601f6024820152600080516020615977833981519152604482015290519081900360640190fd5b60026000908155818152601560205260409020600c81015460ff1615613b6d5760405160e560020a62461bcd028152600401808060200182810382526023815260200180615c096023913960400191505060405180910390fd5b600c8101546301000000900460ff1615613bbb5760405160e560020a62461bcd028152600401808060200182810382526023815260200180615d036023913960400191505060405180910390fd5b6001810154600160a060020a03163314613c1f576040805160e560020a62461bcd02815260206004820152601e60248201527f736f6c656c79207468652070726f706f7365722063616e2063616e63656c0000604482015290519081900360640190fd5b600c8101805463ff00000019166301000000179055600181015460068201546005830154613c5f9261beef92600160a060020a03918216929116906155fb565b60408051338152905183917fc215fed6680bb02d323dc3f8b8f85241572607538426059c9232601bd293c3be919081900360200190a250506001600055565b60106020526000908152604090205460ff1681565b60005460021415613cfc576040805160e560020a62461bcd02815260206004820152601f6024820152600080516020615977833981519152604482015290519081900360640190fd5b6002600055613d0a81614f4a565b6000601682815481101515613d1b57fe5b60009182526020808320919091015480835260159091526040909120600c8101549192509065010000000000900460ff161515613da2576040805160e560020a62461bcd02815260206004820152601d60248201527f6d7573742062652061206775696c64206b69636b2070726f706f73616c000000604482015290519081900360640190fd5b600c8101805461ff0019166101001790556000613dbe846152cb565b90508015613e4e57600c8201805462ff00001916620100001790558154600160a060020a031660009081526012602052604090206005810185905560018101546002820154613e0c9161556d565b60028201556001810154600a54613e289163ffffffff61465e16565b600a556001810154600b54613e429163ffffffff61556d16565b600b5560006001909101555b8154600160a060020a039081166000908152601160205260409020805460ff191690556002830154613e80911661550c565b6040805182151581529051849186917f0e347d00d3e9e6cdff9e6c09092c9ff1bd448f9b3dfb7091b30939ec5e7a3c739181900360200190a3505060016000555050565b60005460021415613f0d576040805160e560020a62461bcd02815260206004820152601f6024820152600080516020615977833981519152604482015290519081900360640190fd5b6002600055613f1b81614f4a565b6000601682815481101515613f2c57fe5b60009182526020808320919091015480835260159091526040909120600c81015491925090640100000000900460ff16158015613f775750600c81015465010000000000900460ff16155b1515613fcd576040805160e560020a62461bcd02815260206004820152601b60248201527f6d7573742062652061207374616e646172642070726f706f73616c0000000000604482015290519081900360640190fd5b600c8101805461ff0019166101001790556000613fe9846152cb565b9050670de0b6b3a764000061401b83600401546129838560030154612983600b54600a5461556d90919063ffffffff16565b1115614025575060005b6008820154600160a060020a031660009081527fdc7fafdc41998a74ecacb8f8bd877011aba1f1d03a3a0d37a2e7879a393b1d6a602052604090205460078301541115614070575060005b600082600501541180156140bd57506006820154600160a060020a031660009081527fdc7fafdc41998a74ecacb8f8bd877011aba1f1d03a3a0d37a2e7879a393b1d6a6020526040902054155b80156140cc575060c8600c5410155b156140d5575060005b801561444857600c8201805462ff00001916620100001790558154600160a060020a031660009081526012602052604090206003015460ff16156141ac5760038201548254600160a060020a03166000908152601260205260409020600101546141449163ffffffff61556d16565b8254600160a060020a0390811660009081526012602052604080822060010193909355600485015485549092168152919091206002015461418a9163ffffffff61556d16565b8254600160a060020a0316600090815260126020526040902060020155614309565b8154600160a060020a03908116600090815260136020908152604080832054909316825260129052206003015460ff161561423d578154600160a060020a03908116600090815260136020908152604080832054909316808352838320805473ffffffffffffffffffffffffffffffffffffffff199081168317909155601290925292909120805490911690911790555b6040805160c0810182528354600160a060020a0390811680835260038087015460208086019182526004808a0154878901908152600160608901818152600060808b0181815260a08c01828152998252601287528c82209b518c54908c1673ffffffffffffffffffffffffffffffffffffffff19918216178d559751938c0193909355925160028b015551958901805496151560ff1990971696909617909555935190870155925160059095019490945586549092168083526013909152929020805490911690911790555b6003820154600a546143209163ffffffff61556d16565b600a556004820154600b5461433a9163ffffffff61556d16565b600b556006820154600160a060020a031660009081527fdc7fafdc41998a74ecacb8f8bd877011aba1f1d03a3a0d37a2e7879a393b1d6a602052604090205415801561438a575060008260050154115b1561439957600c805460010190555b600682015460058301546143be9161beef9161dead91600160a060020a0316906155fb565b8154600883015460078401546143e69261dead92600160a060020a03918216929116906155fb565b6008820154600160a060020a031660009081527fdc7fafdc41998a74ecacb8f8bd877011aba1f1d03a3a0d37a2e7879a393b1d6a6020526040902054158015614433575060008260070154115b1561444357600c80546000190190555b614473565b6001820154600683015460058401546144739261beef92600160a060020a03918216929116906155fb565b600282015461448a90600160a060020a031661550c565b6040805182151581529051849186917f86f74240ecee9e4230d26ff92e17fee978460d9c0f78f5c88b2864c9e7a494279181900360200190a3505060016000555050565b61beef81565b61dead81565b6000805460021415614524576040805160e560020a62461bcd02815260206004820152601f6024820152600080516020615977833981519152604482015290519081900360640190fd5b6002600055600160a060020a0383161515614589576040805160e560020a62461bcd02815260206004820152601a60248201527f6d7573742070726f7669646520746f6b656e2061646472657373000000000000604482015290519081900360640190fd5b600160a060020a0383166000908152600e602052604090205460ff16156145e45760405160e560020a62461bcd028152600401808060200182810382526029815260200180615d266029913960400191505060405180910390fd5b600f54610190116146295760405160e560020a62461bcd028152600401808060200182810382526026815260200180615c4d6026913960400191505060405180910390fd5b614631615742565b6001608082015261464a60008080808881808a8961484e565b505060095460001901600160005592915050565b60008282111561466d57600080fd5b50900390565b600080821161468157600080fd5b6000828481151561468e57fe5b04949350505050565b336000908152600d60209081526040808320600160a060020a0386168452909152902054811115614712576040805160e560020a62461bcd02815260206004820152601460248201527f696e73756666696369656e742062616c616e6365000000000000000000000000604482015290519081900360640190fd5b61471d338383615617565b604080517fa9059cbb000000000000000000000000000000000000000000000000000000008152336004820152602481018390529051600160a060020a0384169163a9059cbb9160448083019260209291908290030181600087803b15801561478557600080fd5b505af1158015614799573d6000803e3d6000fd5b505050506040513d60208110156147af57600080fd5b50511515614807576040805160e560020a62461bcd02815260206004820152600f60248201527f7472616e73666572206661696c65640000000000000000000000000000000000604482015290519081900360640190fd5b60408051600160a060020a038416815260208101839052815133927f9b1bfa7fa9ee420a16e124f794c35ac9f90472acc99140eb2f6447c714cad8eb928290030190a25050565b614856615761565b6101e0604051908101604052808b600160a060020a0316815260200133600160a060020a031681526020016000600160a060020a031681526020018a815260200189815260200188815260200187600160a060020a0316815260200186815260200185600160a060020a03168152602001600081526020016000815260200160008152602001838152602001848152602001600081525090508060156000600954815260200190815260200160002060008201518160000160006101000a815481600160a060020a030219169083600160a060020a0316021790555060208201518160010160006101000a815481600160a060020a030219169083600160a060020a0316021790555060408201518160020160006101000a815481600160a060020a030219169083600160a060020a03160217905550606082015181600301556080820151816004015560a0820151816005015560c08201518160060160006101000a815481600160a060020a030219169083600160a060020a0316021790555060e082015181600701556101008201518160080160006101000a815481600160a060020a030219169083600160a060020a03160217905550610120820151816009015561014082015181600a015561016082015181600b015561018082015181600c01906006614a4892919061580b565b506101a08201518051614a6591600d84019160209091019061589d565b506101c082015181600e015590505060006013600033600160a060020a0316600160a060020a0316815260200190815260200160002060009054906101000a9004600160a060020a0316905080600160a060020a031633600160a060020a03168c600160a060020a03167fa763e0f5e4f4e33a3397b4ba22677c9b6fd2075ed6504596333006ff2f3e38748d8d8d8d8d8d8d8d600954604051808a815260200189815260200188815260200187600160a060020a0316600160a060020a0316815260200186815260200185600160a060020a0316600160a060020a031681526020018060200184600660200280838360005b83811015614b6f578181015183820152602001614b57565b50505050905001838152602001828103825285818151815260200191508051906020019080838360005b83811015614bb1578181015183820152602001614b99565b50505050905090810190601f168015614bde5780820380516001836020036101000a031916815260200191505b509a505050505050505050505060405180910390a45050600980546001019055505050505050505050565b6000614c22600b54600a5461556d90919063ffffffff16565b600160a060020a0385166000908152601260205260409020600181015491925090841115614c9a576040805160e560020a62461bcd02815260206004820152601360248201527f696e73756666696369656e742073686172657300000000000000000000000000604482015290519081900360640190fd5b6002810154831115614cf6576040805160e560020a62461bcd02815260206004820152601160248201527f696e73756666696369656e74206c6f6f74000000000000000000000000000000604482015290519081900360640190fd5b614d038160040154612f82565b1515614d435760405160e560020a62461bcd02815260040180806020018281038252604d815260200180615997604d913960600191505060405180910390fd5b6000614d55858563ffffffff61556d16565b6001830154909150614d6d908663ffffffff61465e16565b60018301556002820154614d87908563ffffffff61465e16565b6002830155600a54614d9f908663ffffffff61465e16565b600a55600b54614db5908563ffffffff61465e16565b600b5560005b600f54811015614f075761dead6000908152600d602052600f8054614e35917fdc7fafdc41998a74ecacb8f8bd877011aba1f1d03a3a0d37a2e7879a393b1d6a9184919086908110614e0957fe5b6000918252602080832090910154600160a060020a031683528201929092526040019020548487615677565b90506000811115614efe5761dead6000908152600d602052600f805483927fdc7fafdc41998a74ecacb8f8bd877011aba1f1d03a3a0d37a2e7879a393b1d6a92909186908110614e8157fe5b6000918252602080832090910154600160a060020a0390811684528382019490945260409283018220805495909503909455918b168252600d909252908120600f80548493919086908110614ed257fe5b6000918252602080832090910154600160a060020a031683528201929092526040019020805490910190555b50600101614dbb565b506040805186815260208101869052815133927fcad1a1c68982832d9abc314de8a1e5d5e8c81b0588961e360766736d10c3be1a928290030190a2505050505050565b6016548110614fa3576040805160e560020a62461bcd02815260206004820152601760248201527f70726f706f73616c20646f6573206e6f74206578697374000000000000000000604482015290519081900360640190fd5b614fab615761565b60156000601684815481101515614fbe57fe5b6000918252602080832091909101548352828101939093526040918201812082516101e0810184528154600160a060020a039081168252600183015481169582019590955260028201548516818501526003820154606082015260048201546080820152600582015460a0820152600680830154861660c080840191909152600784015460e084015260088401549096166101008301526009830154610120830152600a830154610140830152600b83015461016083015284519586019485905290949193610180860193600c86019291908390855b825461010083900a900460ff16151581526020600192830181810494850194909303909202910180841161509457505050928452505050600d8201805460408051602060026001851615610100026000190190941693909304601f81018490048402820184019092528181529382019392918301828280156151575780601f1061512c57610100808354040283529160200191615157565b820191906000526020600020905b81548152906001019060200180831161513a57829003601f168201915b50505050508152602001600e82015481525050905061518c60035461298360025484610120015161556d90919063ffffffff16565b6151946110a7565b10156151d45760405160e560020a62461bcd0281526004018080602001828103825260258152602001806159e46025913960400191505060405180910390fd5b610180810151602001511561521d5760405160e560020a62461bcd028152600401808060200182810382526023815260200180615d886023913960400191505060405180910390fd5b811580615287575060156000601661523c85600163ffffffff61465e16565b8154811061524657fe5b90600052602060002001548152602001908152602001600020600c01600160068110151561527057fe5b602081049091015460ff601f9092166101000a9004165b15156152c75760405160e560020a62461bcd028152600401808060200182810382526023815260200180615a956023913960400191505060405180910390fd5b5050565b60006152d5615761565b601560006016858154811015156152e857fe5b6000918252602080832091909101548352828101939093526040918201812082516101e0810184528154600160a060020a039081168252600183015481169582019590955260028201548516818501526003820154606082015260048201546080820152600582015460a0820152600680830154861660c080840191909152600784015460e084015260088401549096166101008301526009830154610120830152600a830154610140830152600b83015461016083015284519586019485905290949193610180860193600c86019291908390855b825461010083900a900460ff1615158152602060019283018181049485019490930390920291018084116153be57505050928452505050600d8201805460408051602060026001851615610100026000190190941693909304601f81018490048402820184019092528181529382019392918301828280156154815780601f1061545657610100808354040283529160200191615481565b820191906000526020600020905b81548152906001019060200180831161546457829003601f168201915b50505050508152602001600e820154815250509050806101600151816101400151119150806101c001516154d46005546154c8600b54600a5461556d90919063ffffffff16565b9063ffffffff6156d516565b10156154df57600091505b8051600160a060020a03166000908152601260205260409020600501541561550657600091505b50919050565b61553161beef33600860019054906101000a9004600160a060020a03166006546155fb565b61556a61beef82600860019054906101000a9004600160a060020a031661556560065460045461465e90919063ffffffff16565b6155fb565b50565b60008282018381101561557f57600080fd5b9392505050565b600160a060020a039283166000908152600d602090815260408083209490951682529283528381208054830190557fa30f7a7832bd8a7a8daa3a3f5b7a6f7cec6a2fbb1a121fa5b76520e44736771c90925291902080549091019055565b6000818310156155f4578161557f565b5090919050565b615606848383615617565b615611838383615586565b50505050565b600160a060020a039283166000908152600d60209081526040808320949095168252928352838120805483900390557fa30f7a7832bd8a7a8daa3a3f5b7a6f7cec6a2fbb1a121fa5b76520e44736771c9092529190208054919091039055565b600081151561568557600080fd5b8315156156945750600061557f565b8383028385828115156156a357fe5b0414156156be5782818115156156b557fe5b0491505061557f565b8383868115156156ca57fe5b040295945050505050565b60008215156156e6575060006110a1565b8282028284828115156156f557fe5b041461557f57600080fd5b60c0604051908101604052806000600160a060020a03168152602001600081526020016000815260200160001515815260200160008152602001600081525090565b60c0604051908101604052806006906020820280388339509192915050565b610280604051908101604052806000600160a060020a031681526020016000600160a060020a031681526020016000600160a060020a031681526020016000815260200160008152602001600081526020016000600160a060020a03168152602001600081526020016000600160a060020a031681526020016000815260200160008152602001600081526020016157f7615742565b815260200160608152602001600081525090565b60018301918390821561588d5791602002820160005b8382111561585e57835183826101000a81548160ff0219169083151502179055509260200192600101602081600001049283019260010302615821565b801561588b5782816101000a81549060ff021916905560010160208160000104928301926001030261585e565b505b50615899929150615917565b5090565b828054600181600116156101000203166002900490600052602060002090601f016020900481019282601f106158de57805160ff191683800117855561590b565b8280016001018555821561590b579182015b8281111561590b5782518255916020019190600101906158f0565b50615899929150615935565b6110d391905b8082111561589957805460ff1916815560010161591d565b6110d391905b80821115615899576000815560010161593b56fe63616e6e6f74206f7665727772697465206578697374696e672064656c6567617465206b6579735265656e7472616e637947756172643a207265656e7472616e742063616c6c0063616e6e6f7420726167657175697420756e74696c206869676865737420696e6465782070726f706f73616c206d656d62657220766f74656420594553206f6e2069732070726f63657373656470726f706f73616c206973206e6f7420726561647920746f2062652070726f6365737365646170706c6963616e7420616464726573732063616e6e6f7420626520726573657276656463616e6e6f74207375626d6974206d6f726520747269627574652070726f706f73616c7320666f72206e657720746f6b656e73202d206775696c6462616e6b2069732066756c6c6d656d626572206d757374206e6f7420616c7265616479206265206a61696c656470726576696f75732070726f706f73616c206d7573742062652070726f636573736564746f6b656e20746f20636f6c6c656374206d7573742062652077686974656c697374656463616e6e6f742073706f6e736f72206d6f72652077686974656c6973742070726f706f73616c7373756d6d6f6e6572206c656e677468206d69736d6174636865732073756d6d6f6e65725368617265736d656d626572206d7573742068617665206174206c65617374206f6e65207368617265206f72206f6e65206c6f6f74746f6b656e7320616e6420616d6f756e747320617272617973206d757374206265206d61746368696e67206c656e67746873746f6b656e20746f20636f6c6c656374206d7573742068617665206e6f6e2d7a65726f206775696c642062616e6b2062616c616e636570726f706f73616c206170706c6963616e74206d757374206e6f74206265206a61696c65645f766f74696e67506572696f644c656e6774682065786365656473206c696d697470726f706f73616c2068617320616c7265616479206265656e2073706f6e736f72656463616e6e6f74206f7665727772697465206578697374696e67206d656d6265727363616e6e6f74207375626d6974206d6f72652077686974656c6973742070726f706f73616c7363616e6e6f742073706f6e736f72206d6f726520747269627574652070726f706f73616c7320666f72206e657720746f6b656e73202d206775696c6462616e6b2069732066756c6c70726f706f73616c206465706f73697420746f6b656e207472616e73666572206661696c656470726f706f73616c20766f74696e6720706572696f6420686173206578706972656470726f706f73616c2068617320616c7265616479206265656e2063616e63656c6c656463616e6e6f7420616c726561647920686176652077686974656c69737465642074686520746f6b656e5f70726f706f73616c4465706f7369742063616e6e6f7420626520736d616c6c6572207468616e205f70726f63657373696e6752657761726470726f706f73616c2068617320616c7265616479206265656e2070726f636573736564a165627a7a7230582071ecb41d37055100d83e0426aab733e7902f2a96d987f28f94d0bacb44729e740029",
  "linkReferences": {},
  "deployedLinkReferences": {}
}