{
  "_format": "hh-sol-artifact-1",
  "contractName": "MolochSummoner",
  "sourceName": "contracts/test-helper/Molochv21.sol",
  "abi": [
    {
      "constant": false,
      "inputs": [
        {
          "name": "_summoner",
          "type": "address[]"
        },
        {
          "name": "_approvedTokens",
          "type": "address[]"
        },
        {
          "name": "_periodDuration",
          "type": "uint256"
        },
        {
          "name": "_votingPeriodLength",
          "type": "uint256"
        },
        {
          "name": "_gracePeriodLength",
          "type": "uint256"
        },
        {
          "name": "_proposalDeposit",
          "type": "uint256"
        },
        {
          "name": "_dilutionBound",
          "type": "uint256"
        },
        {
          "name": "_processingReward",
          "type": "uint256"
        },
        {
          "name": "_summonerShares",
          "type": "uint256[]"
        }
      ],
      "name": "summonMoloch",
      "outputs": [
        {
          "name": "",
          "type": "address"
        }
      ],
      "payable": false,
      "stateMutability": "nonpayable",
      "type": "function"
    },
    {
      "constant": true,
      "inputs": [],
      "name": "template",
      "outputs": [
        {
          "name": "",
          "type": "address"
        }
      ],
      "payable": false,
      "stateMutability": "view",
      "type": "function"
    },
    {
      "constant": true,
      "inputs": [
        {
          "name": "",
          "type": "address"
        }
      ],
      "name": "daos",
      "outputs": [
        {
          "name": "",
          "type": "bool"
        }
      ],
      "payable": false,
      "stateMutability": "view",
      "type": "function"
    },
    {
      "constant": false,
      "inputs": [
        {
          "name": "_daoAdress",
          "type": "address"
        },
        {
          "name": "_daoTitle",
          "type": "string"
        },
        {
          "name": "_http",
          "type": "string"
        },
        {
          "name": "_version",
          "type": "uint256"
        }
      ],
      "name": "registerDao",
      "outputs": [
        {
          "name": "",
          "type": "bool"
        }
      ],
      "payable": false,
      "stateMutability": "nonpayable",
      "type": "function"
    },
    {
      "inputs": [
        {
          "name": "_template",
          "type": "address"
        }
      ],
      "payable": false,
      "stateMutability": "nonpayable",
      "type": "constructor"
    },
    {
      "anonymous": false,
      "inputs": [
        {
          "indexed": true,
          "name": "moloch",
          "type": "address"
        },
        {
          "indexed": false,
          "name": "summoner",
          "type": "address[]"
        },
        {
          "indexed": false,
          "name": "tokens",
          "type": "address[]"
        },
        {
          "indexed": false,
          "name": "summoningTime",
          "type": "uint256"
        },
        {
          "indexed": false,
          "name": "periodDuration",
          "type": "uint256"
        },
        {
          "indexed": false,
          "name": "votingPeriodLength",
          "type": "uint256"
        },
        {
          "indexed": false,
          "name": "gracePeriodLength",
          "type": "uint256"
        },
        {
          "indexed": false,
          "name": "proposalDeposit",
          "type": "uint256"
        },
        {
          "indexed": false,
          "name": "dilutionBound",
          "type": "uint256"
        },
        {
          "indexed": false,
          "name": "processingReward",
          "type": "uint256"
        },
        {
          "indexed": false,
          "name": "summonerShares",
          "type": "uint256[]"
        }
      ],
      "name": "SummonComplete",
      "type": "event"
    },
    {
      "anonymous": false,
      "inputs": [
        {
          "indexed": false,
          "name": "daoIdx",
          "type": "uint256"
        },
        {
          "indexed": false,
          "name": "moloch",
          "type": "address"
        },
        {
          "indexed": false,
          "name": "title",
          "type": "string"
        },
        {
          "indexed": false,
          "name": "http",
          "type": "string"
        },
        {
          "indexed": false,
          "name": "version",
          "type": "uint256"
        }
      ],
      "name": "Register",
      "type": "event"
    }
  ],
  "bytecode": "0x6080604052600060025534801561001557600080fd5b50604051602080610b818339810180604052602081101561003557600080fd5b505160008054600160a060020a03909216600160a060020a0319909216919091179055610b1a806100676000396000f3fe608060405234801561001057600080fd5b5060043610610068577c0100000000000000000000000000000000000000000000000000000000600035046337c8d503811461006d5780636f2ddd9314610265578063c25f3cf61461026d578063dfc35ad1146102b4575b600080fd5b61023c600480360361012081101561008457600080fd5b81019060208101813564010000000081111561009f57600080fd5b8201836020820111156100b157600080fd5b803590602001918460208302840111640100000000831117156100d357600080fd5b919080806020026020016040519081016040528093929190818152602001838360200280828437600092019190915250929594936020810193503591505064010000000081111561012357600080fd5b82018360208201111561013557600080fd5b8035906020019184602083028401116401000000008311171561015757600080fd5b919080806020026020016040519081016040528093929190818152602001838360200280828437600092019190915250929584359560208601359560408101359550606081013594506080810135935060a081013592919060e081019060c001356401000000008111156101ca57600080fd5b8201836020820111156101dc57600080fd5b803590602001918460208302840111640100000000831117156101fe57600080fd5b919080806020026020016040519081016040528093929190818152602001838360200280828437600092019190915250929550610400945050505050565b6040805173ffffffffffffffffffffffffffffffffffffffff9092168252519081900360200190f35b61023c610706565b6102a06004803603602081101561028357600080fd5b503573ffffffffffffffffffffffffffffffffffffffff16610722565b604080519115158252519081900360200190f35b6102a0600480360360808110156102ca57600080fd5b73ffffffffffffffffffffffffffffffffffffffff823516919081019060408101602082013564010000000081111561030257600080fd5b82018360208201111561031457600080fd5b8035906020019184600183028401116401000000008311171561033657600080fd5b91908080601f016020809104026020016040519081016040528093929190818152602001838380828437600092019190915250929594936020810193503591505064010000000081111561038957600080fd5b82018360208201111561039b57600080fd5b803590602001918460018302840111640100000000831117156103bd57600080fd5b91908080601f0160208091040260200160405190810160405280939291908181526020018383808284376000920191909152509295505091359250610737915050565b6000805481906104259073ffffffffffffffffffffffffffffffffffffffff16610a7b565b90508073ffffffffffffffffffffffffffffffffffffffff1663a91626198c8c8c8c8c8c8c8c8c6040518a63ffffffff167c01000000000000000000000000000000000000000000000000000000000281526004018080602001806020018a81526020018981526020018881526020018781526020018681526020018581526020018060200184810384528d818151815260200191508051906020019060200280838360005b838110156104e35781810151838201526020016104cb565b5050505090500184810383528c818151815260200191508051906020019060200280838360005b8381101561052257818101518382015260200161050a565b50505050905001848103825285818151815260200191508051906020019060200280838360005b83811015610561578181015183820152602001610549565b505050509050019c50505050505050505050505050600060405180830381600087803b15801561059057600080fd5b505af11580156105a4573d6000803e3d6000fd5b505050508073ffffffffffffffffffffffffffffffffffffffff167f099e0b09e056ad33e22e4d35de2e837a30ba249f33d912abb7e1e273bbf9d6508c8c428d8d8d8d8d8d8d6040518080602001806020018b81526020018a81526020018981526020018881526020018781526020018681526020018581526020018060200184810384528e818151815260200191508051906020019060200280838360005b8381101561065c578181015183820152602001610644565b5050505090500184810383528d818151815260200191508051906020019060200280838360005b8381101561069b578181015183820152602001610683565b50505050905001848103825285818151815260200191508051906020019060200280838360005b838110156106da5781810151838201526020016106c2565b505050509050019d505050505050505050505050505060405180910390a29a9950505050505050505050565b60005473ffffffffffffffffffffffffffffffffffffffff1681565b60016020526000908152604090205460ff1681565b600380547fffffffffffffffffffffffff00000000000000000000000000000000000000001673ffffffffffffffffffffffffffffffffffffffff8681169190911791829055604080517f08ae4b0c0000000000000000000000000000000000000000000000000000000081523360048201529051600093849316916308ae4b0c9160248083019260c0929190829003018186803b1580156107d857600080fd5b505afa1580156107ec573d6000803e3d6000fd5b505050506040513d60c081101561080257600080fd5b5060600151905060018115151461087a57604080517f08c379a000000000000000000000000000000000000000000000000000000000815260206004820152601060248201527f6d7573742062652061206d656d62657200000000000000000000000000000000604482015290519081900360640190fd5b73ffffffffffffffffffffffffffffffffffffffff861660009081526001602052604090205460ff161561090f57604080517f08c379a000000000000000000000000000000000000000000000000000000000815260206004820152601f60248201527f64616f206d6574616461746120616c7265616479207265676973746572656400604482015290519081900360640190fd5b73ffffffffffffffffffffffffffffffffffffffff86166000818152600160208181526040808420805460ff19168417905560028054909301928390558051838152808301959095526080850188905260a09085018181528a519186019190915289517ffa01623ae7dadfb821d1e96adaf9e6dca0b6437e6c73dfe18af0d9ba73301d439593948c948c948c948c9492939092606085019260c086019290890191908190849084905b838110156109d05781810151838201526020016109b8565b50505050905090810190601f1680156109fd5780820380516001836020036101000a031916815260200191505b50838103825285518152855160209182019187019080838360005b83811015610a30578181015183820152602001610a18565b50505050905090810190601f168015610a5d5780820380516001836020036101000a031916815260200191505b5097505050505050505060405180910390a150600195945050505050565b6040517f3d602d80600a3d3981f3363d3d373d3d3d363d7300000000000000000000000081526c010000000000000000000000008202601482018190527f5af43d82803e903d91602b57fd5bf30000000000000000000000000000000000602883015260009160378184f094935050505056fea165627a7a723058205a65d61a3d7481a43f782a5eab4ccff6e59b5a6d4f9e9f06cbb34c2bfc523c8c0029",
  "linkReferences": {},
  "deployedLinkReferences": {}
}