{
  "_format": "hh-sol-artifact-1",
  "contractName": "MinionFactory",
  "sourceName": "contracts/MinionFactory.sol",
  "abi": [
    {
      "inputs": [
        {
          "internalType": "address payable",
          "name": "_template",
          "type": "address"
        }
      ],
      "stateMutability": "nonpayable",
      "type": "constructor"
    },
    {
      "anonymous": false,
      "inputs": [
        {
          "indexed": true,
          "internalType": "address",
          "name": "minion",
          "type": "address"
        },
        {
          "indexed": true,
          "internalType": "address",
          "name": "moloch",
          "type": "address"
        },
        {
          "indexed": false,
          "internalType": "string",
          "name": "details",
          "type": "string"
        },
        {
          "indexed": false,
          "internalType": "string",
          "name": "minionType",
          "type": "string"
        }
      ],
      "name": "SummonMinion",
      "type": "event"
    },
    {
      "inputs": [
        {
          "internalType": "uint256",
          "name": "",
          "type": "uint256"
        }
      ],
      "name": "minionList",
      "outputs": [
        {
          "internalType": "address",
          "name": "",
          "type": "address"
        }
      ],
      "stateMutability": "view",
      "type": "function"
    },
    {
      "inputs": [
        {
          "internalType": "address",
          "name": "",
          "type": "address"
        }
      ],
      "name": "minions",
      "outputs": [
        {
          "internalType": "address",
          "name": "moloch",
          "type": "address"
        },
        {
          "internalType": "string",
          "name": "details",
          "type": "string"
        }
      ],
      "stateMutability": "view",
      "type": "function"
    },
    {
      "inputs": [
        {
          "internalType": "address",
          "name": "moloch",
          "type": "address"
        },
        {
          "internalType": "string",
          "name": "details",
          "type": "string"
        }
      ],
      "name": "summonMinion",
      "outputs": [
        {
          "internalType": "address",
          "name": "",
          "type": "address"
        }
      ],
      "stateMutability": "nonpayable",
      "type": "function"
    },
    {
      "inputs": [],
      "name": "template",
      "outputs": [
        {
          "internalType": "address payable",
          "name": "",
          "type": "address"
        }
      ],
      "stateMutability": "view",
      "type": "function"
    }
  ],
  "bytecode": "0x60a060405234801561001057600080fd5b506040516109433803806109438339818101604052602081101561003357600080fd5b81019080805190602001909291905050508073ffffffffffffffffffffffffffffffffffffffff1660808173ffffffffffffffffffffffffffffffffffffffff1660601b815250505060805160601c6108a561009e600039806102be52806102e852506108a56000f3fe608060405234801561001057600080fd5b506004361061004c5760003560e01c80636f2ddd931461005157806376fff522146100855780637b3745871461018a578063d67014df146101e2575b600080fd5b6100596102bc565b604051808273ffffffffffffffffffffffffffffffffffffffff16815260200191505060405180910390f35b61015e6004803603604081101561009b57600080fd5b81019080803573ffffffffffffffffffffffffffffffffffffffff169060200190929190803590602001906401000000008111156100d857600080fd5b8201836020820111156100ea57600080fd5b8035906020019184600183028401116401000000008311171561010c57600080fd5b91908080601f016020809104026020016040519081016040528093929190818152602001838380828437600081840152601f19601f8201169050808301925050505050505091929192905050506102e0565b604051808273ffffffffffffffffffffffffffffffffffffffff16815260200191505060405180910390f35b6101b6600480360360208110156101a057600080fd5b810190808035906020019092919050505061063f565b604051808273ffffffffffffffffffffffffffffffffffffffff16815260200191505060405180910390f35b610224600480360360208110156101f857600080fd5b81019080803573ffffffffffffffffffffffffffffffffffffffff16906020019092919050505061067e565b604051808373ffffffffffffffffffffffffffffffffffffffff16815260200180602001828103825283818151815260200191508051906020019080838360005b83811015610280578082015181840152602081019050610265565b50505050905090810190601f1680156102ad5780820380516001836020036101000a031916815260200191505b50935050505060405180910390f35b7f000000000000000000000000000000000000000000000000000000000000000081565b60008061030c7f000000000000000000000000000000000000000000000000000000000000000061075a565b90508073ffffffffffffffffffffffffffffffffffffffff166319ab453c856040518263ffffffff1660e01b8152600401808273ffffffffffffffffffffffffffffffffffffffff168152602001915050600060405180830381600087803b15801561037757600080fd5b505af115801561038b573d6000803e3d6000fd5b5050505060606040518060400160405280600e81526020017f76616e696c6c61206d696e696f6e000000000000000000000000000000000000815250905060405180604001604052808673ffffffffffffffffffffffffffffffffffffffff16815260200185815250600160008473ffffffffffffffffffffffffffffffffffffffff1673ffffffffffffffffffffffffffffffffffffffff16815260200190815260200160002060008201518160000160006101000a81548173ffffffffffffffffffffffffffffffffffffffff021916908373ffffffffffffffffffffffffffffffffffffffff16021790555060208201518160010190805190602001906104969291906107c4565b509050506000829080600181540180825580915050600190039060005260206000200160009091909190916101000a81548173ffffffffffffffffffffffffffffffffffffffff021916908373ffffffffffffffffffffffffffffffffffffffff1602179055508473ffffffffffffffffffffffffffffffffffffffff168273ffffffffffffffffffffffffffffffffffffffff167f82c46fce23f68e421df03972dc4fcfc2add76d8c37a037fbc47e378d132ca6268684604051808060200180602001838103835285818151815260200191508051906020019080838360005b83811015610592578082015181840152602081019050610577565b50505050905090810190601f1680156105bf5780820380516001836020036101000a031916815260200191505b50838103825284818151815260200191508051906020019080838360005b838110156105f85780820151818401526020810190506105dd565b50505050905090810190601f1680156106255780820380516001836020036101000a031916815260200191505b5094505050505060405180910390a3819250505092915050565b6000818154811061064f57600080fd5b906000526020600020016000915054906101000a900473ffffffffffffffffffffffffffffffffffffffff1681565b60016020528060005260406000206000915090508060000160009054906101000a900473ffffffffffffffffffffffffffffffffffffffff1690806001018054600181600116156101000203166002900480601f0160208091040260200160405190810160405280929190818152602001828054600181600116156101000203166002900480156107505780601f1061072557610100808354040283529160200191610750565b820191906000526020600020905b81548152906001019060200180831161073357829003601f168201915b5050505050905082565b6000808260601b90506040517f3d602d80600a3d3981f3363d3d373d3d3d363d7300000000000000000000000081528160148201527f5af43d82803e903d91602b57fd5bf3000000000000000000000000000000000060288201526037816000f092505050919050565b828054600181600116156101000203166002900490600052602060002090601f0160209004810192826107fa5760008555610841565b82601f1061081357805160ff1916838001178555610841565b82800160010185558215610841579182015b82811115610840578251825591602001919060010190610825565b5b50905061084e9190610852565b5090565b5b8082111561086b576000816000905550600101610853565b509056fea264697066735822122027385e131927a96280303f4ebb887502de93d9ea1f0fe0224d4db25439fe228464736f6c63430007050033",
  "linkReferences": {},
  "deployedLinkReferences": {}
}